{
  "contractName": "BullTycoonsFactoryMock",
  "abi": [
    {
      "inputs": [
        {
          "internalType": "address",
          "name": "_proxyRegistryAddress",
          "type": "address"
        },
        {
          "internalType": "address",
          "name": "_nftAddress",
          "type": "address"
        },
        {
          "internalType": "address",
          "name": "_wethAddress",
          "type": "address"
        }
      ],
      "stateMutability": "nonpayable",
      "type": "constructor"
    },
    {
      "anonymous": false,
      "inputs": [
        {
          "indexed": true,
          "internalType": "address",
          "name": "previousOwner",
          "type": "address"
        },
        {
          "indexed": true,
          "internalType": "address",
          "name": "newOwner",
          "type": "address"
        }
      ],
      "name": "OwnershipTransferred",
      "type": "event"
    },
    {
      "anonymous": false,
      "inputs": [
        {
          "indexed": true,
          "internalType": "address",
          "name": "from",
          "type": "address"
        },
        {
          "indexed": true,
          "internalType": "address",
          "name": "to",
          "type": "address"
        }
      ],
      "name": "Transfer",
      "type": "event"
    },
    {
      "inputs": [],
      "name": "MINT_PER_PERSON",
      "outputs": [
        {
          "internalType": "uint256",
          "name": "",
          "type": "uint256"
        }
      ],
      "stateMutability": "view",
      "type": "function",
      "constant": true
    },
    {
      "inputs": [],
      "name": "MINT_START",
      "outputs": [
        {
          "internalType": "bool",
          "name": "",
          "type": "bool"
        }
      ],
      "stateMutability": "view",
      "type": "function",
      "constant": true
    },
    {
      "inputs": [],
      "name": "MINT_START_DATE",
      "outputs": [
        {
          "internalType": "uint256",
          "name": "",
          "type": "uint256"
        }
      ],
      "stateMutability": "view",
      "type": "function",
      "constant": true
    },
    {
      "inputs": [],
      "name": "PRESALE_AMOUNT",
      "outputs": [
        {
          "internalType": "uint256",
          "name": "",
          "type": "uint256"
        }
      ],
      "stateMutability": "view",
      "type": "function",
      "constant": true
    },
    {
      "inputs": [],
      "name": "WHITELIST_MINT_ONLY",
      "outputs": [
        {
          "internalType": "bool",
          "name": "",
          "type": "bool"
        }
      ],
      "stateMutability": "view",
      "type": "function",
      "constant": true
    },
    {
      "inputs": [],
      "name": "baseURI",
      "outputs": [
        {
          "internalType": "string",
          "name": "",
          "type": "string"
        }
      ],
      "stateMutability": "view",
      "type": "function",
      "constant": true
    },
    {
      "inputs": [
        {
          "internalType": "address",
          "name": "_address",
          "type": "address"
        }
      ],
      "name": "checkWhitelisted",
      "outputs": [
        {
          "internalType": "bool",
          "name": "_isWhitelisted",
          "type": "bool"
        }
      ],
      "stateMutability": "view",
      "type": "function",
      "constant": true
    },
    {
      "inputs": [
        {
          "internalType": "address[]",
          "name": "_giveawayAddresses",
          "type": "address[]"
        },
        {
          "internalType": "uint256",
          "name": "_mintPerPerson",
          "type": "uint256"
        }
      ],
      "name": "dropMint",
      "outputs": [],
      "stateMutability": "nonpayable",
      "type": "function"
    },
    {
      "inputs": [],
      "name": "getMaxSupply",
      "outputs": [
        {
          "internalType": "uint256",
          "name": "",
          "type": "uint256"
        }
      ],
      "stateMutability": "view",
      "type": "function",
      "constant": true
    },
    {
      "inputs": [
        {
          "internalType": "address",
          "name": "_minter",
          "type": "address"
        }
      ],
      "name": "getNumberMinted",
      "outputs": [
        {
          "internalType": "uint256",
          "name": "numberMinted",
          "type": "uint256"
        }
      ],
      "stateMutability": "view",
      "type": "function",
      "constant": true
    },
    {
      "inputs": [
        {
          "internalType": "address",
          "name": "_owner",
          "type": "address"
        },
        {
          "internalType": "address",
          "name": "_operator",
          "type": "address"
        }
      ],
      "name": "isApprovedForAll",
      "outputs": [
        {
          "internalType": "bool",
          "name": "",
          "type": "bool"
        }
      ],
      "stateMutability": "view",
      "type": "function",
      "constant": true
    },
    {
      "inputs": [],
      "name": "name",
      "outputs": [
        {
          "internalType": "string",
          "name": "",
          "type": "string"
        }
      ],
      "stateMutability": "pure",
      "type": "function",
      "constant": true
    },
    {
      "inputs": [],
      "name": "nftAddress",
      "outputs": [
        {
          "internalType": "address",
          "name": "",
          "type": "address"
        }
      ],
      "stateMutability": "view",
      "type": "function",
      "constant": true
    },
    {
      "inputs": [],
      "name": "numOptions",
      "outputs": [
        {
          "internalType": "uint256",
          "name": "",
          "type": "uint256"
        }
      ],
      "stateMutability": "view",
      "type": "function",
      "constant": true
    },
    {
      "inputs": [],
      "name": "owner",
      "outputs": [
        {
          "internalType": "address",
          "name": "",
          "type": "address"
        }
      ],
      "stateMutability": "view",
      "type": "function",
      "constant": true
    },
    {
      "inputs": [
        {
          "internalType": "uint256",
          "name": "_tokenId",
          "type": "uint256"
        }
      ],
      "name": "ownerOf",
      "outputs": [
        {
          "internalType": "address",
          "name": "_owner",
          "type": "address"
        }
      ],
      "stateMutability": "view",
      "type": "function",
      "constant": true
    },
    {
      "inputs": [
        {
          "internalType": "uint256",
          "name": "_mintNumber",
          "type": "uint256"
        }
      ],
      "name": "presaleMint",
      "outputs": [],
      "stateMutability": "nonpayable",
      "type": "function"
    },
    {
      "inputs": [],
      "name": "proxyRegistryAddress",
      "outputs": [
        {
          "internalType": "address",
          "name": "",
          "type": "address"
        }
      ],
      "stateMutability": "view",
      "type": "function",
      "constant": true
    },
    {
      "inputs": [],
      "name": "renounceOwnership",
      "outputs": [],
      "stateMutability": "nonpayable",
      "type": "function"
    },
    {
      "inputs": [
        {
          "internalType": "string",
          "name": "_baseUri",
          "type": "string"
        }
      ],
      "name": "setBaseTokenUri",
      "outputs": [],
      "stateMutability": "nonpayable",
      "type": "function"
    },
    {
      "inputs": [
        {
          "internalType": "address",
          "name": "_bridgeAddress",
          "type": "address"
        }
      ],
      "name": "setBridgeAddress",
      "outputs": [],
      "stateMutability": "nonpayable",
      "type": "function"
    },
    {
      "inputs": [
        {
          "internalType": "string",
          "name": "_contractUri",
          "type": "string"
        }
      ],
      "name": "setContractUri",
      "outputs": [],
      "stateMutability": "nonpayable",
      "type": "function"
    },
    {
      "inputs": [
        {
          "internalType": "uint256",
          "name": "_maxMintPerPerson",
          "type": "uint256"
        }
      ],
      "name": "setMaxMintPerPerson",
      "outputs": [],
      "stateMutability": "nonpayable",
      "type": "function"
    },
    {
      "inputs": [
        {
          "internalType": "uint256",
          "name": "_maxSupply",
          "type": "uint256"
        }
      ],
      "name": "setMaxSupply",
      "outputs": [],
      "stateMutability": "nonpayable",
      "type": "function"
    },
    {
      "inputs": [
        {
          "internalType": "uint256",
          "name": "_startDate",
          "type": "uint256"
        }
      ],
      "name": "setMintStartDate",
      "outputs": [],
      "stateMutability": "nonpayable",
      "type": "function"
    },
    {
      "inputs": [
        {
          "internalType": "uint256",
          "name": "_presaleAmount",
          "type": "uint256"
        }
      ],
      "name": "setPresaleAmount",
      "outputs": [],
      "stateMutability": "nonpayable",
      "type": "function"
    },
    {
      "inputs": [
        {
          "internalType": "bool",
          "name": "_startMinting",
          "type": "bool"
        }
      ],
      "name": "setStartMinting",
      "outputs": [],
      "stateMutability": "nonpayable",
      "type": "function"
    },
    {
      "inputs": [
        {
          "internalType": "bool",
          "name": "_whitelistOnly",
          "type": "bool"
        }
      ],
      "name": "setStartWhitelistMinting",
      "outputs": [],
      "stateMutability": "nonpayable",
      "type": "function"
    },
    {
      "inputs": [
        {
          "internalType": "address",
          "name": "_wethAddress",
          "type": "address"
        }
      ],
      "name": "setWethAddress",
      "outputs": [],
      "stateMutability": "nonpayable",
      "type": "function"
    },
    {
      "inputs": [
        {
          "internalType": "address[]",
          "name": "_addresses",
          "type": "address[]"
        }
      ],
      "name": "setWhitelist",
      "outputs": [],
      "stateMutability": "nonpayable",
      "type": "function"
    },
    {
      "inputs": [],
      "name": "supportsFactoryInterface",
      "outputs": [
        {
          "internalType": "bool",
          "name": "",
          "type": "bool"
        }
      ],
      "stateMutability": "pure",
      "type": "function",
      "constant": true
    },
    {
      "inputs": [],
      "name": "symbol",
      "outputs": [
        {
          "internalType": "string",
          "name": "",
          "type": "string"
        }
      ],
      "stateMutability": "pure",
      "type": "function",
      "constant": true
    },
    {
      "inputs": [
        {
          "internalType": "uint256",
          "name": "_optionId",
          "type": "uint256"
        }
      ],
      "name": "tokenURI",
      "outputs": [
        {
          "internalType": "string",
          "name": "",
          "type": "string"
        }
      ],
      "stateMutability": "view",
      "type": "function",
      "constant": true
    },
    {
      "inputs": [
        {
          "internalType": "address",
          "name": "newOwner",
          "type": "address"
        }
      ],
      "name": "transferNFTAdminRole",
      "outputs": [],
      "stateMutability": "nonpayable",
      "type": "function"
    },
    {
      "inputs": [
        {
          "internalType": "address",
          "name": "newOwner",
          "type": "address"
        }
      ],
      "name": "transferOwnership",
      "outputs": [],
      "stateMutability": "nonpayable",
      "type": "function"
    },
    {
      "inputs": [],
      "name": "wethAddress",
      "outputs": [
        {
          "internalType": "address",
          "name": "",
          "type": "address"
        }
      ],
      "stateMutability": "view",
      "type": "function",
      "constant": true
    },
    {
      "inputs": [
        {
          "internalType": "address[]",
          "name": "tokenIds",
          "type": "address[]"
        }
      ],
      "name": "withdrawTokens",
      "outputs": [],
      "stateMutability": "nonpayable",
      "type": "function"
    }
  ],
  "bytecode": "0x6080604052737ceb23fd6bc0add59e62ac25578270cff1b9f619600260006101000a81548173ffffffffffffffffffffffffffffffffffffffff021916908373ffffffffffffffffffffffffffffffffffffffff160217905550604051806080016040528060508152602001620037f460509139600490805190602001906200008a92919062000385565b506000600560006101000a81548160ff0219169083151502179055506000600560016101000a81548160ff0219169083151502179055506115b3600755600560085566b1a2bc2ec50000600955348015620000e457600080fd5b50604051620038443803806200384483398181016040528101906200010a91906200044c565b82826200012c620001206200023260201b60201c565b6200023a60201b60201c565b81600160006101000a81548173ffffffffffffffffffffffffffffffffffffffff021916908373ffffffffffffffffffffffffffffffffffffffff16021790555080600360006101000a81548173ffffffffffffffffffffffffffffffffffffffff021916908373ffffffffffffffffffffffffffffffffffffffff160217905550620001d06000620001c4620002fe60201b60201c565b6200032760201b60201c565b61012c42620001e09190620004a2565b600681905550505080600260006101000a81548173ffffffffffffffffffffffffffffffffffffffff021916908373ffffffffffffffffffffffffffffffffffffffff160217905550505050620005eb565b600033905090565b60008060009054906101000a900473ffffffffffffffffffffffffffffffffffffffff169050816000806101000a81548173ffffffffffffffffffffffffffffffffffffffff021916908373ffffffffffffffffffffffffffffffffffffffff1602179055508173ffffffffffffffffffffffffffffffffffffffff168173ffffffffffffffffffffffffffffffffffffffff167f8be0079c531659141344cd1fd0a4f28419497f9722a3daafe3b4186f6b6457e060405160405180910390a35050565b60008060009054906101000a900473ffffffffffffffffffffffffffffffffffffffff16905090565b8073ffffffffffffffffffffffffffffffffffffffff168273ffffffffffffffffffffffffffffffffffffffff167f4853ae1b4d437c4255ac16cd3ceda3465975023f27cb141584cd9d44440fed8260405160405180910390a35050565b82805462000393906200053d565b90600052602060002090601f016020900481019282620003b7576000855562000403565b82601f10620003d257805160ff191683800117855562000403565b8280016001018555821562000403579182015b8281111562000402578251825591602001919060010190620003e5565b5b50905062000412919062000416565b5090565b5b808211156200043157600081600090555060010162000417565b5090565b6000815190506200044681620005d1565b92915050565b6000806000606084860312156200046257600080fd5b6000620004728682870162000435565b9350506020620004858682870162000435565b9250506040620004988682870162000435565b9150509250925092565b6000620004af8262000533565b9150620004bc8362000533565b9250827fffffffffffffffffffffffffffffffffffffffffffffffffffffffffffffffff03821115620004f457620004f362000573565b5b828201905092915050565b60006200050c8262000513565b9050919050565b600073ffffffffffffffffffffffffffffffffffffffff82169050919050565b6000819050919050565b600060028204905060018216806200055657607f821691505b602082108114156200056d576200056c620005a2565b5b50919050565b7f4e487b7100000000000000000000000000000000000000000000000000000000600052601160045260246000fd5b7f4e487b7100000000000000000000000000000000000000000000000000000000600052602260045260246000fd5b620005dc81620004ff565b8114620005e857600080fd5b50565b6131f980620005fb6000396000f3fe608060405234801561001057600080fd5b50600436106102275760003560e01c80638ab517d111610130578063c311c523116100b8578063cd7c03261161007c578063cd7c032614610604578063e985e9c514610622578063f2fde38b14610652578063f42176481461066e578063f70fa8a41461068a57610227565b8063c311c52314610560578063c6374d0c1461057e578063c87b56dd1461059c578063c9b298f1146105cc578063ccb4807b146105e857610227565b806395bd19c2116100ff57806395bd19c2146104d057806395d89b41146104ec5780639ebeb30f1461050a578063a96e242314610528578063b66cc2851461054457610227565b80638ab517d11461045e5780638da5cb5b1461047a57806395652cfa1461049857806395821650146104b457610227565b80636182b3c7116101b35780636f8b44b0116101825780636f8b44b0146103d0578063715018a6146103ec5780637f5a22f9146103f657806380b8f90a146104125780638a59a7fd1461042e57610227565b80636182b3c7146103485780636352211e146103645780636c0360eb146103945780636d120237146103b257610227565b80634c0f38c2116101fa5780634c0f38c2146102b65780634f0e0ef3146102d457806357dc4134146102f25780635bf8633a1461030e5780635ecb16cd1461032c57610227565b806306fdde031461022c57806320d8dad01461024a578063479f7e171461027a5780634b97aed914610298575b600080fd5b6102346106a8565b6040516102419190612bf7565b60405180910390f35b610264600480360381019061025f9190612504565b6106e5565b6040516102719190612bdc565b60405180910390f35b61028261073b565b60405161028f9190612bdc565b60405180910390f35b6102a061074e565b6040516102ad9190612d59565b60405180910390f35b6102be610758565b6040516102cb9190612d59565b60405180910390f35b6102dc610762565b6040516102e99190612b38565b60405180910390f35b61030c600480360381019061030791906126ba565b610788565b005b61031661080e565b6040516103239190612b38565b60405180910390f35b61034660048036038101906103419190612569565b610834565b005b610362600480360381019061035d91906125aa565b610a2f565b005b61037e600480360381019061037991906126ba565b610bc4565b60405161038b9190612b38565b60405180910390f35b61039c610bd5565b6040516103a99190612bf7565b60405180910390f35b6103ba610c63565b6040516103c79190612d59565b60405180910390f35b6103ea60048036038101906103e591906126ba565b610c69565b005b6103f4610cef565b005b610410600480360381019061040b9190612504565b610d77565b005b61042c600480360381019061042791906125fe565b610e83565b005b61044860048036038101906104439190612504565b610f1c565b6040516104559190612d59565b60405180910390f35b610478600480360381019061047391906126ba565b610f65565b005b610482610feb565b60405161048f9190612b38565b60405180910390f35b6104b260048036038101906104ad9190612679565b611014565b005b6104ce60048036038101906104c99190612504565b611120565b005b6104ea60048036038101906104e591906126ba565b611236565b005b6104f46112bc565b6040516105019190612bf7565b60405180910390f35b6105126112f9565b60405161051f9190612d59565b60405180910390f35b610542600480360381019061053d9190612504565b6112ff565b005b61055e600480360381019061055991906125fe565b6113bf565b005b610568611458565b6040516105759190612bdc565b60405180910390f35b610586611461565b6040516105939190612bdc565b60405180910390f35b6105b660048036038101906105b191906126ba565b611474565b6040516105c39190612bf7565b60405180910390f35b6105e660048036038101906105e191906126ba565b6114a8565b005b61060260048036038101906105fd9190612679565b611ae4565b005b61060c611bf0565b6040516106199190612b38565b60405180910390f35b61063c6004803603810190610637919061252d565b611c16565b6040516106499190612bdc565b60405180910390f35b61066c60048036038101906106679190612504565b611dca565b005b61068860048036038101906106839190612569565b611e69565b005b610692611fa0565b60405161069f9190612d59565b60405180910390f35b60606040518060400160405280601081526020017f42756c6c5479636f6f6e73204d696e7400000000000000000000000000000000815250905090565b6000600a60008373ffffffffffffffffffffffffffffffffffffffff1673ffffffffffffffffffffffffffffffffffffffff16815260200190815260200160002060009054906101000a900460ff169050919050565b600560019054906101000a900460ff1681565b6000600854905090565b6000600754905090565b600260009054906101000a900473ffffffffffffffffffffffffffffffffffffffff1681565b610790611fa6565b73ffffffffffffffffffffffffffffffffffffffff166107ae610feb565b73ffffffffffffffffffffffffffffffffffffffff1614610804576040517f08c379a00000000000000000000000000000000000000000000000000000000081526004016107fb90612cd9565b60405180910390fd5b8060098190555050565b600360009054906101000a900473ffffffffffffffffffffffffffffffffffffffff1681565b61083c611fa6565b73ffffffffffffffffffffffffffffffffffffffff1661085a610feb565b73ffffffffffffffffffffffffffffffffffffffff16146108b0576040517f08c379a00000000000000000000000000000000000000000000000000000000081526004016108a790612cd9565b60405180910390fd5b60005b8151811015610a2b5760008282815181106108f7577f4e487b7100000000000000000000000000000000000000000000000000000000600052603260045260246000fd5b602002602001015190508073ffffffffffffffffffffffffffffffffffffffff1663a9059cbb338373ffffffffffffffffffffffffffffffffffffffff166370a08231306040518263ffffffff1660e01b81526004016109579190612b38565b60206040518083038186803b15801561096f57600080fd5b505afa158015610983573d6000803e3d6000fd5b505050506040513d601f19601f820116820180604052508101906109a791906126e3565b6040518363ffffffff1660e01b81526004016109c4929190612bb3565b602060405180830381600087803b1580156109de57600080fd5b505af11580156109f2573d6000803e3d6000fd5b505050506040513d601f19601f82011682018060405250810190610a169190612627565b50508080610a2390613020565b9150506108b3565b5050565b610a37611fa6565b73ffffffffffffffffffffffffffffffffffffffff16610a55610feb565b73ffffffffffffffffffffffffffffffffffffffff1614610aab576040517f08c379a0000000000000000000000000000000000000000000000000000000008152600401610aa290612cd9565b60405180910390fd5b60008111610aee576040517f08c379a0000000000000000000000000000000000000000000000000000000008152600401610ae590612c99565b60405180910390fd5b6000600360009054906101000a900473ffffffffffffffffffffffffffffffffffffffff16905060005b82811015610bbe5760005b8451811015610baa578273ffffffffffffffffffffffffffffffffffffffff1663755edd17336040518263ffffffff1660e01b8152600401610b659190612b38565b600060405180830381600087803b158015610b7f57600080fd5b505af1158015610b93573d6000803e3d6000fd5b505050508080610ba290613020565b915050610b23565b508080610bb690613020565b915050610b18565b50505050565b6000610bce610feb565b9050919050565b60048054610be290612fee565b80601f0160208091040260200160405190810160405280929190818152602001828054610c0e90612fee565b8015610c5b5780601f10610c3057610100808354040283529160200191610c5b565b820191906000526020600020905b815481529060010190602001808311610c3e57829003601f168201915b505050505081565b60095481565b610c71611fa6565b73ffffffffffffffffffffffffffffffffffffffff16610c8f610feb565b73ffffffffffffffffffffffffffffffffffffffff1614610ce5576040517f08c379a0000000000000000000000000000000000000000000000000000000008152600401610cdc90612cd9565b60405180910390fd5b8060078190555050565b610cf7611fa6565b73ffffffffffffffffffffffffffffffffffffffff16610d15610feb565b73ffffffffffffffffffffffffffffffffffffffff1614610d6b576040517f08c379a0000000000000000000000000000000000000000000000000000000008152600401610d6290612cd9565b60405180910390fd5b610d756000611fae565b565b610d7f611fa6565b73ffffffffffffffffffffffffffffffffffffffff16610d9d610feb565b73ffffffffffffffffffffffffffffffffffffffff1614610df3576040517f08c379a0000000000000000000000000000000000000000000000000000000008152600401610dea90612cd9565b60405180910390fd5b600360009054906101000a900473ffffffffffffffffffffffffffffffffffffffff1673ffffffffffffffffffffffffffffffffffffffff1663f2e027cb826040518263ffffffff1660e01b8152600401610e4e9190612b38565b600060405180830381600087803b158015610e6857600080fd5b505af1158015610e7c573d6000803e3d6000fd5b5050505050565b610e8b611fa6565b73ffffffffffffffffffffffffffffffffffffffff16610ea9610feb565b73ffffffffffffffffffffffffffffffffffffffff1614610eff576040517f08c379a0000000000000000000000000000000000000000000000000000000008152600401610ef690612cd9565b60405180910390fd5b80600560016101000a81548160ff02191690831515021790555050565b6000600b60008373ffffffffffffffffffffffffffffffffffffffff1673ffffffffffffffffffffffffffffffffffffffff168152602001908152602001600020549050919050565b610f6d611fa6565b73ffffffffffffffffffffffffffffffffffffffff16610f8b610feb565b73ffffffffffffffffffffffffffffffffffffffff1614610fe1576040517f08c379a0000000000000000000000000000000000000000000000000000000008152600401610fd890612cd9565b60405180910390fd5b8060068190555050565b60008060009054906101000a900473ffffffffffffffffffffffffffffffffffffffff16905090565b61101c611fa6565b73ffffffffffffffffffffffffffffffffffffffff1661103a610feb565b73ffffffffffffffffffffffffffffffffffffffff1614611090576040517f08c379a000000000000000000000000000000000000000000000000000000000815260040161108790612cd9565b60405180910390fd5b600360009054906101000a900473ffffffffffffffffffffffffffffffffffffffff1673ffffffffffffffffffffffffffffffffffffffff16637d4aafb4826040518263ffffffff1660e01b81526004016110eb9190612bf7565b600060405180830381600087803b15801561110557600080fd5b505af1158015611119573d6000803e3d6000fd5b5050505050565b611128611fa6565b73ffffffffffffffffffffffffffffffffffffffff16611146610feb565b73ffffffffffffffffffffffffffffffffffffffff161461119c576040517f08c379a000000000000000000000000000000000000000000000000000000000815260040161119390612cd9565b60405180910390fd5b600360009054906101000a900473ffffffffffffffffffffffffffffffffffffffff1673ffffffffffffffffffffffffffffffffffffffff1663f2fde38b826040518263ffffffff1660e01b81526004016111f79190612b38565b600060405180830381600087803b15801561121157600080fd5b505af1158015611225573d6000803e3d6000fd5b505050506112333082612072565b50565b61123e611fa6565b73ffffffffffffffffffffffffffffffffffffffff1661125c610feb565b73ffffffffffffffffffffffffffffffffffffffff16146112b2576040517f08c379a00000000000000000000000000000000000000000000000000000000081526004016112a990612cd9565b60405180910390fd5b8060088190555050565b60606040518060400160405280600381526020017f4254530000000000000000000000000000000000000000000000000000000000815250905090565b60065481565b611307611fa6565b73ffffffffffffffffffffffffffffffffffffffff16611325610feb565b73ffffffffffffffffffffffffffffffffffffffff161461137b576040517f08c379a000000000000000000000000000000000000000000000000000000000815260040161137290612cd9565b60405180910390fd5b80600260006101000a81548173ffffffffffffffffffffffffffffffffffffffff021916908373ffffffffffffffffffffffffffffffffffffffff16021790555050565b6113c7611fa6565b73ffffffffffffffffffffffffffffffffffffffff166113e5610feb565b73ffffffffffffffffffffffffffffffffffffffff161461143b576040517f08c379a000000000000000000000000000000000000000000000000000000000815260040161143290612cd9565b60405180910390fd5b80600560006101000a81548160ff02191690831515021790555050565b60006001905090565b600560009054906101000a900460ff1681565b60606004611481836120d0565b604051602001611492929190612b14565b6040516020818303038152906040529050919050565b80600560019054906101000a900460ff161561154f57600a60003373ffffffffffffffffffffffffffffffffffffffff1673ffffffffffffffffffffffffffffffffffffffff16815260200190815260200160002060009054906101000a900460ff1661154a576040517f08c379a000000000000000000000000000000000000000000000000000000000815260040161154190612cb9565b60405180910390fd5b611595565b600654421015611594576040517f08c379a000000000000000000000000000000000000000000000000000000000815260040161158b90612c79565b60405180910390fd5b5b60075481600360009054906101000a900473ffffffffffffffffffffffffffffffffffffffff1673ffffffffffffffffffffffffffffffffffffffff166318160ddd6040518163ffffffff1660e01b815260040160206040518083038186803b15801561160157600080fd5b505afa158015611615573d6000803e3d6000fd5b505050506040513d601f19601f8201168201806040525081019061163991906126e3565b6116439190612e3d565b1115611684576040517f08c379a000000000000000000000000000000000000000000000000000000000815260040161167b90612c19565b60405180910390fd5b6116a33373ffffffffffffffffffffffffffffffffffffffff1661227d565b1580156116db57503373ffffffffffffffffffffffffffffffffffffffff163273ffffffffffffffffffffffffffffffffffffffff16145b61171a576040517f08c379a000000000000000000000000000000000000000000000000000000000815260040161171190612d39565b60405180910390fd5b60008260095461172a9190612ec4565b90506000831161176f576040517f08c379a000000000000000000000000000000000000000000000000000000000815260040161176690612c39565b60405180910390fd5b60085483600b60003373ffffffffffffffffffffffffffffffffffffffff1673ffffffffffffffffffffffffffffffffffffffff168152602001908152602001600020546117bd9190612e3d565b11156117fe576040517f08c379a00000000000000000000000000000000000000000000000000000000081526004016117f590612d19565b60405180910390fd5b80600260009054906101000a900473ffffffffffffffffffffffffffffffffffffffff1673ffffffffffffffffffffffffffffffffffffffff1663dd62ed3e33306040518363ffffffff1660e01b815260040161185c929190612b53565b60206040518083038186803b15801561187457600080fd5b505afa158015611888573d6000803e3d6000fd5b505050506040513d601f19601f820116820180604052508101906118ac91906126e3565b10156118ed576040517f08c379a00000000000000000000000000000000000000000000000000000000081526004016118e490612cf9565b60405180910390fd5b6000600360009054906101000a900473ffffffffffffffffffffffffffffffffffffffff169050600260009054906101000a900473ffffffffffffffffffffffffffffffffffffffff1673ffffffffffffffffffffffffffffffffffffffff166323b872dd3330856040518463ffffffff1660e01b815260040161197393929190612b7c565b602060405180830381600087803b15801561198d57600080fd5b505af11580156119a1573d6000803e3d6000fd5b505050506040513d601f19601f820116820180604052508101906119c59190612627565b5060005b84811015611a4f578173ffffffffffffffffffffffffffffffffffffffff1663755edd17336040518263ffffffff1660e01b8152600401611a0a9190612b38565b600060405180830381600087803b158015611a2457600080fd5b505af1158015611a38573d6000803e3d6000fd5b505050508080611a4790613020565b9150506119c9565b5083600b60003373ffffffffffffffffffffffffffffffffffffffff1673ffffffffffffffffffffffffffffffffffffffff16815260200190815260200160002054611a9b9190612e3d565b600b60003373ffffffffffffffffffffffffffffffffffffffff1673ffffffffffffffffffffffffffffffffffffffff1681526020019081526020016000208190555050505050565b611aec611fa6565b73ffffffffffffffffffffffffffffffffffffffff16611b0a610feb565b73ffffffffffffffffffffffffffffffffffffffff1614611b60576040517f08c379a0000000000000000000000000000000000000000000000000000000008152600401611b5790612cd9565b60405180910390fd5b600360009054906101000a900473ffffffffffffffffffffffffffffffffffffffff1673ffffffffffffffffffffffffffffffffffffffff1663c92bb9ce826040518263ffffffff1660e01b8152600401611bbb9190612bf7565b600060405180830381600087803b158015611bd557600080fd5b505af1158015611be9573d6000803e3d6000fd5b5050505050565b600160009054906101000a900473ffffffffffffffffffffffffffffffffffffffff1681565b60008273ffffffffffffffffffffffffffffffffffffffff16611c37610feb565b73ffffffffffffffffffffffffffffffffffffffff16148015611c8557508173ffffffffffffffffffffffffffffffffffffffff168373ffffffffffffffffffffffffffffffffffffffff16145b15611c935760019050611dc4565b6000600160009054906101000a900473ffffffffffffffffffffffffffffffffffffffff1690508373ffffffffffffffffffffffffffffffffffffffff16611cd9610feb565b73ffffffffffffffffffffffffffffffffffffffff16148015611daf57508273ffffffffffffffffffffffffffffffffffffffff168173ffffffffffffffffffffffffffffffffffffffff1663c4552791866040518263ffffffff1660e01b8152600401611d479190612b38565b60206040518083038186803b158015611d5f57600080fd5b505afa158015611d73573d6000803e3d6000fd5b505050506040513d601f19601f82011682018060405250810190611d979190612650565b73ffffffffffffffffffffffffffffffffffffffff16145b15611dbe576001915050611dc4565b60009150505b92915050565b611dd2611fa6565b73ffffffffffffffffffffffffffffffffffffffff16611df0610feb565b73ffffffffffffffffffffffffffffffffffffffff1614611e46576040517f08c379a0000000000000000000000000000000000000000000000000000000008152600401611e3d90612cd9565b60405180910390fd5b6000611e50610feb565b9050611e5b82612290565b611e658183612072565b5050565b611e71611fa6565b73ffffffffffffffffffffffffffffffffffffffff16611e8f610feb565b73ffffffffffffffffffffffffffffffffffffffff1614611ee5576040517f08c379a0000000000000000000000000000000000000000000000000000000008152600401611edc90612cd9565b60405180910390fd5b60005b8151811015611f9c576001600a6000848481518110611f30577f4e487b7100000000000000000000000000000000000000000000000000000000600052603260045260246000fd5b602002602001015173ffffffffffffffffffffffffffffffffffffffff1673ffffffffffffffffffffffffffffffffffffffff16815260200190815260200160002060006101000a81548160ff0219169083151502179055508080611f9490613020565b915050611ee8565b5050565b60085481565b600033905090565b60008060009054906101000a900473ffffffffffffffffffffffffffffffffffffffff169050816000806101000a81548173ffffffffffffffffffffffffffffffffffffffff021916908373ffffffffffffffffffffffffffffffffffffffff1602179055508173ffffffffffffffffffffffffffffffffffffffff168173ffffffffffffffffffffffffffffffffffffffff167f8be0079c531659141344cd1fd0a4f28419497f9722a3daafe3b4186f6b6457e060405160405180910390a35050565b8073ffffffffffffffffffffffffffffffffffffffff168273ffffffffffffffffffffffffffffffffffffffff167f4853ae1b4d437c4255ac16cd3ceda3465975023f27cb141584cd9d44440fed8260405160405180910390a35050565b60606000821415612118576040518060400160405280600181526020017f30000000000000000000000000000000000000000000000000000000000000008152509050612278565b600082905060005b6000821461214a57808061213390613020565b915050600a826121439190612e93565b9150612120565b60008167ffffffffffffffff81111561218c577f4e487b7100000000000000000000000000000000000000000000000000000000600052604160045260246000fd5b6040519080825280601f01601f1916602001820160405280156121be5781602001600182028036833780820191505090505b5090505b60008514612271576001826121d79190612f1e565b9150600a856121e69190613069565b60306121f29190612e3d565b60f81b81838151811061222e577f4e487b7100000000000000000000000000000000000000000000000000000000600052603260045260246000fd5b60200101907effffffffffffffffffffffffffffffffffffffffffffffffffffffffffffff1916908160001a905350600a8561226a9190612e93565b94506121c2565b8093505050505b919050565b600080823b905060008111915050919050565b612298611fa6565b73ffffffffffffffffffffffffffffffffffffffff166122b6610feb565b73ffffffffffffffffffffffffffffffffffffffff161461230c576040517f08c379a000000000000000000000000000000000000000000000000000000000815260040161230390612cd9565b60405180910390fd5b600073ffffffffffffffffffffffffffffffffffffffff168173ffffffffffffffffffffffffffffffffffffffff16141561237c576040517f08c379a000000000000000000000000000000000000000000000000000000000815260040161237390612c59565b60405180910390fd5b61238581611fae565b50565b600061239b61239684612da5565b612d74565b905080838252602082019050828560208602820111156123ba57600080fd5b60005b858110156123ea57816123d08882612432565b8452602084019350602083019250506001810190506123bd565b5050509392505050565b600061240761240284612dd1565b612d74565b90508281526020810184848401111561241f57600080fd5b61242a848285612fac565b509392505050565b60008135905061244181613167565b92915050565b600082601f83011261245857600080fd5b8135612468848260208601612388565b91505092915050565b6000813590506124808161317e565b92915050565b6000815190506124958161317e565b92915050565b6000815190506124aa81613195565b92915050565b600082601f8301126124c157600080fd5b81356124d18482602086016123f4565b91505092915050565b6000813590506124e9816131ac565b92915050565b6000815190506124fe816131ac565b92915050565b60006020828403121561251657600080fd5b600061252484828501612432565b91505092915050565b6000806040838503121561254057600080fd5b600061254e85828601612432565b925050602061255f85828601612432565b9150509250929050565b60006020828403121561257b57600080fd5b600082013567ffffffffffffffff81111561259557600080fd5b6125a184828501612447565b91505092915050565b600080604083850312156125bd57600080fd5b600083013567ffffffffffffffff8111156125d757600080fd5b6125e385828601612447565b92505060206125f4858286016124da565b9150509250929050565b60006020828403121561261057600080fd5b600061261e84828501612471565b91505092915050565b60006020828403121561263957600080fd5b600061264784828501612486565b91505092915050565b60006020828403121561266257600080fd5b60006126708482850161249b565b91505092915050565b60006020828403121561268b57600080fd5b600082013567ffffffffffffffff8111156126a557600080fd5b6126b1848285016124b0565b91505092915050565b6000602082840312156126cc57600080fd5b60006126da848285016124da565b91505092915050565b6000602082840312156126f557600080fd5b6000612703848285016124ef565b91505092915050565b61271581612f52565b82525050565b61272481612f64565b82525050565b600061273582612e16565b61273f8185612e21565b935061274f818560208601612fbb565b61275881613156565b840191505092915050565b600061276e82612e16565b6127788185612e32565b9350612788818560208601612fbb565b80840191505092915050565b600081546127a181612fee565b6127ab8186612e32565b945060018216600081146127c657600181146127d75761280a565b60ff1983168652818601935061280a565b6127e085612e01565b60005b83811015612802578154818901526001820191506020810190506127e3565b838801955050505b50505092915050565b6000612820601483612e21565b91507f4d6178696d756d206d696e7420726561636865640000000000000000000000006000830152602082019050919050565b6000612860602183612e21565b91507f4d696e74206e756d6265722073686f756c64206265206f6e65206f72206d6f7260008301527f65000000000000000000000000000000000000000000000000000000000000006020830152604082019050919050565b60006128c6602683612e21565b91507f4f776e61626c653a206e6577206f776e657220697320746865207a65726f206160008301527f64647265737300000000000000000000000000000000000000000000000000006020830152604082019050919050565b600061292c601083612e21565b91507f4d696e74206e6f742073746172746564000000000000000000000000000000006000830152602082019050919050565b600061296c602383612e21565b91507f4d696e742070657220706572736f6e2073686f756c642062652031206f72206d60008301527f6f726500000000000000000000000000000000000000000000000000000000006020830152604082019050919050565b60006129d2601c83612e21565b91507f4163636f756e74206e6f7420656c696769626c6520746f206d696e74000000006000830152602082019050919050565b6000612a12602083612e21565b91507f4f776e61626c653a2063616c6c6572206973206e6f7420746865206f776e65726000830152602082019050919050565b6000612a52601483612e21565b91507f416c6c6f77616e6365206e6f7420656e6f7567680000000000000000000000006000830152602082019050919050565b6000612a92601c83612e21565b91507f4d6178206d696e742070657220616464726573732072656163686564000000006000830152602082019050919050565b6000612ad2601683612e21565b91507f436f6e7472616374732063616e6e6f74206d696e742e000000000000000000006000830152602082019050919050565b612b0e81612fa2565b82525050565b6000612b208285612794565b9150612b2c8284612763565b91508190509392505050565b6000602082019050612b4d600083018461270c565b92915050565b6000604082019050612b68600083018561270c565b612b75602083018461270c565b9392505050565b6000606082019050612b91600083018661270c565b612b9e602083018561270c565b612bab6040830184612b05565b949350505050565b6000604082019050612bc8600083018561270c565b612bd56020830184612b05565b9392505050565b6000602082019050612bf1600083018461271b565b92915050565b60006020820190508181036000830152612c11818461272a565b905092915050565b60006020820190508181036000830152612c3281612813565b9050919050565b60006020820190508181036000830152612c5281612853565b9050919050565b60006020820190508181036000830152612c72816128b9565b9050919050565b60006020820190508181036000830152612c928161291f565b9050919050565b60006020820190508181036000830152612cb28161295f565b9050919050565b60006020820190508181036000830152612cd2816129c5565b9050919050565b60006020820190508181036000830152612cf281612a05565b9050919050565b60006020820190508181036000830152612d1281612a45565b9050919050565b60006020820190508181036000830152612d3281612a85565b9050919050565b60006020820190508181036000830152612d5281612ac5565b9050919050565b6000602082019050612d6e6000830184612b05565b92915050565b6000604051905081810181811067ffffffffffffffff82111715612d9b57612d9a613127565b5b8060405250919050565b600067ffffffffffffffff821115612dc057612dbf613127565b5b602082029050602081019050919050565b600067ffffffffffffffff821115612dec57612deb613127565b5b601f19601f8301169050602081019050919050565b60008190508160005260206000209050919050565b600081519050919050565b600082825260208201905092915050565b600081905092915050565b6000612e4882612fa2565b9150612e5383612fa2565b9250827fffffffffffffffffffffffffffffffffffffffffffffffffffffffffffffffff03821115612e8857612e8761309a565b5b828201905092915050565b6000612e9e82612fa2565b9150612ea983612fa2565b925082612eb957612eb86130c9565b5b828204905092915050565b6000612ecf82612fa2565b9150612eda83612fa2565b9250817fffffffffffffffffffffffffffffffffffffffffffffffffffffffffffffffff0483118215151615612f1357612f1261309a565b5b828202905092915050565b6000612f2982612fa2565b9150612f3483612fa2565b925082821015612f4757612f4661309a565b5b828203905092915050565b6000612f5d82612f82565b9050919050565b60008115159050919050565b6000612f7b82612f52565b9050919050565b600073ffffffffffffffffffffffffffffffffffffffff82169050919050565b6000819050919050565b82818337600083830152505050565b60005b83811015612fd9578082015181840152602081019050612fbe565b83811115612fe8576000848401525b50505050565b6000600282049050600182168061300657607f821691505b6020821081141561301a576130196130f8565b5b50919050565b600061302b82612fa2565b91507fffffffffffffffffffffffffffffffffffffffffffffffffffffffffffffffff82141561305e5761305d61309a565b5b600182019050919050565b600061307482612fa2565b915061307f83612fa2565b92508261308f5761308e6130c9565b5b828206905092915050565b7f4e487b7100000000000000000000000000000000000000000000000000000000600052601160045260246000fd5b7f4e487b7100000000000000000000000000000000000000000000000000000000600052601260045260246000fd5b7f4e487b7100000000000000000000000000000000000000000000000000000000600052602260045260246000fd5b7f4e487b7100000000000000000000000000000000000000000000000000000000600052604160045260246000fd5b6000601f19601f8301169050919050565b61317081612f52565b811461317b57600080fd5b50565b61318781612f64565b811461319257600080fd5b50565b61319e81612f70565b81146131a957600080fd5b50565b6131b581612fa2565b81146131c057600080fd5b5056fea2646970667358221220cb4df50ccc2580c0605a8361b734b1b0a2135dba1e79e2cd2428f29202caf26c64736f6c6343000800003368747470733a2f2f676174657761792e70696e6174612e636c6f75642f697066732f516d644c594b34424b635a7235657061754e56643275666a3755746e66676561537758735865646d474b64644437",
  "immutableReferences": {},
  "source": "// SPDX-License-Identifier: MIT\n\npragma solidity ^0.8.0;\n\nimport \"../BullTycoonsFactory.sol\";\n\ncontract BullTycoonsFactoryMock is BullTycoonsFactory {\n\n    constructor(address _proxyRegistryAddress, address _nftAddress, address _wethAddress) BullTycoonsFactory(_proxyRegistryAddress, _nftAddress) {\n        wethAddress = _wethAddress;\n    }\n}",
  "sourcePath": "/Users/olayinkaokewale/Documents/bull_nft/bulltycoons_contracts/contracts/mocks/BullTycoonsFactoryMock.sol",
  "compiler": {
    "name": "solc",
    "version": "0.8.0+commit.c7dfd78e.Emscripten.clang"
  },
  "schemaVersion": "3.3.2",
  "updatedAt": "2021-11-23T23:10:19.573Z",
  "networkType": "ethereum",
  "devdoc": {
    "kind": "dev",
    "methods": {
      "owner()": {
        "details": "Returns the address of the current owner."
      },
      "renounceOwnership()": {
        "details": "Leaves the contract without owner. It will not be possible to call `onlyOwner` functions anymore. Can only be called by the current owner. NOTE: Renouncing ownership will leave the contract without an owner, thereby removing any functionality that is only available to the owner."
      },
      "tokenURI(uint256)": {
        "details": "Returns a URL specifying some metadata about the option. This metadata can be of the same structure as the ERC721 metadata."
      },
      "transferOwnership(address)": {
        "details": "Transfers ownership of the contract to a new account (`newOwner`). Can only be called by the current owner."
      }
    },
    "version": 1
  },
  "userdoc": {
    "kind": "user",
    "methods": {
      "isApprovedForAll(address,address)": {
        "notice": "Hack to get things to work automatically on OpenSea. Use isApprovedForAll so the frontend doesn't have to worry about different method names."
      },
      "name()": {
        "notice": "Returns the name of this factory."
      },
      "numOptions()": {
        "notice": "Number of options the factory supports."
      },
      "ownerOf(uint256)": {
        "notice": "Hack to get things to work automatically on OpenSea. Use isApprovedForAll so the frontend doesn't have to worry about different method names."
      },
      "supportsFactoryInterface()": {
        "notice": "Indicates that this is a factory contract. Ideally would use EIP 165 supportsInterface()"
      },
      "symbol()": {
        "notice": "Returns the symbol for this factory."
      }
    },
    "version": 1
  }
}