{
  "contractName": "BullTycoonsFactory",
  "abi": [
    {
      "inputs": [
        {
          "internalType": "address",
          "name": "_proxyRegistryAddress",
          "type": "address"
        },
        {
          "internalType": "address",
          "name": "_nftAddress",
          "type": "address"
        }
      ],
      "stateMutability": "nonpayable",
      "type": "constructor"
    },
    {
      "anonymous": false,
      "inputs": [
        {
          "indexed": true,
          "internalType": "address",
          "name": "previousOwner",
          "type": "address"
        },
        {
          "indexed": true,
          "internalType": "address",
          "name": "newOwner",
          "type": "address"
        }
      ],
      "name": "OwnershipTransferred",
      "type": "event"
    },
    {
      "anonymous": false,
      "inputs": [
        {
          "indexed": true,
          "internalType": "address",
          "name": "from",
          "type": "address"
        },
        {
          "indexed": true,
          "internalType": "address",
          "name": "to",
          "type": "address"
        },
        {
          "indexed": true,
          "internalType": "uint256",
          "name": "tokenId",
          "type": "uint256"
        }
      ],
      "name": "Transfer",
      "type": "event"
    },
    {
      "inputs": [],
      "name": "MINT_START",
      "outputs": [
        {
          "internalType": "bool",
          "name": "",
          "type": "bool"
        }
      ],
      "stateMutability": "view",
      "type": "function"
    },
    {
      "inputs": [],
      "name": "PRESALE_AMOUNT",
      "outputs": [
        {
          "internalType": "uint256",
          "name": "",
          "type": "uint256"
        }
      ],
      "stateMutability": "view",
      "type": "function"
    },
    {
      "inputs": [],
      "name": "baseURI",
      "outputs": [
        {
          "internalType": "string",
          "name": "",
          "type": "string"
        }
      ],
      "stateMutability": "view",
      "type": "function"
    },
    {
      "inputs": [],
      "name": "nftAddress",
      "outputs": [
        {
          "internalType": "address",
          "name": "",
          "type": "address"
        }
      ],
      "stateMutability": "view",
      "type": "function"
    },
    {
      "inputs": [],
      "name": "owner",
      "outputs": [
        {
          "internalType": "address",
          "name": "",
          "type": "address"
        }
      ],
      "stateMutability": "view",
      "type": "function"
    },
    {
      "inputs": [],
      "name": "proxyRegistryAddress",
      "outputs": [
        {
          "internalType": "address",
          "name": "",
          "type": "address"
        }
      ],
      "stateMutability": "view",
      "type": "function"
    },
    {
      "inputs": [],
      "name": "renounceOwnership",
      "outputs": [],
      "stateMutability": "nonpayable",
      "type": "function"
    },
    {
      "inputs": [],
      "name": "wethAddress",
      "outputs": [
        {
          "internalType": "address",
          "name": "",
          "type": "address"
        }
      ],
      "stateMutability": "view",
      "type": "function"
    },
    {
      "inputs": [
        {
          "internalType": "uint256",
          "name": "_maxSupply",
          "type": "uint256"
        }
      ],
      "name": "setMaxSupply",
      "outputs": [],
      "stateMutability": "nonpayable",
      "type": "function"
    },
    {
      "inputs": [],
      "name": "getMaxSupply",
      "outputs": [
        {
          "internalType": "uint256",
          "name": "",
          "type": "uint256"
        }
      ],
      "stateMutability": "view",
      "type": "function"
    },
    {
      "inputs": [],
      "name": "name",
      "outputs": [
        {
          "internalType": "string",
          "name": "",
          "type": "string"
        }
      ],
      "stateMutability": "pure",
      "type": "function"
    },
    {
      "inputs": [],
      "name": "symbol",
      "outputs": [
        {
          "internalType": "string",
          "name": "",
          "type": "string"
        }
      ],
      "stateMutability": "pure",
      "type": "function"
    },
    {
      "inputs": [],
      "name": "supportsFactoryInterface",
      "outputs": [
        {
          "internalType": "bool",
          "name": "",
          "type": "bool"
        }
      ],
      "stateMutability": "pure",
      "type": "function"
    },
    {
      "inputs": [],
      "name": "numOptions",
      "outputs": [
        {
          "internalType": "uint256",
          "name": "",
          "type": "uint256"
        }
      ],
      "stateMutability": "view",
      "type": "function"
    },
    {
      "inputs": [
        {
          "internalType": "address",
          "name": "newOwner",
          "type": "address"
        }
      ],
      "name": "transferOwnership",
      "outputs": [],
      "stateMutability": "nonpayable",
      "type": "function"
    },
    {
      "inputs": [
        {
          "internalType": "bool",
          "name": "_startMinting",
          "type": "bool"
        }
      ],
      "name": "setStartMinting",
      "outputs": [],
      "stateMutability": "nonpayable",
      "type": "function"
    },
    {
      "inputs": [
        {
          "internalType": "uint256",
          "name": "_presaleAmount",
          "type": "uint256"
        }
      ],
      "name": "setPresaleAmount",
      "outputs": [],
      "stateMutability": "nonpayable",
      "type": "function"
    },
    {
      "inputs": [
        {
          "internalType": "address[]",
          "name": "_addresses",
          "type": "address[]"
        }
      ],
      "name": "setWhitelist",
      "outputs": [],
      "stateMutability": "nonpayable",
      "type": "function"
    },
    {
      "inputs": [
        {
          "internalType": "address",
          "name": "_address",
          "type": "address"
        }
      ],
      "name": "checkWhitelisted",
      "outputs": [
        {
          "internalType": "bool",
          "name": "_isWhitelisted",
          "type": "bool"
        }
      ],
      "stateMutability": "view",
      "type": "function"
    },
    {
      "inputs": [],
      "name": "whitelistMint",
      "outputs": [],
      "stateMutability": "nonpayable",
      "type": "function"
    },
    {
      "inputs": [],
      "name": "presaleMint",
      "outputs": [],
      "stateMutability": "nonpayable",
      "type": "function"
    },
    {
      "inputs": [
        {
          "internalType": "address",
          "name": "_minter",
          "type": "address"
        }
      ],
      "name": "getNumberMinted",
      "outputs": [
        {
          "internalType": "uint256",
          "name": "numberMinted",
          "type": "uint256"
        }
      ],
      "stateMutability": "view",
      "type": "function"
    },
    {
      "inputs": [
        {
          "internalType": "uint256",
          "name": "_optionId",
          "type": "uint256"
        },
        {
          "internalType": "address",
          "name": "_toAddress",
          "type": "address"
        }
      ],
      "name": "mint",
      "outputs": [],
      "stateMutability": "nonpayable",
      "type": "function"
    },
    {
      "inputs": [
        {
          "internalType": "uint256",
          "name": "_optionId",
          "type": "uint256"
        }
      ],
      "name": "canMint",
      "outputs": [
        {
          "internalType": "bool",
          "name": "",
          "type": "bool"
        }
      ],
      "stateMutability": "view",
      "type": "function"
    },
    {
      "inputs": [
        {
          "internalType": "uint256",
          "name": "_optionId",
          "type": "uint256"
        }
      ],
      "name": "tokenURI",
      "outputs": [
        {
          "internalType": "string",
          "name": "",
          "type": "string"
        }
      ],
      "stateMutability": "view",
      "type": "function"
    },
    {
      "inputs": [
        {
          "internalType": "address",
          "name": "_from",
          "type": "address"
        },
        {
          "internalType": "address",
          "name": "_to",
          "type": "address"
        },
        {
          "internalType": "uint256",
          "name": "_tokenId",
          "type": "uint256"
        }
      ],
      "name": "transferFrom",
      "outputs": [],
      "stateMutability": "nonpayable",
      "type": "function"
    },
    {
      "inputs": [
        {
          "internalType": "address",
          "name": "_owner",
          "type": "address"
        },
        {
          "internalType": "address",
          "name": "_operator",
          "type": "address"
        }
      ],
      "name": "isApprovedForAll",
      "outputs": [
        {
          "internalType": "bool",
          "name": "",
          "type": "bool"
        }
      ],
      "stateMutability": "view",
      "type": "function"
    },
    {
      "inputs": [
        {
          "internalType": "uint256",
          "name": "_tokenId",
          "type": "uint256"
        }
      ],
      "name": "ownerOf",
      "outputs": [
        {
          "internalType": "address",
          "name": "_owner",
          "type": "address"
        }
      ],
      "stateMutability": "view",
      "type": "function"
    }
  ],
  "bytecode": "0x6080604052737ceb23fd6bc0add59e62ac25578270cff1b9f619600260006101000a81548173ffffffffffffffffffffffffffffffffffffffff021916908373ffffffffffffffffffffffffffffffffffffffff16021790555060405180608001604052806050815260200162002ef060509139600490805190602001906200008a92919062000343565b506000600560006101000a81548160ff0219169083151502179055506103e86006556003600755600060085560016009556004600a5566b1a2bc2ec50000600b55348015620000d857600080fd5b5060405162002f4038038062002f408339818101604052810190620000fe91906200040a565b6200011e62000112620001ca60201b60201c565b620001d260201b60201c565b81600160006101000a81548173ffffffffffffffffffffffffffffffffffffffff021916908373ffffffffffffffffffffffffffffffffffffffff16021790555080600360006101000a81548173ffffffffffffffffffffffffffffffffffffffff021916908373ffffffffffffffffffffffffffffffffffffffff160217905550620001c26000620001b66200029660201b60201c565b620002bf60201b60201c565b505062000585565b600033905090565b60008060009054906101000a900473ffffffffffffffffffffffffffffffffffffffff169050816000806101000a81548173ffffffffffffffffffffffffffffffffffffffff021916908373ffffffffffffffffffffffffffffffffffffffff1602179055508173ffffffffffffffffffffffffffffffffffffffff168173ffffffffffffffffffffffffffffffffffffffff167f8be0079c531659141344cd1fd0a4f28419497f9722a3daafe3b4186f6b6457e060405160405180910390a35050565b60008060009054906101000a900473ffffffffffffffffffffffffffffffffffffffff16905090565b60005b6007548110156200033e57808273ffffffffffffffffffffffffffffffffffffffff168473ffffffffffffffffffffffffffffffffffffffff167fddf252ad1be2c89b69c2b068fc378daa952ba7f163c4a11628f55a4df523b3ef60405160405180910390a480806200033590620004bf565b915050620002c2565b505050565b828054620003519062000489565b90600052602060002090601f016020900481019282620003755760008555620003c1565b82601f106200039057805160ff1916838001178555620003c1565b82800160010185558215620003c1579182015b82811115620003c0578251825591602001919060010190620003a3565b5b509050620003d09190620003d4565b5090565b5b80821115620003ef576000816000905550600101620003d5565b5090565b60008151905062000404816200056b565b92915050565b600080604083850312156200041e57600080fd5b60006200042e85828601620003f3565b92505060206200044185828601620003f3565b9150509250929050565b600062000458826200045f565b9050919050565b600073ffffffffffffffffffffffffffffffffffffffff82169050919050565b6000819050919050565b60006002820490506001821680620004a257607f821691505b60208210811415620004b957620004b86200053c565b5b50919050565b6000620004cc826200047f565b91507fffffffffffffffffffffffffffffffffffffffffffffffffffffffffffffffff8214156200050257620005016200050d565b5b600182019050919050565b7f4e487b7100000000000000000000000000000000000000000000000000000000600052601160045260246000fd5b7f4e487b7100000000000000000000000000000000000000000000000000000000600052602260045260246000fd5b62000576816200044b565b81146200058257600080fd5b50565b61295b80620005956000396000f3fe608060405234801561001057600080fd5b50600436106101c45760003560e01c8063715018a6116100f9578063c311c52311610097578063cd7c032611610071578063cd7c0326146104ad578063e985e9c5146104cb578063f2fde38b146104fb578063f421764814610517576101c4565b8063c311c52314610441578063c6374d0c1461045f578063c87b56dd1461047d576101c4565b80638da5cb5b116100d35780638da5cb5b146103cd57806394bf804d146103eb57806395d89b4114610407578063b66cc28514610425576101c4565b8063715018a614610389578063804f43cd146103935780638a59a7fd1461039d576101c4565b806359533d6c116101665780636352211e116101405780636352211e146103015780636c0360eb146103315780636d1202371461034f5780636f8b44b01461036d576101c4565b806359533d6c146102a95780635bf8633a146102b35780635dd871a3146102d1576101c4565b80634b97aed9116101a25780634b97aed9146102335780634c0f38c2146102515780634f0e0ef31461026f57806357dc41341461028d576101c4565b806306fdde03146101c957806320d8dad0146101e757806323b872dd14610217575b600080fd5b6101d1610533565b6040516101de9190612432565b60405180910390f35b61020160048036038101906101fc9190611e3e565b610570565b60405161020e9190612417565b60405180910390f35b610231600480360381019061022c9190611ea3565b6105c6565b005b61023b6105d5565b6040516102489190612554565b60405180910390f35b6102596105df565b6040516102669190612554565b60405180910390f35b6102776105e9565b604051610284919061239c565b60405180910390f35b6102a760048036038101906102a29190611fae565b61060f565b005b6102b1610695565b005b6102bb610ba8565b6040516102c8919061239c565b60405180910390f35b6102eb60048036038101906102e69190611fae565b610bce565b6040516102f89190612417565b60405180910390f35b61031b60048036038101906103169190611fae565b610ccc565b604051610328919061239c565b60405180910390f35b610339610cdd565b6040516103469190612432565b60405180910390f35b610357610d6b565b6040516103649190612554565b60405180910390f35b61038760048036038101906103829190611fae565b610d71565b005b610391610df7565b005b61039b610e7f565b005b6103b760048036038101906103b29190611e3e565b61112a565b6040516103c49190612554565b60405180910390f35b6103d5611173565b6040516103e2919061239c565b60405180910390f35b61040560048036038101906104009190612000565b61119c565b005b61040f611450565b60405161041c9190612432565b60405180910390f35b61043f600480360381019061043a9190611f33565b61148d565b005b610449611526565b6040516104569190612417565b60405180910390f35b61046761152f565b6040516104749190612417565b60405180910390f35b61049760048036038101906104929190611fae565b611542565b6040516104a49190612432565b60405180910390f35b6104b5611576565b6040516104c2919061239c565b60405180910390f35b6104e560048036038101906104e09190611e67565b61159c565b6040516104f29190612417565b60405180910390f35b61051560048036038101906105109190611e3e565b611750565b005b610531600480360381019061052c9190611ef2565b6117ef565b005b60606040518060400160405280601081526020017f42756c6c5479636f6f6e73204d696e7400000000000000000000000000000000815250905090565b6000600c60008373ffffffffffffffffffffffffffffffffffffffff1673ffffffffffffffffffffffffffffffffffffffff16815260200190815260200160002060009054906101000a900460ff169050919050565b6105d0818361119c565b505050565b6000600754905090565b6000600654905090565b600260009054906101000a900473ffffffffffffffffffffffffffffffffffffffff1681565b610617611926565b73ffffffffffffffffffffffffffffffffffffffff16610635611173565b73ffffffffffffffffffffffffffffffffffffffff161461068b576040517f08c379a0000000000000000000000000000000000000000000000000000000008152600401610682906124f4565b60405180910390fd5b80600b8190555050565b600560009054906101000a900460ff166106e4576040517f08c379a00000000000000000000000000000000000000000000000000000000081526004016106db906124b4565b60405180910390fd5b600654600360009054906101000a900473ffffffffffffffffffffffffffffffffffffffff1673ffffffffffffffffffffffffffffffffffffffff166318160ddd6040518163ffffffff1660e01b815260040160206040518083038186803b15801561074f57600080fd5b505afa158015610763573d6000803e3d6000fd5b505050506040513d601f19601f820116820180604052508101906107879190611fd7565b106107c7576040517f08c379a00000000000000000000000000000000000000000000000000000000081526004016107be90612474565b60405180910390fd5b6107e63373ffffffffffffffffffffffffffffffffffffffff1661192e565b15801561081e57503373ffffffffffffffffffffffffffffffffffffffff163273ffffffffffffffffffffffffffffffffffffffff16145b61085d576040517f08c379a000000000000000000000000000000000000000000000000000000000815260040161085490612534565b60405180910390fd5b6000600d60003373ffffffffffffffffffffffffffffffffffffffff1673ffffffffffffffffffffffffffffffffffffffff16815260200190815260200160002054146108df576040517f08c379a00000000000000000000000000000000000000000000000000000000081526004016108d690612454565b60405180910390fd5b600b54600260009054906101000a900473ffffffffffffffffffffffffffffffffffffffff1673ffffffffffffffffffffffffffffffffffffffff1663dd62ed3e33306040518363ffffffff1660e01b815260040161093f9291906123b7565b60206040518083038186803b15801561095757600080fd5b505afa15801561096b573d6000803e3d6000fd5b505050506040513d601f19601f8201168201806040525081019061098f9190611fd7565b10156109d0576040517f08c379a00000000000000000000000000000000000000000000000000000000081526004016109c790612514565b60405180910390fd5b6000600360009054906101000a900473ffffffffffffffffffffffffffffffffffffffff169050600260009054906101000a900473ffffffffffffffffffffffffffffffffffffffff1673ffffffffffffffffffffffffffffffffffffffff166323b872dd3330600b546040518463ffffffff1660e01b8152600401610a58939291906123e0565b602060405180830381600087803b158015610a7257600080fd5b505af1158015610a86573d6000803e3d6000fd5b505050506040513d601f19601f82011682018060405250810190610aaa9190611f5c565b508073ffffffffffffffffffffffffffffffffffffffff1663755edd17336040518263ffffffff1660e01b8152600401610ae4919061239c565b600060405180830381600087803b158015610afe57600080fd5b505af1158015610b12573d6000803e3d6000fd5b505050506001600d60003373ffffffffffffffffffffffffffffffffffffffff1673ffffffffffffffffffffffffffffffffffffffff16815260200190815260200160002054610b629190612608565b600d60003373ffffffffffffffffffffffffffffffffffffffff1673ffffffffffffffffffffffffffffffffffffffff1681526020019081526020016000208190555050565b600360009054906101000a900473ffffffffffffffffffffffffffffffffffffffff1681565b60006007548210610be25760009050610cc7565b6000600360009054906101000a900473ffffffffffffffffffffffffffffffffffffffff16905060008173ffffffffffffffffffffffffffffffffffffffff166318160ddd6040518163ffffffff1660e01b815260040160206040518083038186803b158015610c5157600080fd5b505afa158015610c65573d6000803e3d6000fd5b505050506040513d601f19601f82011682018060405250810190610c899190611fd7565b90506000600854851415610ca05760019050610cb1565b600954851415610cb057600a5490505b5b80600654610cbf919061268f565b821093505050505b919050565b6000610cd6611173565b9050919050565b60048054610cea90612750565b80601f0160208091040260200160405190810160405280929190818152602001828054610d1690612750565b8015610d635780601f10610d3857610100808354040283529160200191610d63565b820191906000526020600020905b815481529060010190602001808311610d4657829003601f168201915b505050505081565b600b5481565b610d79611926565b73ffffffffffffffffffffffffffffffffffffffff16610d97611173565b73ffffffffffffffffffffffffffffffffffffffff1614610ded576040517f08c379a0000000000000000000000000000000000000000000000000000000008152600401610de4906124f4565b60405180910390fd5b8060068190555050565b610dff611926565b73ffffffffffffffffffffffffffffffffffffffff16610e1d611173565b73ffffffffffffffffffffffffffffffffffffffff1614610e73576040517f08c379a0000000000000000000000000000000000000000000000000000000008152600401610e6a906124f4565b60405180910390fd5b610e7d6000611941565b565b600560009054906101000a900460ff16610ece576040517f08c379a0000000000000000000000000000000000000000000000000000000008152600401610ec5906124b4565b60405180910390fd5b600654600360009054906101000a900473ffffffffffffffffffffffffffffffffffffffff1673ffffffffffffffffffffffffffffffffffffffff166318160ddd6040518163ffffffff1660e01b815260040160206040518083038186803b158015610f3957600080fd5b505afa158015610f4d573d6000803e3d6000fd5b505050506040513d601f19601f82011682018060405250810190610f719190611fd7565b10610fb1576040517f08c379a0000000000000000000000000000000000000000000000000000000008152600401610fa890612474565b60405180910390fd5b600c60003373ffffffffffffffffffffffffffffffffffffffff1673ffffffffffffffffffffffffffffffffffffffff16815260200190815260200160002060009054906101000a900460ff1661103d576040517f08c379a0000000000000000000000000000000000000000000000000000000008152600401611034906124d4565b60405180910390fd5b6000600360009054906101000a900473ffffffffffffffffffffffffffffffffffffffff1690508073ffffffffffffffffffffffffffffffffffffffff1663755edd17336040518263ffffffff1660e01b815260040161109d919061239c565b600060405180830381600087803b1580156110b757600080fd5b505af11580156110cb573d6000803e3d6000fd5b505050506000600c60003373ffffffffffffffffffffffffffffffffffffffff1673ffffffffffffffffffffffffffffffffffffffff16815260200190815260200160002060006101000a81548160ff02191690831515021790555050565b6000600d60008373ffffffffffffffffffffffffffffffffffffffff1673ffffffffffffffffffffffffffffffffffffffff168152602001908152602001600020549050919050565b60008060009054906101000a900473ffffffffffffffffffffffffffffffffffffffff16905090565b6000600160009054906101000a900473ffffffffffffffffffffffffffffffffffffffff1690506111cb611926565b73ffffffffffffffffffffffffffffffffffffffff168173ffffffffffffffffffffffffffffffffffffffff1663c4552791611205611173565b6040518263ffffffff1660e01b8152600401611221919061239c565b60206040518083038186803b15801561123957600080fd5b505afa15801561124d573d6000803e3d6000fd5b505050506040513d601f19601f820116820180604052508101906112719190611f85565b73ffffffffffffffffffffffffffffffffffffffff1614806112cc5750611296611926565b73ffffffffffffffffffffffffffffffffffffffff166112b4611173565b73ffffffffffffffffffffffffffffffffffffffff16145b6112ff577f4e487b7100000000000000000000000000000000000000000000000000000000600052600160045260246000fd5b61130883610bce565b61131157600080fd5b6000600360009054906101000a900473ffffffffffffffffffffffffffffffffffffffff1690506008548414156113b2578073ffffffffffffffffffffffffffffffffffffffff1663755edd17846040518263ffffffff1660e01b815260040161137b919061239c565b600060405180830381600087803b15801561139557600080fd5b505af11580156113a9573d6000803e3d6000fd5b5050505061144a565b6009548414156114495760005b600a54811015611447578173ffffffffffffffffffffffffffffffffffffffff1663755edd17856040518263ffffffff1660e01b8152600401611402919061239c565b600060405180830381600087803b15801561141c57600080fd5b505af1158015611430573d6000803e3d6000fd5b50505050808061143f90612782565b9150506113bf565b505b5b50505050565b60606040518060400160405280600381526020017f4254530000000000000000000000000000000000000000000000000000000000815250905090565b611495611926565b73ffffffffffffffffffffffffffffffffffffffff166114b3611173565b73ffffffffffffffffffffffffffffffffffffffff1614611509576040517f08c379a0000000000000000000000000000000000000000000000000000000008152600401611500906124f4565b60405180910390fd5b80600560006101000a81548160ff02191690831515021790555050565b60006001905090565b600560009054906101000a900460ff1681565b6060600461154f83611a05565b604051602001611560929190612378565b6040516020818303038152906040529050919050565b600160009054906101000a900473ffffffffffffffffffffffffffffffffffffffff1681565b60008273ffffffffffffffffffffffffffffffffffffffff166115bd611173565b73ffffffffffffffffffffffffffffffffffffffff1614801561160b57508173ffffffffffffffffffffffffffffffffffffffff168373ffffffffffffffffffffffffffffffffffffffff16145b15611619576001905061174a565b6000600160009054906101000a900473ffffffffffffffffffffffffffffffffffffffff1690508373ffffffffffffffffffffffffffffffffffffffff1661165f611173565b73ffffffffffffffffffffffffffffffffffffffff1614801561173557508273ffffffffffffffffffffffffffffffffffffffff168173ffffffffffffffffffffffffffffffffffffffff1663c4552791866040518263ffffffff1660e01b81526004016116cd919061239c565b60206040518083038186803b1580156116e557600080fd5b505afa1580156116f9573d6000803e3d6000fd5b505050506040513d601f19601f8201168201806040525081019061171d9190611f85565b73ffffffffffffffffffffffffffffffffffffffff16145b1561174457600191505061174a565b60009150505b92915050565b611758611926565b73ffffffffffffffffffffffffffffffffffffffff16611776611173565b73ffffffffffffffffffffffffffffffffffffffff16146117cc576040517f08c379a00000000000000000000000000000000000000000000000000000000081526004016117c3906124f4565b60405180910390fd5b60006117d6611173565b90506117e182611bb2565b6117eb8183611caa565b5050565b6117f7611926565b73ffffffffffffffffffffffffffffffffffffffff16611815611173565b73ffffffffffffffffffffffffffffffffffffffff161461186b576040517f08c379a0000000000000000000000000000000000000000000000000000000008152600401611862906124f4565b60405180910390fd5b60005b8151811015611922576001600c60008484815181106118b6577f4e487b7100000000000000000000000000000000000000000000000000000000600052603260045260246000fd5b602002602001015173ffffffffffffffffffffffffffffffffffffffff1673ffffffffffffffffffffffffffffffffffffffff16815260200190815260200160002060006101000a81548160ff021916908315150217905550808061191a90612782565b91505061186e565b5050565b600033905090565b600080823b905060008111915050919050565b60008060009054906101000a900473ffffffffffffffffffffffffffffffffffffffff169050816000806101000a81548173ffffffffffffffffffffffffffffffffffffffff021916908373ffffffffffffffffffffffffffffffffffffffff1602179055508173ffffffffffffffffffffffffffffffffffffffff168173ffffffffffffffffffffffffffffffffffffffff167f8be0079c531659141344cd1fd0a4f28419497f9722a3daafe3b4186f6b6457e060405160405180910390a35050565b60606000821415611a4d576040518060400160405280600181526020017f30000000000000000000000000000000000000000000000000000000000000008152509050611bad565b600082905060005b60008214611a7f578080611a6890612782565b915050600a82611a78919061265e565b9150611a55565b60008167ffffffffffffffff811115611ac1577f4e487b7100000000000000000000000000000000000000000000000000000000600052604160045260246000fd5b6040519080825280601f01601f191660200182016040528015611af35781602001600182028036833780820191505090505b5090505b60008514611ba657600182611b0c919061268f565b9150600a85611b1b91906127cb565b6030611b279190612608565b60f81b818381518110611b63577f4e487b7100000000000000000000000000000000000000000000000000000000600052603260045260246000fd5b60200101907effffffffffffffffffffffffffffffffffffffffffffffffffffffffffffff1916908160001a905350600a85611b9f919061265e565b9450611af7565b8093505050505b919050565b611bba611926565b73ffffffffffffffffffffffffffffffffffffffff16611bd8611173565b73ffffffffffffffffffffffffffffffffffffffff1614611c2e576040517f08c379a0000000000000000000000000000000000000000000000000000000008152600401611c25906124f4565b60405180910390fd5b600073ffffffffffffffffffffffffffffffffffffffff168173ffffffffffffffffffffffffffffffffffffffff161415611c9e576040517f08c379a0000000000000000000000000000000000000000000000000000000008152600401611c9590612494565b60405180910390fd5b611ca781611941565b50565b60005b600754811015611d2557808273ffffffffffffffffffffffffffffffffffffffff168473ffffffffffffffffffffffffffffffffffffffff167fddf252ad1be2c89b69c2b068fc378daa952ba7f163c4a11628f55a4df523b3ef60405160405180910390a48080611d1d90612782565b915050611cad565b505050565b6000611d3d611d38846125a0565b61256f565b90508083825260208201905082856020860282011115611d5c57600080fd5b60005b85811015611d8c5781611d728882611d96565b845260208401935060208301925050600181019050611d5f565b5050509392505050565b600081359050611da5816128c9565b92915050565b600082601f830112611dbc57600080fd5b8135611dcc848260208601611d2a565b91505092915050565b600081359050611de4816128e0565b92915050565b600081519050611df9816128e0565b92915050565b600081519050611e0e816128f7565b92915050565b600081359050611e238161290e565b92915050565b600081519050611e388161290e565b92915050565b600060208284031215611e5057600080fd5b6000611e5e84828501611d96565b91505092915050565b60008060408385031215611e7a57600080fd5b6000611e8885828601611d96565b9250506020611e9985828601611d96565b9150509250929050565b600080600060608486031215611eb857600080fd5b6000611ec686828701611d96565b9350506020611ed786828701611d96565b9250506040611ee886828701611e14565b9150509250925092565b600060208284031215611f0457600080fd5b600082013567ffffffffffffffff811115611f1e57600080fd5b611f2a84828501611dab565b91505092915050565b600060208284031215611f4557600080fd5b6000611f5384828501611dd5565b91505092915050565b600060208284031215611f6e57600080fd5b6000611f7c84828501611dea565b91505092915050565b600060208284031215611f9757600080fd5b6000611fa584828501611dff565b91505092915050565b600060208284031215611fc057600080fd5b6000611fce84828501611e14565b91505092915050565b600060208284031215611fe957600080fd5b6000611ff784828501611e29565b91505092915050565b6000806040838503121561201357600080fd5b600061202185828601611e14565b925050602061203285828601611d96565b9150509250929050565b612045816126c3565b82525050565b612054816126d5565b82525050565b6000612065826125e1565b61206f81856125ec565b935061207f81856020860161271d565b612088816128b8565b840191505092915050565b600061209e826125e1565b6120a881856125fd565b93506120b881856020860161271d565b80840191505092915050565b600081546120d181612750565b6120db81866125fd565b945060018216600081146120f657600181146121075761213a565b60ff1983168652818601935061213a565b612110856125cc565b60005b8381101561213257815481890152600182019150602081019050612113565b838801955050505b50505092915050565b6000612150600e836125ec565b91507f416c7265616479206d696e7465640000000000000000000000000000000000006000830152602082019050919050565b60006121906014836125ec565b91507f4d6178696d756d206d696e7420726561636865640000000000000000000000006000830152602082019050919050565b60006121d06026836125ec565b91507f4f776e61626c653a206e6577206f776e657220697320746865207a65726f206160008301527f64647265737300000000000000000000000000000000000000000000000000006020830152604082019050919050565b60006122366010836125ec565b91507f4d696e74206e6f742073746172746564000000000000000000000000000000006000830152602082019050919050565b6000612276601c836125ec565b91507f4163636f756e74206e6f7420656c696769626c6520746f206d696e74000000006000830152602082019050919050565b60006122b66020836125ec565b91507f4f776e61626c653a2063616c6c6572206973206e6f7420746865206f776e65726000830152602082019050919050565b60006122f66014836125ec565b91507f416c6c6f77616e6365206e6f7420656e6f7567680000000000000000000000006000830152602082019050919050565b60006123366016836125ec565b91507f436f6e7472616374732063616e6e6f74206d696e742e000000000000000000006000830152602082019050919050565b61237281612713565b82525050565b600061238482856120c4565b91506123908284612093565b91508190509392505050565b60006020820190506123b1600083018461203c565b92915050565b60006040820190506123cc600083018561203c565b6123d9602083018461203c565b9392505050565b60006060820190506123f5600083018661203c565b612402602083018561203c565b61240f6040830184612369565b949350505050565b600060208201905061242c600083018461204b565b92915050565b6000602082019050818103600083015261244c818461205a565b905092915050565b6000602082019050818103600083015261246d81612143565b9050919050565b6000602082019050818103600083015261248d81612183565b9050919050565b600060208201905081810360008301526124ad816121c3565b9050919050565b600060208201905081810360008301526124cd81612229565b9050919050565b600060208201905081810360008301526124ed81612269565b9050919050565b6000602082019050818103600083015261250d816122a9565b9050919050565b6000602082019050818103600083015261252d816122e9565b9050919050565b6000602082019050818103600083015261254d81612329565b9050919050565b60006020820190506125696000830184612369565b92915050565b6000604051905081810181811067ffffffffffffffff8211171561259657612595612889565b5b8060405250919050565b600067ffffffffffffffff8211156125bb576125ba612889565b5b602082029050602081019050919050565b60008190508160005260206000209050919050565b600081519050919050565b600082825260208201905092915050565b600081905092915050565b600061261382612713565b915061261e83612713565b9250827fffffffffffffffffffffffffffffffffffffffffffffffffffffffffffffffff03821115612653576126526127fc565b5b828201905092915050565b600061266982612713565b915061267483612713565b9250826126845761268361282b565b5b828204905092915050565b600061269a82612713565b91506126a583612713565b9250828210156126b8576126b76127fc565b5b828203905092915050565b60006126ce826126f3565b9050919050565b60008115159050919050565b60006126ec826126c3565b9050919050565b600073ffffffffffffffffffffffffffffffffffffffff82169050919050565b6000819050919050565b60005b8381101561273b578082015181840152602081019050612720565b8381111561274a576000848401525b50505050565b6000600282049050600182168061276857607f821691505b6020821081141561277c5761277b61285a565b5b50919050565b600061278d82612713565b91507fffffffffffffffffffffffffffffffffffffffffffffffffffffffffffffffff8214156127c0576127bf6127fc565b5b600182019050919050565b60006127d682612713565b91506127e183612713565b9250826127f1576127f061282b565b5b828206905092915050565b7f4e487b7100000000000000000000000000000000000000000000000000000000600052601160045260246000fd5b7f4e487b7100000000000000000000000000000000000000000000000000000000600052601260045260246000fd5b7f4e487b7100000000000000000000000000000000000000000000000000000000600052602260045260246000fd5b7f4e487b7100000000000000000000000000000000000000000000000000000000600052604160045260246000fd5b6000601f19601f8301169050919050565b6128d2816126c3565b81146128dd57600080fd5b50565b6128e9816126d5565b81146128f457600080fd5b50565b612900816126e1565b811461290b57600080fd5b50565b61291781612713565b811461292257600080fd5b5056fea2646970667358221220bbe47864b1d81325ce9441f1c5dea04ddae29578eed012113a9e0ace79d0ce8f64736f6c6343000800003368747470733a2f2f676174657761792e70696e6174612e636c6f75642f697066732f516d644c594b34424b635a7235657061754e56643275666a3755746e66676561537758735865646d474b64644437",
  "immutableReferences": {},
  "source": "// SPDX-License-Identifier: MIT\n\npragma solidity ^0.8.0;\n\nimport \"@openzeppelin/contracts/access/Ownable.sol\";\nimport \"@openzeppelin/contracts/utils/Strings.sol\";\nimport \"./IFactoryERC721.sol\";\nimport \"./BullTycoons.sol\";\nimport \"@openzeppelin/contracts/utils/Address.sol\";\nimport \"@openzeppelin/contracts/token/ERC20/IERC20.sol\";\n\n\ncontract BullTycoonsFactory is FactoryERC721, Ownable {\n    using Strings for string;\n    using Address for address; \n\n    event Transfer(\n        address indexed from,\n        address indexed to,\n        uint256 indexed tokenId\n    );\n\n    address public proxyRegistryAddress;\n    address public wethAddress = 0x7ceB23fD6bC0adD59E62ac25578270cFf1b9f619;\n    address public nftAddress;\n    string public baseURI = \"https://gateway.pinata.cloud/ipfs/QmdLYK4BKcZr5epauNVd2ufj7UtnfgeaSwXsXedmGKddD7\";\n    bool public MINT_START = false;\n\n    /*\n     * Enforce the existence of only 1000 BullTycoons .\n     */\n    uint256 TOTAL_BULL_SUPPLY = 1000;\n\n    /*\n     * Three different options for minting BullTycoons (basic, premium, and gold).\n     */\n    uint256 NUM_OPTIONS = 3;\n    uint256 SINGLE_CREATURE_OPTION = 0;\n    uint256 MULTIPLE_CREATURE_OPTION = 1;\n    uint256 NUM_CREATURES_IN_MULTIPLE_CREATURE_OPTION = 4;\n\n    constructor(address _proxyRegistryAddress, address _nftAddress) {\n        proxyRegistryAddress = _proxyRegistryAddress;\n        nftAddress = _nftAddress;\n\n        fireTransferEvents(address(0), owner());\n    }\n\n    function setMaxSupply(uint256 _maxSupply) public onlyOwner() {\n        TOTAL_BULL_SUPPLY = _maxSupply;\n    }\n\n    function getMaxSupply() public view returns (uint256) {\n        return TOTAL_BULL_SUPPLY;\n    }\n\n    function name() override external pure returns (string memory) {\n        return \"BullTycoons Mint\";\n    }\n\n    function symbol() override external pure returns (string memory) {\n        return \"BTS\";\n    }\n\n    function supportsFactoryInterface() override public pure returns (bool) {\n        return true;\n    }\n\n    function numOptions() override public view returns (uint256) {\n        return NUM_OPTIONS;\n    }\n\n    function transferOwnership(address newOwner) override public onlyOwner {\n        address _prevOwner = owner();\n        super.transferOwnership(newOwner);\n        fireTransferEvents(_prevOwner, newOwner);\n    }\n\n    function fireTransferEvents(address _from, address _to) private {\n        for (uint256 i = 0; i < NUM_OPTIONS; i++) {\n            emit Transfer(_from, _to, i);\n        }\n    }\n\n    /* Presale Minting: Start */\n\n    uint public PRESALE_AMOUNT = 5 * 10 ** 16; // Equivalent of 0.05 ETH\n    mapping(address => bool) addressWhitelisted;\n    mapping(address => uint256) addressToMints;\n    modifier addressCanMint() {\n        require(!address(msg.sender).isContract() && tx.origin == msg.sender, \"Contracts cannot mint.\");\n        _;\n    }\n\n    modifier isMintable() {\n        require(MINT_START, \"Mint not started\");\n        require(BullTycoons(nftAddress).totalSupply() < TOTAL_BULL_SUPPLY, \"Maximum mint reached\");\n        _;\n    }\n\n    // Admin funcions start --\n    // set start minting to be true or false\n    function setStartMinting(bool _startMinting) public onlyOwner() {\n        MINT_START = _startMinting;\n    }\n\n    // set minting price\n    function setPresaleAmount(uint256 _presaleAmount) public onlyOwner() {\n        PRESALE_AMOUNT = _presaleAmount;\n    }\n\n    // set whitelist addresses\n    function setWhitelist(address[] memory _addresses) public onlyOwner() {\n        for (uint256 i = 0; i < _addresses.length; i++) {\n            addressWhitelisted[_addresses[i]] = true;\n        }\n    }\n    // Admin functions done --\n\n    // Whitelist start --\n    \n    function checkWhitelisted(address _address) public view returns(bool _isWhitelisted) {\n        return addressWhitelisted[_address];\n    }\n\n    function whitelistMint() public isMintable() {\n        require(addressWhitelisted[msg.sender], \"Account not eligible to mint\");\n        BullTycoons bullTycoons = BullTycoons(nftAddress);\n        bullTycoons.mintTo(msg.sender);\n        addressWhitelisted[msg.sender] = false;\n    }\n    // Whitelist end --\n\n    function presaleMint() public isMintable() addressCanMint() {\n        require(addressToMints[msg.sender] == 0, \"Already minted\");\n        require(IERC20(wethAddress).allowance(msg.sender, address(this)) >= PRESALE_AMOUNT, \"Allowance not enough\");\n        BullTycoons bullTycoons = BullTycoons(nftAddress);\n        IERC20(wethAddress).transferFrom(msg.sender, address(this), PRESALE_AMOUNT);\n        bullTycoons.mintTo(msg.sender);\n        addressToMints[msg.sender] = addressToMints[msg.sender] + 1;\n    }\n\n    function getNumberMinted(address _minter) public view returns(uint256 numberMinted) {\n        return addressToMints[_minter];\n    }\n\n    /* Presale Minting: End */\n\n    function mint(uint256 _optionId, address _toAddress) override public {\n        // Must be sent from the owner proxy or owner.\n        ProxyRegistry proxyRegistry = ProxyRegistry(proxyRegistryAddress);\n        assert(\n            address(proxyRegistry.proxies(owner())) == _msgSender() ||\n                owner() == _msgSender()\n        );\n        require(canMint(_optionId));\n\n        BullTycoons openSeaBullTycoons = BullTycoons(nftAddress);\n        if (_optionId == SINGLE_CREATURE_OPTION) {\n            openSeaBullTycoons.mintTo(_toAddress);\n        } else if (_optionId == MULTIPLE_CREATURE_OPTION) {\n            for (\n                uint256 i = 0;\n                i < NUM_CREATURES_IN_MULTIPLE_CREATURE_OPTION;\n                i++\n            ) {\n                openSeaBullTycoons.mintTo(_toAddress);\n            }\n        }\n    }\n\n    function canMint(uint256 _optionId) override public view returns (bool) {\n        if (_optionId >= NUM_OPTIONS) {\n            return false;\n        }\n\n        BullTycoons bullTycoons = BullTycoons(nftAddress);\n        uint256 creatureSupply = bullTycoons.totalSupply();\n\n        uint256 numItemsAllocated = 0;\n        if (_optionId == SINGLE_CREATURE_OPTION) {\n            numItemsAllocated = 1;\n        } else if (_optionId == MULTIPLE_CREATURE_OPTION) {\n            numItemsAllocated = NUM_CREATURES_IN_MULTIPLE_CREATURE_OPTION;\n        }\n        return creatureSupply < (TOTAL_BULL_SUPPLY - numItemsAllocated);\n    }\n\n    function tokenURI(uint256 _optionId) override external view returns (string memory) {\n        return string(abi.encodePacked(baseURI, Strings.toString(_optionId)));\n    }\n\n    /**\n     * Hack to get things to work automatically on OpenSea.\n     * Use transferFrom so the frontend doesn't have to worry about different method names.\n     */\n    function transferFrom(\n        address _from,\n        address _to,\n        uint256 _tokenId\n    ) public {\n        mint(_tokenId, _to);\n    }\n\n    /**\n     * Hack to get things to work automatically on OpenSea.\n     * Use isApprovedForAll so the frontend doesn't have to worry about different method names.\n     */\n    function isApprovedForAll(address _owner, address _operator)\n        public\n        view\n        returns (bool)\n    {\n        if (owner() == _owner && _owner == _operator) {\n            return true;\n        }\n\n        ProxyRegistry proxyRegistry = ProxyRegistry(proxyRegistryAddress);\n        if (\n            owner() == _owner &&\n            address(proxyRegistry.proxies(_owner)) == _operator\n        ) {\n            return true;\n        }\n\n        return false;\n    }\n\n    /**\n     * Hack to get things to work automatically on OpenSea.\n     * Use isApprovedForAll so the frontend doesn't have to worry about different method names.\n     */\n    function ownerOf(uint256 _tokenId) public view returns (address _owner) {\n        return owner();\n    }\n}\n",
  "sourcePath": "/Users/olayinkaokewale/Documents/bull_nft/bulltycoons_contracts/contracts/BullTycoonsFactory.sol",
  "compiler": {
    "name": "solc",
    "version": "0.8.0+commit.c7dfd78e.Emscripten.clang"
  },
  "schemaVersion": "3.3.2",
  "updatedAt": "2021-10-24T01:54:16.375Z",
  "devdoc": {
    "kind": "dev",
    "methods": {
      "canMint(uint256)": {
        "details": "Returns whether the option ID can be minted. Can return false if the developer wishes to restrict a total supply per option ID (or overall)."
      },
      "mint(uint256,address)": {
        "details": "Mints asset(s) in accordance to a specific address with a particular \"option\". This should be callable only by the contract owner or the owner's Wyvern Proxy (later universal login will solve this). Options should also be delineated 0 - (numOptions() - 1) for convenient indexing.",
        "params": {
          "_optionId": "the option id",
          "_toAddress": "address of the future owner of the asset(s)"
        }
      },
      "owner()": {
        "details": "Returns the address of the current owner."
      },
      "renounceOwnership()": {
        "details": "Leaves the contract without owner. It will not be possible to call `onlyOwner` functions anymore. Can only be called by the current owner. NOTE: Renouncing ownership will leave the contract without an owner, thereby removing any functionality that is only available to the owner."
      },
      "tokenURI(uint256)": {
        "details": "Returns a URL specifying some metadata about the option. This metadata can be of the same structure as the ERC721 metadata."
      },
      "transferOwnership(address)": {
        "details": "Transfers ownership of the contract to a new account (`newOwner`). Can only be called by the current owner."
      }
    },
    "version": 1
  },
  "userdoc": {
    "kind": "user",
    "methods": {
      "isApprovedForAll(address,address)": {
        "notice": "Hack to get things to work automatically on OpenSea. Use isApprovedForAll so the frontend doesn't have to worry about different method names."
      },
      "name()": {
        "notice": "Returns the name of this factory."
      },
      "numOptions()": {
        "notice": "Number of options the factory supports."
      },
      "ownerOf(uint256)": {
        "notice": "Hack to get things to work automatically on OpenSea. Use isApprovedForAll so the frontend doesn't have to worry about different method names."
      },
      "supportsFactoryInterface()": {
        "notice": "Indicates that this is a factory contract. Ideally would use EIP 165 supportsInterface()"
      },
      "symbol()": {
        "notice": "Returns the symbol for this factory."
      },
      "transferFrom(address,address,uint256)": {
        "notice": "Hack to get things to work automatically on OpenSea. Use transferFrom so the frontend doesn't have to worry about different method names."
      }
    },
    "version": 1
  }
}