{
  "contractName": "BullTycoonsFactory",
  "abi": [
    {
      "inputs": [
        {
          "internalType": "address",
          "name": "_proxyRegistryAddress",
          "type": "address"
        },
        {
          "internalType": "address",
          "name": "_nftAddress",
          "type": "address"
        }
      ],
      "stateMutability": "nonpayable",
      "type": "constructor"
    },
    {
      "anonymous": false,
      "inputs": [
        {
          "indexed": true,
          "internalType": "address",
          "name": "previousOwner",
          "type": "address"
        },
        {
          "indexed": true,
          "internalType": "address",
          "name": "newOwner",
          "type": "address"
        }
      ],
      "name": "OwnershipTransferred",
      "type": "event"
    },
    {
      "anonymous": false,
      "inputs": [
        {
          "indexed": true,
          "internalType": "address",
          "name": "from",
          "type": "address"
        },
        {
          "indexed": true,
          "internalType": "address",
          "name": "to",
          "type": "address"
        },
        {
          "indexed": true,
          "internalType": "uint256",
          "name": "tokenId",
          "type": "uint256"
        }
      ],
      "name": "Transfer",
      "type": "event"
    },
    {
      "inputs": [],
      "name": "baseURI",
      "outputs": [
        {
          "internalType": "string",
          "name": "",
          "type": "string"
        }
      ],
      "stateMutability": "view",
      "type": "function",
      "constant": true
    },
    {
      "inputs": [],
      "name": "nftAddress",
      "outputs": [
        {
          "internalType": "address",
          "name": "",
          "type": "address"
        }
      ],
      "stateMutability": "view",
      "type": "function",
      "constant": true
    },
    {
      "inputs": [],
      "name": "owner",
      "outputs": [
        {
          "internalType": "address",
          "name": "",
          "type": "address"
        }
      ],
      "stateMutability": "view",
      "type": "function",
      "constant": true
    },
    {
      "inputs": [],
      "name": "proxyRegistryAddress",
      "outputs": [
        {
          "internalType": "address",
          "name": "",
          "type": "address"
        }
      ],
      "stateMutability": "view",
      "type": "function",
      "constant": true
    },
    {
      "inputs": [],
      "name": "renounceOwnership",
      "outputs": [],
      "stateMutability": "nonpayable",
      "type": "function"
    },
    {
      "inputs": [
        {
          "internalType": "uint256",
          "name": "_maxSupply",
          "type": "uint256"
        }
      ],
      "name": "setMaxSupply",
      "outputs": [],
      "stateMutability": "nonpayable",
      "type": "function"
    },
    {
      "inputs": [],
      "name": "name",
      "outputs": [
        {
          "internalType": "string",
          "name": "",
          "type": "string"
        }
      ],
      "stateMutability": "pure",
      "type": "function",
      "constant": true
    },
    {
      "inputs": [],
      "name": "symbol",
      "outputs": [
        {
          "internalType": "string",
          "name": "",
          "type": "string"
        }
      ],
      "stateMutability": "pure",
      "type": "function",
      "constant": true
    },
    {
      "inputs": [],
      "name": "supportsFactoryInterface",
      "outputs": [
        {
          "internalType": "bool",
          "name": "",
          "type": "bool"
        }
      ],
      "stateMutability": "pure",
      "type": "function",
      "constant": true
    },
    {
      "inputs": [],
      "name": "numOptions",
      "outputs": [
        {
          "internalType": "uint256",
          "name": "",
          "type": "uint256"
        }
      ],
      "stateMutability": "view",
      "type": "function",
      "constant": true
    },
    {
      "inputs": [
        {
          "internalType": "address",
          "name": "newOwner",
          "type": "address"
        }
      ],
      "name": "transferOwnership",
      "outputs": [],
      "stateMutability": "nonpayable",
      "type": "function"
    },
    {
      "inputs": [
        {
          "internalType": "uint256",
          "name": "_optionId",
          "type": "uint256"
        },
        {
          "internalType": "address",
          "name": "_toAddress",
          "type": "address"
        }
      ],
      "name": "mint",
      "outputs": [],
      "stateMutability": "nonpayable",
      "type": "function"
    },
    {
      "inputs": [
        {
          "internalType": "uint256",
          "name": "_optionId",
          "type": "uint256"
        }
      ],
      "name": "canMint",
      "outputs": [
        {
          "internalType": "bool",
          "name": "",
          "type": "bool"
        }
      ],
      "stateMutability": "view",
      "type": "function",
      "constant": true
    },
    {
      "inputs": [
        {
          "internalType": "uint256",
          "name": "_optionId",
          "type": "uint256"
        }
      ],
      "name": "tokenURI",
      "outputs": [
        {
          "internalType": "string",
          "name": "",
          "type": "string"
        }
      ],
      "stateMutability": "view",
      "type": "function",
      "constant": true
    },
    {
      "inputs": [
        {
          "internalType": "address",
          "name": "_from",
          "type": "address"
        },
        {
          "internalType": "address",
          "name": "_to",
          "type": "address"
        },
        {
          "internalType": "uint256",
          "name": "_tokenId",
          "type": "uint256"
        }
      ],
      "name": "transferFrom",
      "outputs": [],
      "stateMutability": "nonpayable",
      "type": "function"
    },
    {
      "inputs": [
        {
          "internalType": "address",
          "name": "_owner",
          "type": "address"
        },
        {
          "internalType": "address",
          "name": "_operator",
          "type": "address"
        }
      ],
      "name": "isApprovedForAll",
      "outputs": [
        {
          "internalType": "bool",
          "name": "",
          "type": "bool"
        }
      ],
      "stateMutability": "view",
      "type": "function",
      "constant": true
    },
    {
      "inputs": [
        {
          "internalType": "uint256",
          "name": "_tokenId",
          "type": "uint256"
        }
      ],
      "name": "ownerOf",
      "outputs": [
        {
          "internalType": "address",
          "name": "_owner",
          "type": "address"
        }
      ],
      "stateMutability": "view",
      "type": "function",
      "constant": true
    }
  ],
  "bytecode": "0x60806040526040518060600160405280602d815260200162001cd7602d91396003908051906020019062000035929190620002c8565b506103e860045560036005556000600655600160075560046008553480156200005d57600080fd5b5060405162001d0438038062001d0483398181016040528101906200008391906200038f565b620000a3620000976200014f60201b60201c565b6200015760201b60201c565b81600160006101000a81548173ffffffffffffffffffffffffffffffffffffffff021916908373ffffffffffffffffffffffffffffffffffffffff16021790555080600260006101000a81548173ffffffffffffffffffffffffffffffffffffffff021916908373ffffffffffffffffffffffffffffffffffffffff1602179055506200014760006200013b6200021b60201b60201c565b6200024460201b60201c565b50506200050a565b600033905090565b60008060009054906101000a900473ffffffffffffffffffffffffffffffffffffffff169050816000806101000a81548173ffffffffffffffffffffffffffffffffffffffff021916908373ffffffffffffffffffffffffffffffffffffffff1602179055508173ffffffffffffffffffffffffffffffffffffffff168173ffffffffffffffffffffffffffffffffffffffff167f8be0079c531659141344cd1fd0a4f28419497f9722a3daafe3b4186f6b6457e060405160405180910390a35050565b60008060009054906101000a900473ffffffffffffffffffffffffffffffffffffffff16905090565b60005b600554811015620002c357808273ffffffffffffffffffffffffffffffffffffffff168473ffffffffffffffffffffffffffffffffffffffff167fddf252ad1be2c89b69c2b068fc378daa952ba7f163c4a11628f55a4df523b3ef60405160405180910390a48080620002ba9062000444565b91505062000247565b505050565b828054620002d6906200040e565b90600052602060002090601f016020900481019282620002fa576000855562000346565b82601f106200031557805160ff191683800117855562000346565b8280016001018555821562000346579182015b828111156200034557825182559160200191906001019062000328565b5b50905062000355919062000359565b5090565b5b80821115620003745760008160009055506001016200035a565b5090565b6000815190506200038981620004f0565b92915050565b60008060408385031215620003a357600080fd5b6000620003b38582860162000378565b9250506020620003c68582860162000378565b9150509250929050565b6000620003dd82620003e4565b9050919050565b600073ffffffffffffffffffffffffffffffffffffffff82169050919050565b6000819050919050565b600060028204905060018216806200042757607f821691505b602082108114156200043e576200043d620004c1565b5b50919050565b6000620004518262000404565b91507fffffffffffffffffffffffffffffffffffffffffffffffffffffffffffffffff82141562000487576200048662000492565b5b600182019050919050565b7f4e487b7100000000000000000000000000000000000000000000000000000000600052601160045260246000fd5b7f4e487b7100000000000000000000000000000000000000000000000000000000600052602260045260246000fd5b620004fb81620003d0565b81146200050757600080fd5b50565b6117bd806200051a6000396000f3fe608060405234801561001057600080fd5b506004361061010b5760003560e01c8063715018a6116100a2578063c311c52311610071578063c311c52314610282578063c87b56dd146102a0578063cd7c0326146102d0578063e985e9c5146102ee578063f2fde38b1461031e5761010b565b8063715018a6146102205780638da5cb5b1461022a57806394bf804d1461024857806395d89b41146102645761010b565b80635dd871a3116100de5780635dd871a3146101865780636352211e146101b65780636c0360eb146101e65780636f8b44b0146102045761010b565b806306fdde031461011057806323b872dd1461012e5780634b97aed91461014a5780635bf8633a14610168575b600080fd5b61011861033a565b60405161012591906113f7565b60405180910390f35b610148600480360381019061014391906110db565b610377565b005b610152610386565b60405161015f9190611459565b60405180910390f35b610170610390565b60405161017d91906113c1565b60405180910390f35b6101a0600480360381019061019b9190611153565b6103b6565b6040516101ad91906113dc565b60405180910390f35b6101d060048036038101906101cb9190611153565b6104b4565b6040516101dd91906113c1565b60405180910390f35b6101ee6104c5565b6040516101fb91906113f7565b60405180910390f35b61021e60048036038101906102199190611153565b610553565b005b6102286105d9565b005b610232610661565b60405161023f91906113c1565b60405180910390f35b610262600480360381019061025d91906111a5565b61068a565b005b61026c61093e565b60405161027991906113f7565b60405180910390f35b61028a61097b565b60405161029791906113dc565b60405180910390f35b6102ba60048036038101906102b59190611153565b610984565b6040516102c791906113f7565b60405180910390f35b6102d86109b8565b6040516102e591906113c1565b60405180910390f35b6103086004803603810190610303919061109f565b6109de565b60405161031591906113dc565b60405180910390f35b61033860048036038101906103339190611076565b610b92565b005b60606040518060400160405280601581526020017f42756c6c5479636f6f6e73204974656d2053616c650000000000000000000000815250905090565b610381818361068a565b505050565b6000600554905090565b600260009054906101000a900473ffffffffffffffffffffffffffffffffffffffff1681565b600060055482106103ca57600090506104af565b6000600260009054906101000a900473ffffffffffffffffffffffffffffffffffffffff16905060008173ffffffffffffffffffffffffffffffffffffffff166318160ddd6040518163ffffffff1660e01b815260040160206040518083038186803b15801561043957600080fd5b505afa15801561044d573d6000803e3d6000fd5b505050506040513d601f19601f82011682018060405250810190610471919061117c565b905060006006548514156104885760019050610499565b6007548514156104985760085490505b5b806004546104a79190611537565b821093505050505b919050565b60006104be610661565b9050919050565b600380546104d2906115f8565b80601f01602080910402602001604051908101604052809291908181526020018280546104fe906115f8565b801561054b5780601f106105205761010080835404028352916020019161054b565b820191906000526020600020905b81548152906001019060200180831161052e57829003601f168201915b505050505081565b61055b610c31565b73ffffffffffffffffffffffffffffffffffffffff16610579610661565b73ffffffffffffffffffffffffffffffffffffffff16146105cf576040517f08c379a00000000000000000000000000000000000000000000000000000000081526004016105c690611439565b60405180910390fd5b8060048190555050565b6105e1610c31565b73ffffffffffffffffffffffffffffffffffffffff166105ff610661565b73ffffffffffffffffffffffffffffffffffffffff1614610655576040517f08c379a000000000000000000000000000000000000000000000000000000000815260040161064c90611439565b60405180910390fd5b61065f6000610c39565b565b60008060009054906101000a900473ffffffffffffffffffffffffffffffffffffffff16905090565b6000600160009054906101000a900473ffffffffffffffffffffffffffffffffffffffff1690506106b9610c31565b73ffffffffffffffffffffffffffffffffffffffff168173ffffffffffffffffffffffffffffffffffffffff1663c45527916106f3610661565b6040518263ffffffff1660e01b815260040161070f91906113c1565b60206040518083038186803b15801561072757600080fd5b505afa15801561073b573d6000803e3d6000fd5b505050506040513d601f19601f8201168201806040525081019061075f919061112a565b73ffffffffffffffffffffffffffffffffffffffff1614806107ba5750610784610c31565b73ffffffffffffffffffffffffffffffffffffffff166107a2610661565b73ffffffffffffffffffffffffffffffffffffffff16145b6107ed577f4e487b7100000000000000000000000000000000000000000000000000000000600052600160045260246000fd5b6107f6836103b6565b6107ff57600080fd5b6000600260009054906101000a900473ffffffffffffffffffffffffffffffffffffffff1690506006548414156108a0578073ffffffffffffffffffffffffffffffffffffffff1663755edd17846040518263ffffffff1660e01b815260040161086991906113c1565b600060405180830381600087803b15801561088357600080fd5b505af1158015610897573d6000803e3d6000fd5b50505050610938565b6007548414156109375760005b600854811015610935578173ffffffffffffffffffffffffffffffffffffffff1663755edd17856040518263ffffffff1660e01b81526004016108f091906113c1565b600060405180830381600087803b15801561090a57600080fd5b505af115801561091e573d6000803e3d6000fd5b50505050808061092d9061162a565b9150506108ad565b505b5b50505050565b60606040518060400160405280600381526020017f4350460000000000000000000000000000000000000000000000000000000000815250905090565b60006001905090565b6060600361099183610cfd565b6040516020016109a292919061139d565b6040516020818303038152906040529050919050565b600160009054906101000a900473ffffffffffffffffffffffffffffffffffffffff1681565b60008273ffffffffffffffffffffffffffffffffffffffff166109ff610661565b73ffffffffffffffffffffffffffffffffffffffff16148015610a4d57508173ffffffffffffffffffffffffffffffffffffffff168373ffffffffffffffffffffffffffffffffffffffff16145b15610a5b5760019050610b8c565b6000600160009054906101000a900473ffffffffffffffffffffffffffffffffffffffff1690508373ffffffffffffffffffffffffffffffffffffffff16610aa1610661565b73ffffffffffffffffffffffffffffffffffffffff16148015610b7757508273ffffffffffffffffffffffffffffffffffffffff168173ffffffffffffffffffffffffffffffffffffffff1663c4552791866040518263ffffffff1660e01b8152600401610b0f91906113c1565b60206040518083038186803b158015610b2757600080fd5b505afa158015610b3b573d6000803e3d6000fd5b505050506040513d601f19601f82011682018060405250810190610b5f919061112a565b73ffffffffffffffffffffffffffffffffffffffff16145b15610b86576001915050610b8c565b60009150505b92915050565b610b9a610c31565b73ffffffffffffffffffffffffffffffffffffffff16610bb8610661565b73ffffffffffffffffffffffffffffffffffffffff1614610c0e576040517f08c379a0000000000000000000000000000000000000000000000000000000008152600401610c0590611439565b60405180910390fd5b6000610c18610661565b9050610c2382610eaa565b610c2d8183610fa2565b5050565b600033905090565b60008060009054906101000a900473ffffffffffffffffffffffffffffffffffffffff169050816000806101000a81548173ffffffffffffffffffffffffffffffffffffffff021916908373ffffffffffffffffffffffffffffffffffffffff1602179055508173ffffffffffffffffffffffffffffffffffffffff168173ffffffffffffffffffffffffffffffffffffffff167f8be0079c531659141344cd1fd0a4f28419497f9722a3daafe3b4186f6b6457e060405160405180910390a35050565b60606000821415610d45576040518060400160405280600181526020017f30000000000000000000000000000000000000000000000000000000000000008152509050610ea5565b600082905060005b60008214610d77578080610d609061162a565b915050600a82610d709190611506565b9150610d4d565b60008167ffffffffffffffff811115610db9577f4e487b7100000000000000000000000000000000000000000000000000000000600052604160045260246000fd5b6040519080825280601f01601f191660200182016040528015610deb5781602001600182028036833780820191505090505b5090505b60008514610e9e57600182610e049190611537565b9150600a85610e139190611673565b6030610e1f91906114b0565b60f81b818381518110610e5b577f4e487b7100000000000000000000000000000000000000000000000000000000600052603260045260246000fd5b60200101907effffffffffffffffffffffffffffffffffffffffffffffffffffffffffffff1916908160001a905350600a85610e979190611506565b9450610def565b8093505050505b919050565b610eb2610c31565b73ffffffffffffffffffffffffffffffffffffffff16610ed0610661565b73ffffffffffffffffffffffffffffffffffffffff1614610f26576040517f08c379a0000000000000000000000000000000000000000000000000000000008152600401610f1d90611439565b60405180910390fd5b600073ffffffffffffffffffffffffffffffffffffffff168173ffffffffffffffffffffffffffffffffffffffff161415610f96576040517f08c379a0000000000000000000000000000000000000000000000000000000008152600401610f8d90611419565b60405180910390fd5b610f9f81610c39565b50565b60005b60055481101561101d57808273ffffffffffffffffffffffffffffffffffffffff168473ffffffffffffffffffffffffffffffffffffffff167fddf252ad1be2c89b69c2b068fc378daa952ba7f163c4a11628f55a4df523b3ef60405160405180910390a480806110159061162a565b915050610fa5565b505050565b60008135905061103181611742565b92915050565b60008151905061104681611759565b92915050565b60008135905061105b81611770565b92915050565b60008151905061107081611770565b92915050565b60006020828403121561108857600080fd5b600061109684828501611022565b91505092915050565b600080604083850312156110b257600080fd5b60006110c085828601611022565b92505060206110d185828601611022565b9150509250929050565b6000806000606084860312156110f057600080fd5b60006110fe86828701611022565b935050602061110f86828701611022565b92505060406111208682870161104c565b9150509250925092565b60006020828403121561113c57600080fd5b600061114a84828501611037565b91505092915050565b60006020828403121561116557600080fd5b60006111738482850161104c565b91505092915050565b60006020828403121561118e57600080fd5b600061119c84828501611061565b91505092915050565b600080604083850312156111b857600080fd5b60006111c68582860161104c565b92505060206111d785828601611022565b9150509250929050565b6111ea8161156b565b82525050565b6111f98161157d565b82525050565b600061120a82611489565b6112148185611494565b93506112248185602086016115c5565b61122d81611731565b840191505092915050565b600061124382611489565b61124d81856114a5565b935061125d8185602086016115c5565b80840191505092915050565b60008154611276816115f8565b61128081866114a5565b9450600182166000811461129b57600181146112ac576112df565b60ff198316865281860193506112df565b6112b585611474565b60005b838110156112d7578154818901526001820191506020810190506112b8565b838801955050505b50505092915050565b60006112f5602683611494565b91507f4f776e61626c653a206e6577206f776e657220697320746865207a65726f206160008301527f64647265737300000000000000000000000000000000000000000000000000006020830152604082019050919050565b600061135b602083611494565b91507f4f776e61626c653a2063616c6c6572206973206e6f7420746865206f776e65726000830152602082019050919050565b611397816115bb565b82525050565b60006113a98285611269565b91506113b58284611238565b91508190509392505050565b60006020820190506113d660008301846111e1565b92915050565b60006020820190506113f160008301846111f0565b92915050565b6000602082019050818103600083015261141181846111ff565b905092915050565b60006020820190508181036000830152611432816112e8565b9050919050565b600060208201905081810360008301526114528161134e565b9050919050565b600060208201905061146e600083018461138e565b92915050565b60008190508160005260206000209050919050565b600081519050919050565b600082825260208201905092915050565b600081905092915050565b60006114bb826115bb565b91506114c6836115bb565b9250827fffffffffffffffffffffffffffffffffffffffffffffffffffffffffffffffff038211156114fb576114fa6116a4565b5b828201905092915050565b6000611511826115bb565b915061151c836115bb565b92508261152c5761152b6116d3565b5b828204905092915050565b6000611542826115bb565b915061154d836115bb565b9250828210156115605761155f6116a4565b5b828203905092915050565b60006115768261159b565b9050919050565b60008115159050919050565b60006115948261156b565b9050919050565b600073ffffffffffffffffffffffffffffffffffffffff82169050919050565b6000819050919050565b60005b838110156115e35780820151818401526020810190506115c8565b838111156115f2576000848401525b50505050565b6000600282049050600182168061161057607f821691505b6020821081141561162457611623611702565b5b50919050565b6000611635826115bb565b91507fffffffffffffffffffffffffffffffffffffffffffffffffffffffffffffffff821415611668576116676116a4565b5b600182019050919050565b600061167e826115bb565b9150611689836115bb565b925082611699576116986116d3565b5b828206905092915050565b7f4e487b7100000000000000000000000000000000000000000000000000000000600052601160045260246000fd5b7f4e487b7100000000000000000000000000000000000000000000000000000000600052601260045260246000fd5b7f4e487b7100000000000000000000000000000000000000000000000000000000600052602260045260246000fd5b6000601f19601f8301169050919050565b61174b8161156b565b811461175657600080fd5b50565b61176281611589565b811461176d57600080fd5b50565b611779816115bb565b811461178457600080fd5b5056fea2646970667358221220681653221b5ebe83ac55e46d70bb3406a88bda25f3fee5c77506951b4c42aa1264736f6c6343000800003368747470733a2f2f6372656174757265732d6170692e6f70656e7365612e696f2f6170692f666163746f72792f",
  "immutableReferences": {},
  "source": "// SPDX-License-Identifier: MIT\n\npragma solidity ^0.8.0;\n\n// import \"openzeppelin-solidity/contracts/access/Ownable.sol\";\n// import \"openzeppelin-solidity/contracts/utils/Strings.sol\";\nimport \"@openzeppelin/contracts/access/Ownable.sol\";\nimport \"@openzeppelin/contracts/utils/Strings.sol\";\nimport \"./IFactoryERC721.sol\";\nimport \"./BullTycoons.sol\";\n\ncontract BullTycoonsFactory is FactoryERC721, Ownable {\n    using Strings for string;\n\n    event Transfer(\n        address indexed from,\n        address indexed to,\n        uint256 indexed tokenId\n    );\n\n    address public proxyRegistryAddress;\n    address public nftAddress;\n    string public baseURI = \"https://creatures-api.opensea.io/api/factory/\";\n\n    /*\n     * Enforce the existence of only 1000 BullTycoons .\n     */\n    uint256 CREATURE_SUPPLY = 1000;\n\n    /*\n     * Three different options for minting BullTycoons (basic, premium, and gold).\n     */\n    uint256 NUM_OPTIONS = 3;\n    uint256 SINGLE_CREATURE_OPTION = 0;\n    uint256 MULTIPLE_CREATURE_OPTION = 1;\n    uint256 NUM_CREATURES_IN_MULTIPLE_CREATURE_OPTION = 4;\n\n    constructor(address _proxyRegistryAddress, address _nftAddress) {\n        proxyRegistryAddress = _proxyRegistryAddress;\n        nftAddress = _nftAddress;\n\n        fireTransferEvents(address(0), owner());\n    }\n\n    function setMaxSupply(uint256 _maxSupply) public onlyOwner() {\n        CREATURE_SUPPLY = _maxSupply;\n    }\n\n    function name() override external pure returns (string memory) {\n        return \"BullTycoons Item Sale\";\n    }\n\n    function symbol() override external pure returns (string memory) {\n        return \"CPF\";\n    }\n\n    function supportsFactoryInterface() override public pure returns (bool) {\n        return true;\n    }\n\n    function numOptions() override public view returns (uint256) {\n        return NUM_OPTIONS;\n    }\n\n    function transferOwnership(address newOwner) override public onlyOwner {\n        address _prevOwner = owner();\n        super.transferOwnership(newOwner);\n        fireTransferEvents(_prevOwner, newOwner);\n    }\n\n    function fireTransferEvents(address _from, address _to) private {\n        for (uint256 i = 0; i < NUM_OPTIONS; i++) {\n            emit Transfer(_from, _to, i);\n        }\n    }\n\n    function mint(uint256 _optionId, address _toAddress) override public {\n        // Must be sent from the owner proxy or owner.\n        ProxyRegistry proxyRegistry = ProxyRegistry(proxyRegistryAddress);\n        assert(\n            address(proxyRegistry.proxies(owner())) == _msgSender() ||\n                owner() == _msgSender()\n        );\n        require(canMint(_optionId));\n\n        BullTycoons openSeaBullTycoons = BullTycoons(nftAddress);\n        if (_optionId == SINGLE_CREATURE_OPTION) {\n            openSeaBullTycoons.mintTo(_toAddress);\n        } else if (_optionId == MULTIPLE_CREATURE_OPTION) {\n            for (\n                uint256 i = 0;\n                i < NUM_CREATURES_IN_MULTIPLE_CREATURE_OPTION;\n                i++\n            ) {\n                openSeaBullTycoons.mintTo(_toAddress);\n            }\n        }\n    }\n\n    function canMint(uint256 _optionId) override public view returns (bool) {\n        if (_optionId >= NUM_OPTIONS) {\n            return false;\n        }\n\n        BullTycoons openSeaBullTycoons = BullTycoons(nftAddress);\n        uint256 creatureSupply = openSeaBullTycoons.totalSupply();\n\n        uint256 numItemsAllocated = 0;\n        if (_optionId == SINGLE_CREATURE_OPTION) {\n            numItemsAllocated = 1;\n        } else if (_optionId == MULTIPLE_CREATURE_OPTION) {\n            numItemsAllocated = NUM_CREATURES_IN_MULTIPLE_CREATURE_OPTION;\n        }\n        return creatureSupply < (CREATURE_SUPPLY - numItemsAllocated);\n    }\n\n    function tokenURI(uint256 _optionId) override external view returns (string memory) {\n        return string(abi.encodePacked(baseURI, Strings.toString(_optionId)));\n    }\n\n    /**\n     * Hack to get things to work automatically on OpenSea.\n     * Use transferFrom so the frontend doesn't have to worry about different method names.\n     */\n    function transferFrom(\n        address _from,\n        address _to,\n        uint256 _tokenId\n    ) public {\n        mint(_tokenId, _to);\n    }\n\n    /**\n     * Hack to get things to work automatically on OpenSea.\n     * Use isApprovedForAll so the frontend doesn't have to worry about different method names.\n     */\n    function isApprovedForAll(address _owner, address _operator)\n        public\n        view\n        returns (bool)\n    {\n        if (owner() == _owner && _owner == _operator) {\n            return true;\n        }\n\n        ProxyRegistry proxyRegistry = ProxyRegistry(proxyRegistryAddress);\n        if (\n            owner() == _owner &&\n            address(proxyRegistry.proxies(_owner)) == _operator\n        ) {\n            return true;\n        }\n\n        return false;\n    }\n\n    /**\n     * Hack to get things to work automatically on OpenSea.\n     * Use isApprovedForAll so the frontend doesn't have to worry about different method names.\n     */\n    function ownerOf(uint256 _tokenId) public view returns (address _owner) {\n        return owner();\n    }\n}\n",
  "sourcePath": "/Users/olayinkaokewale/Documents/bull_nft/bulltycoons_contracts/contracts/BullTycoonsFactory.sol",
  "compiler": {
    "name": "solc",
    "version": "0.8.0+commit.c7dfd78e.Emscripten.clang"
  },
  "schemaVersion": "3.3.2",
  "updatedAt": "2021-10-10T23:44:21.527Z",
  "networkType": "ethereum",
  "devdoc": {
    "kind": "dev",
    "methods": {
      "canMint(uint256)": {
        "details": "Returns whether the option ID can be minted. Can return false if the developer wishes to restrict a total supply per option ID (or overall)."
      },
      "mint(uint256,address)": {
        "details": "Mints asset(s) in accordance to a specific address with a particular \"option\". This should be callable only by the contract owner or the owner's Wyvern Proxy (later universal login will solve this). Options should also be delineated 0 - (numOptions() - 1) for convenient indexing.",
        "params": {
          "_optionId": "the option id",
          "_toAddress": "address of the future owner of the asset(s)"
        }
      },
      "owner()": {
        "details": "Returns the address of the current owner."
      },
      "renounceOwnership()": {
        "details": "Leaves the contract without owner. It will not be possible to call `onlyOwner` functions anymore. Can only be called by the current owner. NOTE: Renouncing ownership will leave the contract without an owner, thereby removing any functionality that is only available to the owner."
      },
      "tokenURI(uint256)": {
        "details": "Returns a URL specifying some metadata about the option. This metadata can be of the same structure as the ERC721 metadata."
      },
      "transferOwnership(address)": {
        "details": "Transfers ownership of the contract to a new account (`newOwner`). Can only be called by the current owner."
      }
    },
    "version": 1
  },
  "userdoc": {
    "kind": "user",
    "methods": {
      "isApprovedForAll(address,address)": {
        "notice": "Hack to get things to work automatically on OpenSea. Use isApprovedForAll so the frontend doesn't have to worry about different method names."
      },
      "name()": {
        "notice": "Returns the name of this factory."
      },
      "numOptions()": {
        "notice": "Number of options the factory supports."
      },
      "ownerOf(uint256)": {
        "notice": "Hack to get things to work automatically on OpenSea. Use isApprovedForAll so the frontend doesn't have to worry about different method names."
      },
      "supportsFactoryInterface()": {
        "notice": "Indicates that this is a factory contract. Ideally would use EIP 165 supportsInterface()"
      },
      "symbol()": {
        "notice": "Returns the symbol for this factory."
      },
      "transferFrom(address,address,uint256)": {
        "notice": "Hack to get things to work automatically on OpenSea. Use transferFrom so the frontend doesn't have to worry about different method names."
      }
    },
    "version": 1
  }
}