{
  "contractName": "BullTycoons",
  "abi": [
    {
      "inputs": [
        {
          "internalType": "address",
          "name": "_proxyRegistryAddress",
          "type": "address"
        },
        {
          "internalType": "string",
          "name": "_baseTokenUri",
          "type": "string"
        },
        {
          "internalType": "string",
          "name": "_contractUri",
          "type": "string"
        }
      ],
      "stateMutability": "nonpayable",
      "type": "constructor"
    },
    {
      "anonymous": false,
      "inputs": [
        {
          "indexed": true,
          "internalType": "address",
          "name": "owner",
          "type": "address"
        },
        {
          "indexed": true,
          "internalType": "address",
          "name": "approved",
          "type": "address"
        },
        {
          "indexed": true,
          "internalType": "uint256",
          "name": "tokenId",
          "type": "uint256"
        }
      ],
      "name": "Approval",
      "type": "event"
    },
    {
      "anonymous": false,
      "inputs": [
        {
          "indexed": true,
          "internalType": "address",
          "name": "owner",
          "type": "address"
        },
        {
          "indexed": true,
          "internalType": "address",
          "name": "operator",
          "type": "address"
        },
        {
          "indexed": false,
          "internalType": "bool",
          "name": "approved",
          "type": "bool"
        }
      ],
      "name": "ApprovalForAll",
      "type": "event"
    },
    {
      "anonymous": false,
      "inputs": [
        {
          "indexed": true,
          "internalType": "uint256",
          "name": "_tokenId",
          "type": "uint256"
        }
      ],
      "name": "BridgeBurn",
      "type": "event"
    },
    {
      "anonymous": false,
      "inputs": [
        {
          "indexed": false,
          "internalType": "address",
          "name": "_address",
          "type": "address"
        },
        {
          "indexed": true,
          "internalType": "uint256",
          "name": "_tokenId",
          "type": "uint256"
        }
      ],
      "name": "BridgeMint",
      "type": "event"
    },
    {
      "anonymous": false,
      "inputs": [
        {
          "indexed": false,
          "internalType": "address",
          "name": "userAddress",
          "type": "address"
        },
        {
          "indexed": false,
          "internalType": "address payable",
          "name": "relayerAddress",
          "type": "address"
        },
        {
          "indexed": false,
          "internalType": "bytes",
          "name": "functionSignature",
          "type": "bytes"
        }
      ],
      "name": "MetaTransactionExecuted",
      "type": "event"
    },
    {
      "anonymous": false,
      "inputs": [
        {
          "indexed": true,
          "internalType": "address",
          "name": "previousOwner",
          "type": "address"
        },
        {
          "indexed": true,
          "internalType": "address",
          "name": "newOwner",
          "type": "address"
        }
      ],
      "name": "OwnershipTransferred",
      "type": "event"
    },
    {
      "anonymous": false,
      "inputs": [
        {
          "indexed": true,
          "internalType": "address",
          "name": "from",
          "type": "address"
        },
        {
          "indexed": true,
          "internalType": "address",
          "name": "to",
          "type": "address"
        },
        {
          "indexed": true,
          "internalType": "uint256",
          "name": "tokenId",
          "type": "uint256"
        }
      ],
      "name": "Transfer",
      "type": "event"
    },
    {
      "inputs": [],
      "name": "ERC712_VERSION",
      "outputs": [
        {
          "internalType": "string",
          "name": "",
          "type": "string"
        }
      ],
      "stateMutability": "view",
      "type": "function",
      "constant": true
    },
    {
      "inputs": [
        {
          "internalType": "address",
          "name": "to",
          "type": "address"
        },
        {
          "internalType": "uint256",
          "name": "tokenId",
          "type": "uint256"
        }
      ],
      "name": "approve",
      "outputs": [],
      "stateMutability": "nonpayable",
      "type": "function"
    },
    {
      "inputs": [
        {
          "internalType": "address",
          "name": "owner",
          "type": "address"
        }
      ],
      "name": "balanceOf",
      "outputs": [
        {
          "internalType": "uint256",
          "name": "",
          "type": "uint256"
        }
      ],
      "stateMutability": "view",
      "type": "function",
      "constant": true
    },
    {
      "inputs": [],
      "name": "baseTokenURI",
      "outputs": [
        {
          "internalType": "string",
          "name": "",
          "type": "string"
        }
      ],
      "stateMutability": "view",
      "type": "function",
      "constant": true
    },
    {
      "inputs": [],
      "name": "bridgeAddress",
      "outputs": [
        {
          "internalType": "address",
          "name": "",
          "type": "address"
        }
      ],
      "stateMutability": "view",
      "type": "function",
      "constant": true
    },
    {
      "inputs": [],
      "name": "contractURI",
      "outputs": [
        {
          "internalType": "string",
          "name": "",
          "type": "string"
        }
      ],
      "stateMutability": "view",
      "type": "function",
      "constant": true
    },
    {
      "inputs": [
        {
          "internalType": "address",
          "name": "userAddress",
          "type": "address"
        },
        {
          "internalType": "bytes",
          "name": "functionSignature",
          "type": "bytes"
        },
        {
          "internalType": "bytes32",
          "name": "sigR",
          "type": "bytes32"
        },
        {
          "internalType": "bytes32",
          "name": "sigS",
          "type": "bytes32"
        },
        {
          "internalType": "uint8",
          "name": "sigV",
          "type": "uint8"
        }
      ],
      "name": "executeMetaTransaction",
      "outputs": [
        {
          "internalType": "bytes",
          "name": "",
          "type": "bytes"
        }
      ],
      "stateMutability": "payable",
      "type": "function",
      "payable": true
    },
    {
      "inputs": [
        {
          "internalType": "uint256",
          "name": "tokenId",
          "type": "uint256"
        }
      ],
      "name": "getApproved",
      "outputs": [
        {
          "internalType": "address",
          "name": "",
          "type": "address"
        }
      ],
      "stateMutability": "view",
      "type": "function",
      "constant": true
    },
    {
      "inputs": [],
      "name": "getChainId",
      "outputs": [
        {
          "internalType": "uint256",
          "name": "",
          "type": "uint256"
        }
      ],
      "stateMutability": "view",
      "type": "function",
      "constant": true
    },
    {
      "inputs": [],
      "name": "getDomainSeperator",
      "outputs": [
        {
          "internalType": "bytes32",
          "name": "",
          "type": "bytes32"
        }
      ],
      "stateMutability": "view",
      "type": "function",
      "constant": true
    },
    {
      "inputs": [
        {
          "internalType": "address",
          "name": "user",
          "type": "address"
        }
      ],
      "name": "getNonce",
      "outputs": [
        {
          "internalType": "uint256",
          "name": "nonce",
          "type": "uint256"
        }
      ],
      "stateMutability": "view",
      "type": "function",
      "constant": true
    },
    {
      "inputs": [
        {
          "internalType": "address",
          "name": "owner",
          "type": "address"
        },
        {
          "internalType": "address",
          "name": "operator",
          "type": "address"
        }
      ],
      "name": "isApprovedForAll",
      "outputs": [
        {
          "internalType": "bool",
          "name": "",
          "type": "bool"
        }
      ],
      "stateMutability": "view",
      "type": "function",
      "constant": true
    },
    {
      "inputs": [
        {
          "internalType": "address",
          "name": "_to",
          "type": "address"
        }
      ],
      "name": "mintTo",
      "outputs": [],
      "stateMutability": "nonpayable",
      "type": "function"
    },
    {
      "inputs": [],
      "name": "name",
      "outputs": [
        {
          "internalType": "string",
          "name": "",
          "type": "string"
        }
      ],
      "stateMutability": "view",
      "type": "function",
      "constant": true
    },
    {
      "inputs": [],
      "name": "owner",
      "outputs": [
        {
          "internalType": "address",
          "name": "",
          "type": "address"
        }
      ],
      "stateMutability": "view",
      "type": "function",
      "constant": true
    },
    {
      "inputs": [
        {
          "internalType": "uint256",
          "name": "tokenId",
          "type": "uint256"
        }
      ],
      "name": "ownerOf",
      "outputs": [
        {
          "internalType": "address",
          "name": "",
          "type": "address"
        }
      ],
      "stateMutability": "view",
      "type": "function",
      "constant": true
    },
    {
      "inputs": [],
      "name": "renounceOwnership",
      "outputs": [],
      "stateMutability": "nonpayable",
      "type": "function"
    },
    {
      "inputs": [
        {
          "internalType": "address",
          "name": "from",
          "type": "address"
        },
        {
          "internalType": "address",
          "name": "to",
          "type": "address"
        },
        {
          "internalType": "uint256",
          "name": "tokenId",
          "type": "uint256"
        }
      ],
      "name": "safeTransferFrom",
      "outputs": [],
      "stateMutability": "nonpayable",
      "type": "function"
    },
    {
      "inputs": [
        {
          "internalType": "address",
          "name": "from",
          "type": "address"
        },
        {
          "internalType": "address",
          "name": "to",
          "type": "address"
        },
        {
          "internalType": "uint256",
          "name": "tokenId",
          "type": "uint256"
        },
        {
          "internalType": "bytes",
          "name": "_data",
          "type": "bytes"
        }
      ],
      "name": "safeTransferFrom",
      "outputs": [],
      "stateMutability": "nonpayable",
      "type": "function"
    },
    {
      "inputs": [
        {
          "internalType": "address",
          "name": "operator",
          "type": "address"
        },
        {
          "internalType": "bool",
          "name": "approved",
          "type": "bool"
        }
      ],
      "name": "setApprovalForAll",
      "outputs": [],
      "stateMutability": "nonpayable",
      "type": "function"
    },
    {
      "inputs": [
        {
          "internalType": "bytes4",
          "name": "interfaceId",
          "type": "bytes4"
        }
      ],
      "name": "supportsInterface",
      "outputs": [
        {
          "internalType": "bool",
          "name": "",
          "type": "bool"
        }
      ],
      "stateMutability": "view",
      "type": "function",
      "constant": true
    },
    {
      "inputs": [],
      "name": "symbol",
      "outputs": [
        {
          "internalType": "string",
          "name": "",
          "type": "string"
        }
      ],
      "stateMutability": "view",
      "type": "function",
      "constant": true
    },
    {
      "inputs": [
        {
          "internalType": "uint256",
          "name": "index",
          "type": "uint256"
        }
      ],
      "name": "tokenByIndex",
      "outputs": [
        {
          "internalType": "uint256",
          "name": "",
          "type": "uint256"
        }
      ],
      "stateMutability": "view",
      "type": "function",
      "constant": true
    },
    {
      "inputs": [
        {
          "internalType": "address",
          "name": "owner",
          "type": "address"
        },
        {
          "internalType": "uint256",
          "name": "index",
          "type": "uint256"
        }
      ],
      "name": "tokenOfOwnerByIndex",
      "outputs": [
        {
          "internalType": "uint256",
          "name": "",
          "type": "uint256"
        }
      ],
      "stateMutability": "view",
      "type": "function",
      "constant": true
    },
    {
      "inputs": [
        {
          "internalType": "uint256",
          "name": "_tokenId",
          "type": "uint256"
        }
      ],
      "name": "tokenURI",
      "outputs": [
        {
          "internalType": "string",
          "name": "",
          "type": "string"
        }
      ],
      "stateMutability": "view",
      "type": "function",
      "constant": true
    },
    {
      "inputs": [],
      "name": "totalSupply",
      "outputs": [
        {
          "internalType": "uint256",
          "name": "",
          "type": "uint256"
        }
      ],
      "stateMutability": "view",
      "type": "function",
      "constant": true
    },
    {
      "inputs": [
        {
          "internalType": "address",
          "name": "from",
          "type": "address"
        },
        {
          "internalType": "address",
          "name": "to",
          "type": "address"
        },
        {
          "internalType": "uint256",
          "name": "tokenId",
          "type": "uint256"
        }
      ],
      "name": "transferFrom",
      "outputs": [],
      "stateMutability": "nonpayable",
      "type": "function"
    },
    {
      "inputs": [
        {
          "internalType": "address",
          "name": "newOwner",
          "type": "address"
        }
      ],
      "name": "transferOwnership",
      "outputs": [],
      "stateMutability": "nonpayable",
      "type": "function"
    },
    {
      "inputs": [
        {
          "internalType": "address",
          "name": "_bridgeAddress",
          "type": "address"
        }
      ],
      "name": "_setBridgeAddress",
      "outputs": [],
      "stateMutability": "nonpayable",
      "type": "function"
    },
    {
      "inputs": [
        {
          "internalType": "string",
          "name": "_baseTokenUri",
          "type": "string"
        }
      ],
      "name": "_setBaseTokenURI",
      "outputs": [],
      "stateMutability": "nonpayable",
      "type": "function"
    },
    {
      "inputs": [
        {
          "internalType": "string",
          "name": "_contractUri",
          "type": "string"
        }
      ],
      "name": "_setContractURI",
      "outputs": [],
      "stateMutability": "nonpayable",
      "type": "function"
    },
    {
      "inputs": [
        {
          "internalType": "address",
          "name": "_to",
          "type": "address"
        },
        {
          "internalType": "uint256",
          "name": "_token_id",
          "type": "uint256"
        }
      ],
      "name": "bridgeMint",
      "outputs": [],
      "stateMutability": "nonpayable",
      "type": "function"
    },
    {
      "inputs": [
        {
          "internalType": "uint256",
          "name": "_token_id",
          "type": "uint256"
        }
      ],
      "name": "bridgeBurn",
      "outputs": [],
      "stateMutability": "nonpayable",
      "type": "function"
    }
  ],
  "bytecode": "0x60806040526000600a60006101000a81548160ff0219169083151502179055506000600f553480156200003157600080fd5b5060405162005305380380620053058339818101604052810190620000579190620005b6565b6040518060400160405280600b81526020017f42756c6c5479636f6f6e730000000000000000000000000000000000000000008152506040518060400160405280600381526020017f42545900000000000000000000000000000000000000000000000000000000008152508482828160009080519060200190620000de9291906200047d565b508060019080519060200190620000f79291906200047d565b5050506200011a6200010e620001aa60201b60201c565b620001c660201b60201c565b80600e60006101000a81548173ffffffffffffffffffffffffffffffffffffffff021916908373ffffffffffffffffffffffffffffffffffffffff1602179055506200016c836200028c60201b60201c565b5050508160109080519060200190620001879291906200047d565b508060129080519060200190620001a09291906200047d565b50505050620008bb565b6000620001c16200030e60201b62001ba61760201c565b905090565b6000600d60009054906101000a900473ffffffffffffffffffffffffffffffffffffffff16905081600d60006101000a81548173ffffffffffffffffffffffffffffffffffffffff021916908373ffffffffffffffffffffffffffffffffffffffff1602179055508173ffffffffffffffffffffffffffffffffffffffff168173ffffffffffffffffffffffffffffffffffffffff167f8be0079c531659141344cd1fd0a4f28419497f9722a3daafe3b4186f6b6457e060405160405180910390a35050565b600a60009054906101000a900460ff1615620002df576040517f08c379a0000000000000000000000000000000000000000000000000000000008152600401620002d690620006ff565b60405180910390fd5b620002f081620003c160201b60201c565b6001600a60006101000a81548160ff02191690831515021790555050565b60003073ffffffffffffffffffffffffffffffffffffffff163373ffffffffffffffffffffffffffffffffffffffff161415620003ba57600080368080601f016020809104026020016040519081016040528093929190818152602001838380828437600081840152601f19601f820116905080830192505050505050509050600080369050905073ffffffffffffffffffffffffffffffffffffffff818301511692505050620003be565b3390505b90565b6040518060800160405280604f8152602001620052b6604f91398051906020012081805190602001206040518060400160405280600181526020017f31000000000000000000000000000000000000000000000000000000000000008152508051906020012030620004386200047060201b60201c565b60001b60405160200162000451959493929190620006a2565b60405160208183030381529060405280519060200120600b8190555050565b6000804690508091505090565b8280546200048b906200080d565b90600052602060002090601f016020900481019282620004af5760008555620004fb565b82601f10620004ca57805160ff1916838001178555620004fb565b82800160010185558215620004fb579182015b82811115620004fa578251825591602001919060010190620004dd565b5b5090506200050a91906200050e565b5090565b5b80821115620005295760008160009055506001016200050f565b5090565b6000620005446200053e8462000755565b62000721565b9050828152602081018484840111156200055d57600080fd5b6200056a848285620007d7565b509392505050565b6000815190506200058381620008a1565b92915050565b600082601f8301126200059b57600080fd5b8151620005ad8482602086016200052d565b91505092915050565b600080600060608486031215620005cc57600080fd5b6000620005dc8682870162000572565b935050602084015167ffffffffffffffff811115620005fa57600080fd5b620006088682870162000589565b925050604084015167ffffffffffffffff8111156200062657600080fd5b620006348682870162000589565b9150509250925092565b620006498162000799565b82525050565b6200065a81620007ad565b82525050565b60006200066f600e8362000788565b91507f616c726561647920696e697465640000000000000000000000000000000000006000830152602082019050919050565b600060a082019050620006b960008301886200064f565b620006c860208301876200064f565b620006d760408301866200064f565b620006e660608301856200063e565b620006f560808301846200064f565b9695505050505050565b600060208201905081810360008301526200071a8162000660565b9050919050565b6000604051905081810181811067ffffffffffffffff821117156200074b576200074a62000872565b5b8060405250919050565b600067ffffffffffffffff82111562000773576200077262000872565b5b601f19601f8301169050602081019050919050565b600082825260208201905092915050565b6000620007a682620007b7565b9050919050565b6000819050919050565b600073ffffffffffffffffffffffffffffffffffffffff82169050919050565b60005b83811015620007f7578082015181840152602081019050620007da565b8381111562000807576000848401525b50505050565b600060028204905060018216806200082657607f821691505b602082108114156200083d576200083c62000843565b5b50919050565b7f4e487b7100000000000000000000000000000000000000000000000000000000600052602260045260246000fd5b7f4e487b7100000000000000000000000000000000000000000000000000000000600052604160045260246000fd5b620008ac8162000799565b8114620008b857600080fd5b50565b6149eb80620008cb6000396000f3fe6080604052600436106101ee5760003560e01c8063715018a61161010d578063b88d4fde116100a0578063dcc67de91161006f578063dcc67de914610716578063e8a3d4851461073f578063e985e9c51461076a578063f2e027cb146107a7578063f2fde38b146107d0576101ee565b8063b88d4fde1461065c578063c87b56dd14610685578063c92bb9ce146106c2578063d547cfb7146106eb576101ee565b80638da5cb5b116100dc5780638da5cb5b146105b257806395d89b41146105dd578063a22cb46514610608578063a3c573eb14610631576101ee565b8063715018a614610520578063755edd17146105375780637d4aafb4146105605780638c2a993e14610589576101ee565b806323b872dd1161018557806342842e0e1161015457806342842e0e146104405780634f6ccce7146104695780636352211e146104a657806370a08231146104e3576101ee565b806323b872dd146103725780632d0335ab1461039b5780632f745c59146103d85780633408e47014610415576101ee565b80630c53c51c116101c15780630c53c51c146102c15780630f7e5970146102f157806318160ddd1461031c57806320379ee514610347576101ee565b806301ffc9a7146101f357806306fdde0314610230578063081812fc1461025b578063095ea7b314610298575b600080fd5b3480156101ff57600080fd5b5061021a60048036038101906102159190613531565b6107f9565b60405161022791906140ee565b60405180910390f35b34801561023c57600080fd5b50610245610873565b60405161025291906141d0565b60405180910390f35b34801561026757600080fd5b50610282600480360381019061027d91906135f1565b610905565b60405161028f9190614049565b60405180910390f35b3480156102a457600080fd5b506102bf60048036038101906102ba91906134f5565b61098a565b005b6102db60048036038101906102d69190613466565b610aa2565b6040516102e891906141ae565b60405180910390f35b3480156102fd57600080fd5b50610306610d14565b60405161031391906141d0565b60405180910390f35b34801561032857600080fd5b50610331610d4d565b60405161033e9190614492565b60405180910390f35b34801561035357600080fd5b5061035c610d5a565b6040516103699190614109565b60405180910390f35b34801561037e57600080fd5b5061039960048036038101906103949190613360565b610d64565b005b3480156103a757600080fd5b506103c260048036038101906103bd91906132fb565b610dc4565b6040516103cf9190614492565b60405180910390f35b3480156103e457600080fd5b506103ff60048036038101906103fa91906134f5565b610e0d565b60405161040c9190614492565b60405180910390f35b34801561042157600080fd5b5061042a610eb2565b6040516104379190614492565b60405180910390f35b34801561044c57600080fd5b5061046760048036038101906104629190613360565b610ebf565b005b34801561047557600080fd5b50610490600480360381019061048b91906135f1565b610edf565b60405161049d9190614492565b60405180910390f35b3480156104b257600080fd5b506104cd60048036038101906104c891906135f1565b610f76565b6040516104da9190614049565b60405180910390f35b3480156104ef57600080fd5b5061050a600480360381019061050591906132fb565b611028565b6040516105179190614492565b60405180910390f35b34801561052c57600080fd5b506105356110e0565b005b34801561054357600080fd5b5061055e600480360381019061055991906132fb565b611168565b005b34801561056c57600080fd5b50610587600480360381019061058291906135ac565b611206565b005b34801561059557600080fd5b506105b060048036038101906105ab91906134f5565b611298565b005b3480156105be57600080fd5b506105c7611375565b6040516105d49190614049565b60405180910390f35b3480156105e957600080fd5b506105f261139f565b6040516105ff91906141d0565b60405180910390f35b34801561061457600080fd5b5061062f600480360381019061062a919061342a565b611431565b005b34801561063d57600080fd5b506106466115b2565b6040516106539190614049565b60405180910390f35b34801561066857600080fd5b50610683600480360381019061067e91906133af565b6115d8565b005b34801561069157600080fd5b506106ac60048036038101906106a791906135f1565b61163a565b6040516106b991906141d0565b60405180910390f35b3480156106ce57600080fd5b506106e960048036038101906106e491906135ac565b61166e565b005b3480156106f757600080fd5b50610700611700565b60405161070d91906141d0565b60405180910390f35b34801561072257600080fd5b5061073d600480360381019061073891906135f1565b61178e565b005b34801561074b57600080fd5b5061075461185e565b60405161076191906141d0565b60405180910390f35b34801561077657600080fd5b50610791600480360381019061078c9190613324565b6118ec565b60405161079e91906140ee565b60405180910390f35b3480156107b357600080fd5b506107ce60048036038101906107c991906132fb565b6119ee565b005b3480156107dc57600080fd5b506107f760048036038101906107f291906132fb565b611aae565b005b60007f780e9d63000000000000000000000000000000000000000000000000000000007bffffffffffffffffffffffffffffffffffffffffffffffffffffffff1916827bffffffffffffffffffffffffffffffffffffffffffffffffffffffff1916148061086c575061086b82611c57565b5b9050919050565b6060600080546108829061471d565b80601f01602080910402602001604051908101604052809291908181526020018280546108ae9061471d565b80156108fb5780601f106108d0576101008083540402835291602001916108fb565b820191906000526020600020905b8154815290600101906020018083116108de57829003601f168201915b5050505050905090565b600061091082611d39565b61094f576040517f08c379a0000000000000000000000000000000000000000000000000000000008152600401610946906143b2565b60405180910390fd5b6004600083815260200190815260200160002060009054906101000a900473ffffffffffffffffffffffffffffffffffffffff169050919050565b600061099582610f76565b90508073ffffffffffffffffffffffffffffffffffffffff168373ffffffffffffffffffffffffffffffffffffffff161415610a06576040517f08c379a00000000000000000000000000000000000000000000000000000000081526004016109fd90614432565b60405180910390fd5b8073ffffffffffffffffffffffffffffffffffffffff16610a25611da5565b73ffffffffffffffffffffffffffffffffffffffff161480610a545750610a5381610a4e611da5565b6118ec565b5b610a93576040517f08c379a0000000000000000000000000000000000000000000000000000000008152600401610a8a90614332565b60405180910390fd5b610a9d8383611db4565b505050565b606060006040518060600160405280600c60008a73ffffffffffffffffffffffffffffffffffffffff1673ffffffffffffffffffffffffffffffffffffffff1681526020019081526020016000205481526020018873ffffffffffffffffffffffffffffffffffffffff168152602001878152509050610b258782878787611e6d565b610b64576040517f08c379a0000000000000000000000000000000000000000000000000000000008152600401610b5b90614412565b60405180910390fd5b610bb76001600c60008a73ffffffffffffffffffffffffffffffffffffffff1673ffffffffffffffffffffffffffffffffffffffff16815260200190815260200160002054611f7690919063ffffffff16565b600c60008973ffffffffffffffffffffffffffffffffffffffff1673ffffffffffffffffffffffffffffffffffffffff168152602001908152602001600020819055507f5845892132946850460bff5a0083f71031bc5bf9aadcd40f1de79423eac9b10b873388604051610c2d93929190614064565b60405180910390a16000803073ffffffffffffffffffffffffffffffffffffffff16888a604051602001610c62929190613fc6565b604051602081830303815290604052604051610c7e9190613faf565b6000604051808303816000865af19150503d8060008114610cbb576040519150601f19603f3d011682016040523d82523d6000602084013e610cc0565b606091505b509150915081610d05576040517f08c379a0000000000000000000000000000000000000000000000000000000008152600401610cfc90614252565b60405180910390fd5b80935050505095945050505050565b6040518060400160405280600181526020017f310000000000000000000000000000000000000000000000000000000000000081525081565b6000600880549050905090565b6000600b54905090565b610d75610d6f611da5565b82611f8c565b610db4576040517f08c379a0000000000000000000000000000000000000000000000000000000008152600401610dab90614452565b60405180910390fd5b610dbf83838361206a565b505050565b6000600c60008373ffffffffffffffffffffffffffffffffffffffff1673ffffffffffffffffffffffffffffffffffffffff168152602001908152602001600020549050919050565b6000610e1883611028565b8210610e59576040517f08c379a0000000000000000000000000000000000000000000000000000000008152600401610e50906141f2565b60405180910390fd5b600660008473ffffffffffffffffffffffffffffffffffffffff1673ffffffffffffffffffffffffffffffffffffffff168152602001908152602001600020600083815260200190815260200160002054905092915050565b6000804690508091505090565b610eda838383604051806020016040528060008152506115d8565b505050565b6000610ee9610d4d565b8210610f2a576040517f08c379a0000000000000000000000000000000000000000000000000000000008152600401610f2190614472565b60405180910390fd5b60088281548110610f64577f4e487b7100000000000000000000000000000000000000000000000000000000600052603260045260246000fd5b90600052602060002001549050919050565b6000806002600084815260200190815260200160002060009054906101000a900473ffffffffffffffffffffffffffffffffffffffff169050600073ffffffffffffffffffffffffffffffffffffffff168173ffffffffffffffffffffffffffffffffffffffff16141561101f576040517f08c379a000000000000000000000000000000000000000000000000000000000815260040161101690614372565b60405180910390fd5b80915050919050565b60008073ffffffffffffffffffffffffffffffffffffffff168273ffffffffffffffffffffffffffffffffffffffff161415611099576040517f08c379a000000000000000000000000000000000000000000000000000000000815260040161109090614352565b60405180910390fd5b600360008373ffffffffffffffffffffffffffffffffffffffff1673ffffffffffffffffffffffffffffffffffffffff168152602001908152602001600020549050919050565b6110e8611da5565b73ffffffffffffffffffffffffffffffffffffffff16611106611375565b73ffffffffffffffffffffffffffffffffffffffff161461115c576040517f08c379a0000000000000000000000000000000000000000000000000000000008152600401611153906143d2565b60405180910390fd5b61116660006122c6565b565b611170611da5565b73ffffffffffffffffffffffffffffffffffffffff1661118e611375565b73ffffffffffffffffffffffffffffffffffffffff16146111e4576040517f08c379a00000000000000000000000000000000000000000000000000000000081526004016111db906143d2565b60405180910390fd5b60006111ee61238c565b90506111fa82826123a9565b611202612577565b5050565b61120e611da5565b73ffffffffffffffffffffffffffffffffffffffff1661122c611375565b73ffffffffffffffffffffffffffffffffffffffff1614611282576040517f08c379a0000000000000000000000000000000000000000000000000000000008152600401611279906143d2565b60405180910390fd5b8181601091906112939291906130fe565b505050565b6112a0611da5565b73ffffffffffffffffffffffffffffffffffffffff16601160009054906101000a900473ffffffffffffffffffffffffffffffffffffffff1673ffffffffffffffffffffffffffffffffffffffff161461132f576040517f08c379a000000000000000000000000000000000000000000000000000000000815260040161132690614292565b60405180910390fd5b6113398282612591565b807f397b33b307fc137878ebfc75b295289ec0ee25a31bb5bf034f33256fe8ea2aa6836040516113699190614049565b60405180910390a25050565b6000600d60009054906101000a900473ffffffffffffffffffffffffffffffffffffffff16905090565b6060600180546113ae9061471d565b80601f01602080910402602001604051908101604052809291908181526020018280546113da9061471d565b80156114275780601f106113fc57610100808354040283529160200191611427565b820191906000526020600020905b81548152906001019060200180831161140a57829003601f168201915b5050505050905090565b611439611da5565b73ffffffffffffffffffffffffffffffffffffffff168273ffffffffffffffffffffffffffffffffffffffff1614156114a7576040517f08c379a000000000000000000000000000000000000000000000000000000000815260040161149e906142d2565b60405180910390fd5b80600560006114b4611da5565b73ffffffffffffffffffffffffffffffffffffffff1673ffffffffffffffffffffffffffffffffffffffff16815260200190815260200160002060008473ffffffffffffffffffffffffffffffffffffffff1673ffffffffffffffffffffffffffffffffffffffff16815260200190815260200160002060006101000a81548160ff0219169083151502179055508173ffffffffffffffffffffffffffffffffffffffff16611561611da5565b73ffffffffffffffffffffffffffffffffffffffff167f17307eab39ab6107e8899845ad3d59bd9653f200f220920489ca2b5937696c31836040516115a691906140ee565b60405180910390a35050565b601160009054906101000a900473ffffffffffffffffffffffffffffffffffffffff1681565b6115e96115e3611da5565b83611f8c565b611628576040517f08c379a000000000000000000000000000000000000000000000000000000000815260040161161f90614452565b60405180910390fd5b611634848484846125af565b50505050565b606060106116478361260b565b604051602001611658929190613fee565b6040516020818303038152906040529050919050565b611676611da5565b73ffffffffffffffffffffffffffffffffffffffff16611694611375565b73ffffffffffffffffffffffffffffffffffffffff16146116ea576040517f08c379a00000000000000000000000000000000000000000000000000000000081526004016116e1906143d2565b60405180910390fd5b8181601291906116fb9291906130fe565b505050565b6010805461170d9061471d565b80601f01602080910402602001604051908101604052809291908181526020018280546117399061471d565b80156117865780601f1061175b57610100808354040283529160200191611786565b820191906000526020600020905b81548152906001019060200180831161176957829003601f168201915b505050505081565b611796611da5565b73ffffffffffffffffffffffffffffffffffffffff16601160009054906101000a900473ffffffffffffffffffffffffffffffffffffffff1673ffffffffffffffffffffffffffffffffffffffff1614611825576040517f08c379a000000000000000000000000000000000000000000000000000000000815260040161181c90614292565b60405180910390fd5b61182e816127b8565b807f9ad48bf375c2916ebcf58df5438771990ce83cb6bbc6838c35c1be558575310060405160405180910390a250565b6012805461186b9061471d565b80601f01602080910402602001604051908101604052809291908181526020018280546118979061471d565b80156118e45780601f106118b9576101008083540402835291602001916118e4565b820191906000526020600020905b8154815290600101906020018083116118c757829003601f168201915b505050505081565b600080600e60009054906101000a900473ffffffffffffffffffffffffffffffffffffffff1690508273ffffffffffffffffffffffffffffffffffffffff168173ffffffffffffffffffffffffffffffffffffffff1663c4552791866040518263ffffffff1660e01b81526004016119649190614049565b60206040518083038186803b15801561197c57600080fd5b505afa158015611990573d6000803e3d6000fd5b505050506040513d601f19601f820116820180604052508101906119b49190613583565b73ffffffffffffffffffffffffffffffffffffffff1614156119da5760019150506119e8565b6119e484846128c9565b9150505b92915050565b6119f6611da5565b73ffffffffffffffffffffffffffffffffffffffff16611a14611375565b73ffffffffffffffffffffffffffffffffffffffff1614611a6a576040517f08c379a0000000000000000000000000000000000000000000000000000000008152600401611a61906143d2565b60405180910390fd5b80601160006101000a81548173ffffffffffffffffffffffffffffffffffffffff021916908373ffffffffffffffffffffffffffffffffffffffff16021790555050565b611ab6611da5565b73ffffffffffffffffffffffffffffffffffffffff16611ad4611375565b73ffffffffffffffffffffffffffffffffffffffff1614611b2a576040517f08c379a0000000000000000000000000000000000000000000000000000000008152600401611b21906143d2565b60405180910390fd5b600073ffffffffffffffffffffffffffffffffffffffff168173ffffffffffffffffffffffffffffffffffffffff161415611b9a576040517f08c379a0000000000000000000000000000000000000000000000000000000008152600401611b9190614232565b60405180910390fd5b611ba3816122c6565b50565b60003073ffffffffffffffffffffffffffffffffffffffff163373ffffffffffffffffffffffffffffffffffffffff161415611c5057600080368080601f016020809104026020016040519081016040528093929190818152602001838380828437600081840152601f19601f820116905080830192505050505050509050600080369050905073ffffffffffffffffffffffffffffffffffffffff818301511692505050611c54565b3390505b90565b60007f80ac58cd000000000000000000000000000000000000000000000000000000007bffffffffffffffffffffffffffffffffffffffffffffffffffffffff1916827bffffffffffffffffffffffffffffffffffffffffffffffffffffffff19161480611d2257507f5b5e139f000000000000000000000000000000000000000000000000000000007bffffffffffffffffffffffffffffffffffffffffffffffffffffffff1916827bffffffffffffffffffffffffffffffffffffffffffffffffffffffff1916145b80611d325750611d318261295d565b5b9050919050565b60008073ffffffffffffffffffffffffffffffffffffffff166002600084815260200190815260200160002060009054906101000a900473ffffffffffffffffffffffffffffffffffffffff1673ffffffffffffffffffffffffffffffffffffffff1614159050919050565b6000611daf611ba6565b905090565b816004600083815260200190815260200160002060006101000a81548173ffffffffffffffffffffffffffffffffffffffff021916908373ffffffffffffffffffffffffffffffffffffffff160217905550808273ffffffffffffffffffffffffffffffffffffffff16611e2783610f76565b73ffffffffffffffffffffffffffffffffffffffff167f8c5be1e5ebec7d5bd14f71427d1e84f3dd0314c0f7b2291e5b200ac8c7c3b92560405160405180910390a45050565b60008073ffffffffffffffffffffffffffffffffffffffff168673ffffffffffffffffffffffffffffffffffffffff161415611ede576040517f08c379a0000000000000000000000000000000000000000000000000000000008152600401611ed590614312565b60405180910390fd5b6001611ef1611eec876129c7565b612a2f565b83868660405160008152602001604052604051611f119493929190614169565b6020604051602081039080840390855afa158015611f33573d6000803e3d6000fd5b5050506020604051035173ffffffffffffffffffffffffffffffffffffffff168673ffffffffffffffffffffffffffffffffffffffff1614905095945050505050565b60008183611f849190614571565b905092915050565b6000611f9782611d39565b611fd6576040517f08c379a0000000000000000000000000000000000000000000000000000000008152600401611fcd906142f2565b60405180910390fd5b6000611fe183610f76565b90508073ffffffffffffffffffffffffffffffffffffffff168473ffffffffffffffffffffffffffffffffffffffff16148061205057508373ffffffffffffffffffffffffffffffffffffffff1661203884610905565b73ffffffffffffffffffffffffffffffffffffffff16145b80612061575061206081856118ec565b5b91505092915050565b8273ffffffffffffffffffffffffffffffffffffffff1661208a82610f76565b73ffffffffffffffffffffffffffffffffffffffff16146120e0576040517f08c379a00000000000000000000000000000000000000000000000000000000081526004016120d7906143f2565b60405180910390fd5b600073ffffffffffffffffffffffffffffffffffffffff168273ffffffffffffffffffffffffffffffffffffffff161415612150576040517f08c379a0000000000000000000000000000000000000000000000000000000008152600401612147906142b2565b60405180910390fd5b61215b838383612a68565b612166600082611db4565b6001600360008573ffffffffffffffffffffffffffffffffffffffff1673ffffffffffffffffffffffffffffffffffffffff16815260200190815260200160002060008282546121b691906145f8565b925050819055506001600360008473ffffffffffffffffffffffffffffffffffffffff1673ffffffffffffffffffffffffffffffffffffffff168152602001908152602001600020600082825461220d9190614571565b92505081905550816002600083815260200190815260200160002060006101000a81548173ffffffffffffffffffffffffffffffffffffffff021916908373ffffffffffffffffffffffffffffffffffffffff160217905550808273ffffffffffffffffffffffffffffffffffffffff168473ffffffffffffffffffffffffffffffffffffffff167fddf252ad1be2c89b69c2b068fc378daa952ba7f163c4a11628f55a4df523b3ef60405160405180910390a4505050565b6000600d60009054906101000a900473ffffffffffffffffffffffffffffffffffffffff16905081600d60006101000a81548173ffffffffffffffffffffffffffffffffffffffff021916908373ffffffffffffffffffffffffffffffffffffffff1602179055508173ffffffffffffffffffffffffffffffffffffffff168173ffffffffffffffffffffffffffffffffffffffff167f8be0079c531659141344cd1fd0a4f28419497f9722a3daafe3b4186f6b6457e060405160405180910390a35050565b60006123a46001600f54611f7690919063ffffffff16565b905090565b600073ffffffffffffffffffffffffffffffffffffffff168273ffffffffffffffffffffffffffffffffffffffff161415612419576040517f08c379a000000000000000000000000000000000000000000000000000000000815260040161241090614392565b60405180910390fd5b61242281611d39565b15612462576040517f08c379a000000000000000000000000000000000000000000000000000000000815260040161245990614272565b60405180910390fd5b61246e60008383612a68565b6001600360008473ffffffffffffffffffffffffffffffffffffffff1673ffffffffffffffffffffffffffffffffffffffff16815260200190815260200160002060008282546124be9190614571565b92505081905550816002600083815260200190815260200160002060006101000a81548173ffffffffffffffffffffffffffffffffffffffff021916908373ffffffffffffffffffffffffffffffffffffffff160217905550808273ffffffffffffffffffffffffffffffffffffffff16600073ffffffffffffffffffffffffffffffffffffffff167fddf252ad1be2c89b69c2b068fc378daa952ba7f163c4a11628f55a4df523b3ef60405160405180910390a45050565b600f600081548092919061258a9061474f565b9190505550565b6125ab828260405180602001604052806000815250612b7c565b5050565b6125ba84848461206a565b6125c684848484612bd7565b612605576040517f08c379a00000000000000000000000000000000000000000000000000000000081526004016125fc90614212565b60405180910390fd5b50505050565b60606000821415612653576040518060400160405280600181526020017f300000000000000000000000000000000000000000000000000000000000000081525090506127b3565b600082905060005b6000821461268557808061266e9061474f565b915050600a8261267e91906145c7565b915061265b565b60008167ffffffffffffffff8111156126c7577f4e487b7100000000000000000000000000000000000000000000000000000000600052604160045260246000fd5b6040519080825280601f01601f1916602001820160405280156126f95781602001600182028036833780820191505090505b5090505b600085146127ac5760018261271291906145f8565b9150600a8561272191906147c6565b603061272d9190614571565b60f81b818381518110612769577f4e487b7100000000000000000000000000000000000000000000000000000000600052603260045260246000fd5b60200101907effffffffffffffffffffffffffffffffffffffffffffffffffffffffffffff1916908160001a905350600a856127a591906145c7565b94506126fd565b8093505050505b919050565b60006127c382610f76565b90506127d181600084612a68565b6127dc600083611db4565b6001600360008373ffffffffffffffffffffffffffffffffffffffff1673ffffffffffffffffffffffffffffffffffffffff168152602001908152602001600020600082825461282c91906145f8565b925050819055506002600083815260200190815260200160002060006101000a81549073ffffffffffffffffffffffffffffffffffffffff021916905581600073ffffffffffffffffffffffffffffffffffffffff168273ffffffffffffffffffffffffffffffffffffffff167fddf252ad1be2c89b69c2b068fc378daa952ba7f163c4a11628f55a4df523b3ef60405160405180910390a45050565b6000600560008473ffffffffffffffffffffffffffffffffffffffff1673ffffffffffffffffffffffffffffffffffffffff16815260200190815260200160002060008373ffffffffffffffffffffffffffffffffffffffff1673ffffffffffffffffffffffffffffffffffffffff16815260200190815260200160002060009054906101000a900460ff16905092915050565b60007f01ffc9a7000000000000000000000000000000000000000000000000000000007bffffffffffffffffffffffffffffffffffffffffffffffffffffffff1916827bffffffffffffffffffffffffffffffffffffffffffffffffffffffff1916149050919050565b6000604051806080016040528060438152602001614973604391398051906020012082600001518360200151846040015180519060200120604051602001612a129493929190614124565b604051602081830303815290604052805190602001209050919050565b6000612a39610d5a565b82604051602001612a4b929190614012565b604051602081830303815290604052805190602001209050919050565b612a73838383612d6e565b600073ffffffffffffffffffffffffffffffffffffffff168373ffffffffffffffffffffffffffffffffffffffff161415612ab657612ab181612d73565b612af5565b8173ffffffffffffffffffffffffffffffffffffffff168373ffffffffffffffffffffffffffffffffffffffff1614612af457612af38382612dbc565b5b5b600073ffffffffffffffffffffffffffffffffffffffff168273ffffffffffffffffffffffffffffffffffffffff161415612b3857612b3381612f29565b612b77565b8273ffffffffffffffffffffffffffffffffffffffff168273ffffffffffffffffffffffffffffffffffffffff1614612b7657612b75828261306c565b5b5b505050565b612b8683836123a9565b612b936000848484612bd7565b612bd2576040517f08c379a0000000000000000000000000000000000000000000000000000000008152600401612bc990614212565b60405180910390fd5b505050565b6000612bf88473ffffffffffffffffffffffffffffffffffffffff166130eb565b15612d61578373ffffffffffffffffffffffffffffffffffffffff1663150b7a02612c21611da5565b8786866040518563ffffffff1660e01b8152600401612c4394939291906140a2565b602060405180830381600087803b158015612c5d57600080fd5b505af1925050508015612c8e57506040513d601f19601f82011682018060405250810190612c8b919061355a565b60015b612d11573d8060008114612cbe576040519150601f19603f3d011682016040523d82523d6000602084013e612cc3565b606091505b50600081511415612d09576040517f08c379a0000000000000000000000000000000000000000000000000000000008152600401612d0090614212565b60405180910390fd5b805181602001fd5b63150b7a0260e01b7bffffffffffffffffffffffffffffffffffffffffffffffffffffffff1916817bffffffffffffffffffffffffffffffffffffffffffffffffffffffff191614915050612d66565b600190505b949350505050565b505050565b6008805490506009600083815260200190815260200160002081905550600881908060018154018082558091505060019003906000526020600020016000909190919091505550565b60006001612dc984611028565b612dd391906145f8565b9050600060076000848152602001908152602001600020549050818114612eb8576000600660008673ffffffffffffffffffffffffffffffffffffffff1673ffffffffffffffffffffffffffffffffffffffff168152602001908152602001600020600084815260200190815260200160002054905080600660008773ffffffffffffffffffffffffffffffffffffffff1673ffffffffffffffffffffffffffffffffffffffff168152602001908152602001600020600084815260200190815260200160002081905550816007600083815260200190815260200160002081905550505b6007600084815260200190815260200160002060009055600660008573ffffffffffffffffffffffffffffffffffffffff1673ffffffffffffffffffffffffffffffffffffffff16815260200190815260200160002060008381526020019081526020016000206000905550505050565b60006001600880549050612f3d91906145f8565b9050600060096000848152602001908152602001600020549050600060088381548110612f93577f4e487b7100000000000000000000000000000000000000000000000000000000600052603260045260246000fd5b906000526020600020015490508060088381548110612fdb577f4e487b7100000000000000000000000000000000000000000000000000000000600052603260045260246000fd5b906000526020600020018190555081600960008381526020019081526020016000208190555060096000858152602001908152602001600020600090556008805480613050577f4e487b7100000000000000000000000000000000000000000000000000000000600052603160045260246000fd5b6001900381819060005260206000200160009055905550505050565b600061307783611028565b905081600660008573ffffffffffffffffffffffffffffffffffffffff1673ffffffffffffffffffffffffffffffffffffffff168152602001908152602001600020600083815260200190815260200160002081905550806007600084815260200190815260200160002081905550505050565b600080823b905060008111915050919050565b82805461310a9061471d565b90600052602060002090601f01602090048101928261312c5760008555613173565b82601f1061314557803560ff1916838001178555613173565b82800160010185558215613173579182015b82811115613172578235825591602001919060010190613157565b5b5090506131809190613184565b5090565b5b8082111561319d576000816000905550600101613185565b5090565b60006131b46131af846144de565b6144ad565b9050828152602081018484840111156131cc57600080fd5b6131d78482856146db565b509392505050565b6000813590506131ee816148d1565b92915050565b600081359050613203816148e8565b92915050565b600081359050613218816148ff565b92915050565b60008135905061322d81614916565b92915050565b60008151905061324281614916565b92915050565b600082601f83011261325957600080fd5b81356132698482602086016131a1565b91505092915050565b6000815190506132818161492d565b92915050565b60008083601f84011261329957600080fd5b8235905067ffffffffffffffff8111156132b257600080fd5b6020830191508360018202830111156132ca57600080fd5b9250929050565b6000813590506132e081614944565b92915050565b6000813590506132f58161495b565b92915050565b60006020828403121561330d57600080fd5b600061331b848285016131df565b91505092915050565b6000806040838503121561333757600080fd5b6000613345858286016131df565b9250506020613356858286016131df565b9150509250929050565b60008060006060848603121561337557600080fd5b6000613383868287016131df565b9350506020613394868287016131df565b92505060406133a5868287016132d1565b9150509250925092565b600080600080608085870312156133c557600080fd5b60006133d3878288016131df565b94505060206133e4878288016131df565b93505060406133f5878288016132d1565b925050606085013567ffffffffffffffff81111561341257600080fd5b61341e87828801613248565b91505092959194509250565b6000806040838503121561343d57600080fd5b600061344b858286016131df565b925050602061345c858286016131f4565b9150509250929050565b600080600080600060a0868803121561347e57600080fd5b600061348c888289016131df565b955050602086013567ffffffffffffffff8111156134a957600080fd5b6134b588828901613248565b94505060406134c688828901613209565b93505060606134d788828901613209565b92505060806134e8888289016132e6565b9150509295509295909350565b6000806040838503121561350857600080fd5b6000613516858286016131df565b9250506020613527858286016132d1565b9150509250929050565b60006020828403121561354357600080fd5b60006135518482850161321e565b91505092915050565b60006020828403121561356c57600080fd5b600061357a84828501613233565b91505092915050565b60006020828403121561359557600080fd5b60006135a384828501613272565b91505092915050565b600080602083850312156135bf57600080fd5b600083013567ffffffffffffffff8111156135d957600080fd5b6135e585828601613287565b92509250509250929050565b60006020828403121561360357600080fd5b6000613611848285016132d1565b91505092915050565b6136238161463e565b82525050565b6136328161462c565b82525050565b6136496136448261462c565b614798565b82525050565b61365881614650565b82525050565b6136678161465c565b82525050565b61367e6136798261465c565b6147aa565b82525050565b600061368f82614523565b6136998185614539565b93506136a98185602086016146ea565b6136b2816148b3565b840191505092915050565b60006136c882614523565b6136d2818561454a565b93506136e28185602086016146ea565b80840191505092915050565b60006136f98261452e565b6137038185614555565b93506137138185602086016146ea565b61371c816148b3565b840191505092915050565b60006137328261452e565b61373c8185614566565b935061374c8185602086016146ea565b80840191505092915050565b600081546137658161471d565b61376f8186614566565b9450600182166000811461378a576001811461379b576137ce565b60ff198316865281860193506137ce565b6137a48561450e565b60005b838110156137c6578154818901526001820191506020810190506137a7565b838801955050505b50505092915050565b60006137e4602b83614555565b91507f455243373231456e756d657261626c653a206f776e657220696e646578206f7560008301527f74206f6620626f756e64730000000000000000000000000000000000000000006020830152604082019050919050565b600061384a603283614555565b91507f4552433732313a207472616e7366657220746f206e6f6e20455243373231526560008301527f63656976657220696d706c656d656e74657200000000000000000000000000006020830152604082019050919050565b60006138b0602683614555565b91507f4f776e61626c653a206e6577206f776e657220697320746865207a65726f206160008301527f64647265737300000000000000000000000000000000000000000000000000006020830152604082019050919050565b6000613916601c83614555565b91507f46756e6374696f6e2063616c6c206e6f74207375636365737366756c000000006000830152602082019050919050565b6000613956601c83614555565b91507f4552433732313a20746f6b656e20616c7265616479206d696e746564000000006000830152602082019050919050565b6000613996600283614566565b91507f19010000000000000000000000000000000000000000000000000000000000006000830152600282019050919050565b60006139d6601383614555565b91507f4f6e6c79206272696467652061646472657373000000000000000000000000006000830152602082019050919050565b6000613a16602483614555565b91507f4552433732313a207472616e7366657220746f20746865207a65726f2061646460008301527f72657373000000000000000000000000000000000000000000000000000000006020830152604082019050919050565b6000613a7c601983614555565b91507f4552433732313a20617070726f766520746f2063616c6c6572000000000000006000830152602082019050919050565b6000613abc602c83614555565b91507f4552433732313a206f70657261746f7220717565727920666f72206e6f6e657860008301527f697374656e7420746f6b656e00000000000000000000000000000000000000006020830152604082019050919050565b6000613b22602583614555565b91507f4e61746976654d6574615472616e73616374696f6e3a20494e56414c49445f5360008301527f49474e45520000000000000000000000000000000000000000000000000000006020830152604082019050919050565b6000613b88603883614555565b91507f4552433732313a20617070726f76652063616c6c6572206973206e6f74206f7760008301527f6e6572206e6f7220617070726f76656420666f7220616c6c00000000000000006020830152604082019050919050565b6000613bee602a83614555565b91507f4552433732313a2062616c616e636520717565727920666f7220746865207a6560008301527f726f2061646472657373000000000000000000000000000000000000000000006020830152604082019050919050565b6000613c54602983614555565b91507f4552433732313a206f776e657220717565727920666f72206e6f6e657869737460008301527f656e7420746f6b656e00000000000000000000000000000000000000000000006020830152604082019050919050565b6000613cba602083614555565b91507f4552433732313a206d696e7420746f20746865207a65726f20616464726573736000830152602082019050919050565b6000613cfa602c83614555565b91507f4552433732313a20617070726f76656420717565727920666f72206e6f6e657860008301527f697374656e7420746f6b656e00000000000000000000000000000000000000006020830152604082019050919050565b6000613d60602083614555565b91507f4f776e61626c653a2063616c6c6572206973206e6f7420746865206f776e65726000830152602082019050919050565b6000613da0602983614555565b91507f4552433732313a207472616e73666572206f6620746f6b656e2074686174206960008301527f73206e6f74206f776e00000000000000000000000000000000000000000000006020830152604082019050919050565b6000613e06602183614555565b91507f5369676e657220616e64207369676e617475726520646f206e6f74206d61746360008301527f68000000000000000000000000000000000000000000000000000000000000006020830152604082019050919050565b6000613e6c602183614555565b91507f4552433732313a20617070726f76616c20746f2063757272656e74206f776e6560008301527f72000000000000000000000000000000000000000000000000000000000000006020830152604082019050919050565b6000613ed2603183614555565b91507f4552433732313a207472616e736665722063616c6c6572206973206e6f74206f60008301527f776e6572206e6f7220617070726f7665640000000000000000000000000000006020830152604082019050919050565b6000613f38602c83614555565b91507f455243373231456e756d657261626c653a20676c6f62616c20696e646578206f60008301527f7574206f6620626f756e647300000000000000000000000000000000000000006020830152604082019050919050565b613f9a816146c4565b82525050565b613fa9816146ce565b82525050565b6000613fbb82846136bd565b915081905092915050565b6000613fd282856136bd565b9150613fde8284613638565b6014820191508190509392505050565b6000613ffa8285613758565b91506140068284613727565b91508190509392505050565b600061401d82613989565b9150614029828561366d565b602082019150614039828461366d565b6020820191508190509392505050565b600060208201905061405e6000830184613629565b92915050565b60006060820190506140796000830186613629565b614086602083018561361a565b81810360408301526140988184613684565b9050949350505050565b60006080820190506140b76000830187613629565b6140c46020830186613629565b6140d16040830185613f91565b81810360608301526140e38184613684565b905095945050505050565b6000602082019050614103600083018461364f565b92915050565b600060208201905061411e600083018461365e565b92915050565b6000608082019050614139600083018761365e565b6141466020830186613f91565b6141536040830185613629565b614160606083018461365e565b95945050505050565b600060808201905061417e600083018761365e565b61418b6020830186613fa0565b614198604083018561365e565b6141a5606083018461365e565b95945050505050565b600060208201905081810360008301526141c88184613684565b905092915050565b600060208201905081810360008301526141ea81846136ee565b905092915050565b6000602082019050818103600083015261420b816137d7565b9050919050565b6000602082019050818103600083015261422b8161383d565b9050919050565b6000602082019050818103600083015261424b816138a3565b9050919050565b6000602082019050818103600083015261426b81613909565b9050919050565b6000602082019050818103600083015261428b81613949565b9050919050565b600060208201905081810360008301526142ab816139c9565b9050919050565b600060208201905081810360008301526142cb81613a09565b9050919050565b600060208201905081810360008301526142eb81613a6f565b9050919050565b6000602082019050818103600083015261430b81613aaf565b9050919050565b6000602082019050818103600083015261432b81613b15565b9050919050565b6000602082019050818103600083015261434b81613b7b565b9050919050565b6000602082019050818103600083015261436b81613be1565b9050919050565b6000602082019050818103600083015261438b81613c47565b9050919050565b600060208201905081810360008301526143ab81613cad565b9050919050565b600060208201905081810360008301526143cb81613ced565b9050919050565b600060208201905081810360008301526143eb81613d53565b9050919050565b6000602082019050818103600083015261440b81613d93565b9050919050565b6000602082019050818103600083015261442b81613df9565b9050919050565b6000602082019050818103600083015261444b81613e5f565b9050919050565b6000602082019050818103600083015261446b81613ec5565b9050919050565b6000602082019050818103600083015261448b81613f2b565b9050919050565b60006020820190506144a76000830184613f91565b92915050565b6000604051905081810181811067ffffffffffffffff821117156144d4576144d3614884565b5b8060405250919050565b600067ffffffffffffffff8211156144f9576144f8614884565b5b601f19601f8301169050602081019050919050565b60008190508160005260206000209050919050565b600081519050919050565b600081519050919050565b600082825260208201905092915050565b600081905092915050565b600082825260208201905092915050565b600081905092915050565b600061457c826146c4565b9150614587836146c4565b9250827fffffffffffffffffffffffffffffffffffffffffffffffffffffffffffffffff038211156145bc576145bb6147f7565b5b828201905092915050565b60006145d2826146c4565b91506145dd836146c4565b9250826145ed576145ec614826565b5b828204905092915050565b6000614603826146c4565b915061460e836146c4565b925082821015614621576146206147f7565b5b828203905092915050565b6000614637826146a4565b9050919050565b6000614649826146a4565b9050919050565b60008115159050919050565b6000819050919050565b60007fffffffff0000000000000000000000000000000000000000000000000000000082169050919050565b600061469d8261462c565b9050919050565b600073ffffffffffffffffffffffffffffffffffffffff82169050919050565b6000819050919050565b600060ff82169050919050565b82818337600083830152505050565b60005b838110156147085780820151818401526020810190506146ed565b83811115614717576000848401525b50505050565b6000600282049050600182168061473557607f821691505b6020821081141561474957614748614855565b5b50919050565b600061475a826146c4565b91507fffffffffffffffffffffffffffffffffffffffffffffffffffffffffffffffff82141561478d5761478c6147f7565b5b600182019050919050565b60006147a3826147b4565b9050919050565b6000819050919050565b60006147bf826148c4565b9050919050565b60006147d1826146c4565b91506147dc836146c4565b9250826147ec576147eb614826565b5b828206905092915050565b7f4e487b7100000000000000000000000000000000000000000000000000000000600052601160045260246000fd5b7f4e487b7100000000000000000000000000000000000000000000000000000000600052601260045260246000fd5b7f4e487b7100000000000000000000000000000000000000000000000000000000600052602260045260246000fd5b7f4e487b7100000000000000000000000000000000000000000000000000000000600052604160045260246000fd5b6000601f19601f8301169050919050565b60008160601b9050919050565b6148da8161462c565b81146148e557600080fd5b50565b6148f181614650565b81146148fc57600080fd5b50565b6149088161465c565b811461491357600080fd5b50565b61491f81614666565b811461492a57600080fd5b50565b61493681614692565b811461494157600080fd5b50565b61494d816146c4565b811461495857600080fd5b50565b614964816146ce565b811461496f57600080fd5b5056fe4d6574615472616e73616374696f6e2875696e74323536206e6f6e63652c616464726573732066726f6d2c62797465732066756e6374696f6e5369676e617475726529a2646970667358221220e7aaebd1ccc3a504c933a91c60d35a7500c5acebba040d483f4cce300e2c4daf64736f6c63430008000033454950373132446f6d61696e28737472696e67206e616d652c737472696e672076657273696f6e2c6164647265737320766572696679696e67436f6e74726163742c627974657333322073616c7429",
  "immutableReferences": {},
  "source": "// SPDX-License-Identifier: MIT\n\npragma solidity ^0.8.0;\n\nimport \"./ERC721Tradable.sol\";\n\n/**\n * @title BullTycoons\n * BullTycoons - a contract for my non-fungible creatures.\n */\ncontract BullTycoons is ERC721Tradable {\n\n    address public bridgeAddress;\n    event BridgeMint(address _address, uint256 indexed _tokenId);\n    event BridgeBurn(uint256 indexed _tokenId);\n    string public contractURI;\n\n    modifier onlyBridge() {\n        require(bridgeAddress == _msgSender(), \"Only bridge address\");\n        _;\n    }\n\n    constructor(address _proxyRegistryAddress, string memory _baseTokenUri, string memory _contractUri)\n        ERC721Tradable(\"BullTycoons\", \"BTY\", _proxyRegistryAddress)\n    {\n        baseTokenURI = _baseTokenUri;\n        contractURI = _contractUri;\n    }\n\n    function _setBridgeAddress(address _bridgeAddress) public onlyOwner() {\n        bridgeAddress = _bridgeAddress;\n    }\n\n    function _setBaseTokenURI(string calldata _baseTokenUri) public onlyOwner() {\n        baseTokenURI = _baseTokenUri;\n    }\n\n    function _setContractURI(string calldata _contractUri) public onlyOwner() {\n        contractURI = _contractUri;\n    }\n\n    /** @dev - to bridge from another network into this one \n     *  1. call bridgeBurn on the other network\n     *  2. call bridgeMint on this one\n     *  @param _to address of the account on this network to be minted to\n     *  @param _token_id id of the token coming from the other network\n    */\n    function bridgeMint(address _to, uint256 _token_id) public onlyBridge() {\n        // Mint the token and send it to the address who used the bridge.\n        _safeMint(_to, _token_id);\n        emit BridgeMint(_to, _token_id); // emit bridge mint\n    }\n\n    /** @dev - to bridge to another network from this one \n     *  1. call bridgeBurn on this network\n     *  2. call bridgeMint on the other network\n     *  @param _token_id id of the token coming from the other network\n    */\n    function bridgeBurn(uint256 _token_id) public onlyBridge() {\n        // Burn the token here on this contract\n        _burn(_token_id);\n        emit BridgeBurn(_token_id); // emit bridge burn\n    }\n\n}\n",
  "sourcePath": "/Users/olayinkaokewale/Documents/bull_nft/bulltycoons_contracts/contracts/BullTycoons.sol",
  "compiler": {
    "name": "solc",
    "version": "0.8.0+commit.c7dfd78e.Emscripten.clang"
  },
  "schemaVersion": "3.3.2",
  "updatedAt": "2021-11-10T00:51:16.926Z",
  "networkType": "ethereum",
  "devdoc": {
    "kind": "dev",
    "methods": {
      "approve(address,uint256)": {
        "details": "See {IERC721-approve}."
      },
      "balanceOf(address)": {
        "details": "See {IERC721-balanceOf}."
      },
      "bridgeBurn(uint256)": {
        "details": "- to bridge to another network from this one   1. call bridgeBurn on this network  2. call bridgeMint on the other network",
        "params": {
          "_token_id": "id of the token coming from the other network"
        }
      },
      "bridgeMint(address,uint256)": {
        "details": "- to bridge from another network into this one   1. call bridgeBurn on the other network  2. call bridgeMint on this one",
        "params": {
          "_to": "address of the account on this network to be minted to",
          "_token_id": "id of the token coming from the other network"
        }
      },
      "getApproved(uint256)": {
        "details": "See {IERC721-getApproved}."
      },
      "mintTo(address)": {
        "details": "Mints a token to an address with a tokenURI.",
        "params": {
          "_to": "address of the future owner of the token"
        }
      },
      "name()": {
        "details": "See {IERC721Metadata-name}."
      },
      "owner()": {
        "details": "Returns the address of the current owner."
      },
      "ownerOf(uint256)": {
        "details": "See {IERC721-ownerOf}."
      },
      "renounceOwnership()": {
        "details": "Leaves the contract without owner. It will not be possible to call `onlyOwner` functions anymore. Can only be called by the current owner. NOTE: Renouncing ownership will leave the contract without an owner, thereby removing any functionality that is only available to the owner."
      },
      "safeTransferFrom(address,address,uint256)": {
        "details": "See {IERC721-safeTransferFrom}."
      },
      "safeTransferFrom(address,address,uint256,bytes)": {
        "details": "See {IERC721-safeTransferFrom}."
      },
      "setApprovalForAll(address,bool)": {
        "details": "See {IERC721-setApprovalForAll}."
      },
      "supportsInterface(bytes4)": {
        "details": "See {IERC165-supportsInterface}."
      },
      "symbol()": {
        "details": "See {IERC721Metadata-symbol}."
      },
      "tokenByIndex(uint256)": {
        "details": "See {IERC721Enumerable-tokenByIndex}."
      },
      "tokenOfOwnerByIndex(address,uint256)": {
        "details": "See {IERC721Enumerable-tokenOfOwnerByIndex}."
      },
      "totalSupply()": {
        "details": "See {IERC721Enumerable-totalSupply}."
      },
      "transferFrom(address,address,uint256)": {
        "details": "See {IERC721-transferFrom}."
      },
      "transferOwnership(address)": {
        "details": "Transfers ownership of the contract to a new account (`newOwner`). Can only be called by the current owner."
      }
    },
    "title": "BullTycoons BullTycoons - a contract for my non-fungible creatures.",
    "version": 1
  },
  "userdoc": {
    "kind": "user",
    "methods": {
      "isApprovedForAll(address,address)": {
        "notice": "Override isApprovedForAll to whitelist user's OpenSea proxy accounts to enable gas-less listings."
      }
    },
    "version": 1
  }
}