{
  "contractName": "BullTycoons",
  "abi": [
    {
      "inputs": [
        {
          "internalType": "address",
          "name": "_proxyRegistryAddress",
          "type": "address"
        }
      ],
      "stateMutability": "nonpayable",
      "type": "constructor"
    },
    {
      "anonymous": false,
      "inputs": [
        {
          "indexed": true,
          "internalType": "address",
          "name": "owner",
          "type": "address"
        },
        {
          "indexed": true,
          "internalType": "address",
          "name": "approved",
          "type": "address"
        },
        {
          "indexed": true,
          "internalType": "uint256",
          "name": "tokenId",
          "type": "uint256"
        }
      ],
      "name": "Approval",
      "type": "event"
    },
    {
      "anonymous": false,
      "inputs": [
        {
          "indexed": true,
          "internalType": "address",
          "name": "owner",
          "type": "address"
        },
        {
          "indexed": true,
          "internalType": "address",
          "name": "operator",
          "type": "address"
        },
        {
          "indexed": false,
          "internalType": "bool",
          "name": "approved",
          "type": "bool"
        }
      ],
      "name": "ApprovalForAll",
      "type": "event"
    },
    {
      "anonymous": false,
      "inputs": [
        {
          "indexed": false,
          "internalType": "address",
          "name": "userAddress",
          "type": "address"
        },
        {
          "indexed": false,
          "internalType": "address payable",
          "name": "relayerAddress",
          "type": "address"
        },
        {
          "indexed": false,
          "internalType": "bytes",
          "name": "functionSignature",
          "type": "bytes"
        }
      ],
      "name": "MetaTransactionExecuted",
      "type": "event"
    },
    {
      "anonymous": false,
      "inputs": [
        {
          "indexed": true,
          "internalType": "address",
          "name": "previousOwner",
          "type": "address"
        },
        {
          "indexed": true,
          "internalType": "address",
          "name": "newOwner",
          "type": "address"
        }
      ],
      "name": "OwnershipTransferred",
      "type": "event"
    },
    {
      "anonymous": false,
      "inputs": [
        {
          "indexed": true,
          "internalType": "address",
          "name": "from",
          "type": "address"
        },
        {
          "indexed": true,
          "internalType": "address",
          "name": "to",
          "type": "address"
        },
        {
          "indexed": true,
          "internalType": "uint256",
          "name": "tokenId",
          "type": "uint256"
        }
      ],
      "name": "Transfer",
      "type": "event"
    },
    {
      "inputs": [],
      "name": "ERC712_VERSION",
      "outputs": [
        {
          "internalType": "string",
          "name": "",
          "type": "string"
        }
      ],
      "stateMutability": "view",
      "type": "function",
      "constant": true
    },
    {
      "inputs": [
        {
          "internalType": "address",
          "name": "to",
          "type": "address"
        },
        {
          "internalType": "uint256",
          "name": "tokenId",
          "type": "uint256"
        }
      ],
      "name": "approve",
      "outputs": [],
      "stateMutability": "nonpayable",
      "type": "function"
    },
    {
      "inputs": [
        {
          "internalType": "address",
          "name": "owner",
          "type": "address"
        }
      ],
      "name": "balanceOf",
      "outputs": [
        {
          "internalType": "uint256",
          "name": "",
          "type": "uint256"
        }
      ],
      "stateMutability": "view",
      "type": "function",
      "constant": true
    },
    {
      "inputs": [
        {
          "internalType": "address",
          "name": "userAddress",
          "type": "address"
        },
        {
          "internalType": "bytes",
          "name": "functionSignature",
          "type": "bytes"
        },
        {
          "internalType": "bytes32",
          "name": "sigR",
          "type": "bytes32"
        },
        {
          "internalType": "bytes32",
          "name": "sigS",
          "type": "bytes32"
        },
        {
          "internalType": "uint8",
          "name": "sigV",
          "type": "uint8"
        }
      ],
      "name": "executeMetaTransaction",
      "outputs": [
        {
          "internalType": "bytes",
          "name": "",
          "type": "bytes"
        }
      ],
      "stateMutability": "payable",
      "type": "function",
      "payable": true
    },
    {
      "inputs": [
        {
          "internalType": "uint256",
          "name": "tokenId",
          "type": "uint256"
        }
      ],
      "name": "getApproved",
      "outputs": [
        {
          "internalType": "address",
          "name": "",
          "type": "address"
        }
      ],
      "stateMutability": "view",
      "type": "function",
      "constant": true
    },
    {
      "inputs": [],
      "name": "getChainId",
      "outputs": [
        {
          "internalType": "uint256",
          "name": "",
          "type": "uint256"
        }
      ],
      "stateMutability": "view",
      "type": "function",
      "constant": true
    },
    {
      "inputs": [],
      "name": "getDomainSeperator",
      "outputs": [
        {
          "internalType": "bytes32",
          "name": "",
          "type": "bytes32"
        }
      ],
      "stateMutability": "view",
      "type": "function",
      "constant": true
    },
    {
      "inputs": [
        {
          "internalType": "address",
          "name": "user",
          "type": "address"
        }
      ],
      "name": "getNonce",
      "outputs": [
        {
          "internalType": "uint256",
          "name": "nonce",
          "type": "uint256"
        }
      ],
      "stateMutability": "view",
      "type": "function",
      "constant": true
    },
    {
      "inputs": [
        {
          "internalType": "address",
          "name": "owner",
          "type": "address"
        },
        {
          "internalType": "address",
          "name": "operator",
          "type": "address"
        }
      ],
      "name": "isApprovedForAll",
      "outputs": [
        {
          "internalType": "bool",
          "name": "",
          "type": "bool"
        }
      ],
      "stateMutability": "view",
      "type": "function",
      "constant": true
    },
    {
      "inputs": [
        {
          "internalType": "address",
          "name": "_to",
          "type": "address"
        }
      ],
      "name": "mintTo",
      "outputs": [],
      "stateMutability": "nonpayable",
      "type": "function"
    },
    {
      "inputs": [],
      "name": "name",
      "outputs": [
        {
          "internalType": "string",
          "name": "",
          "type": "string"
        }
      ],
      "stateMutability": "view",
      "type": "function",
      "constant": true
    },
    {
      "inputs": [],
      "name": "owner",
      "outputs": [
        {
          "internalType": "address",
          "name": "",
          "type": "address"
        }
      ],
      "stateMutability": "view",
      "type": "function",
      "constant": true
    },
    {
      "inputs": [
        {
          "internalType": "uint256",
          "name": "tokenId",
          "type": "uint256"
        }
      ],
      "name": "ownerOf",
      "outputs": [
        {
          "internalType": "address",
          "name": "",
          "type": "address"
        }
      ],
      "stateMutability": "view",
      "type": "function",
      "constant": true
    },
    {
      "inputs": [],
      "name": "renounceOwnership",
      "outputs": [],
      "stateMutability": "nonpayable",
      "type": "function"
    },
    {
      "inputs": [
        {
          "internalType": "address",
          "name": "from",
          "type": "address"
        },
        {
          "internalType": "address",
          "name": "to",
          "type": "address"
        },
        {
          "internalType": "uint256",
          "name": "tokenId",
          "type": "uint256"
        }
      ],
      "name": "safeTransferFrom",
      "outputs": [],
      "stateMutability": "nonpayable",
      "type": "function"
    },
    {
      "inputs": [
        {
          "internalType": "address",
          "name": "from",
          "type": "address"
        },
        {
          "internalType": "address",
          "name": "to",
          "type": "address"
        },
        {
          "internalType": "uint256",
          "name": "tokenId",
          "type": "uint256"
        },
        {
          "internalType": "bytes",
          "name": "_data",
          "type": "bytes"
        }
      ],
      "name": "safeTransferFrom",
      "outputs": [],
      "stateMutability": "nonpayable",
      "type": "function"
    },
    {
      "inputs": [
        {
          "internalType": "address",
          "name": "operator",
          "type": "address"
        },
        {
          "internalType": "bool",
          "name": "approved",
          "type": "bool"
        }
      ],
      "name": "setApprovalForAll",
      "outputs": [],
      "stateMutability": "nonpayable",
      "type": "function"
    },
    {
      "inputs": [
        {
          "internalType": "bytes4",
          "name": "interfaceId",
          "type": "bytes4"
        }
      ],
      "name": "supportsInterface",
      "outputs": [
        {
          "internalType": "bool",
          "name": "",
          "type": "bool"
        }
      ],
      "stateMutability": "view",
      "type": "function",
      "constant": true
    },
    {
      "inputs": [],
      "name": "symbol",
      "outputs": [
        {
          "internalType": "string",
          "name": "",
          "type": "string"
        }
      ],
      "stateMutability": "view",
      "type": "function",
      "constant": true
    },
    {
      "inputs": [
        {
          "internalType": "uint256",
          "name": "index",
          "type": "uint256"
        }
      ],
      "name": "tokenByIndex",
      "outputs": [
        {
          "internalType": "uint256",
          "name": "",
          "type": "uint256"
        }
      ],
      "stateMutability": "view",
      "type": "function",
      "constant": true
    },
    {
      "inputs": [
        {
          "internalType": "address",
          "name": "owner",
          "type": "address"
        },
        {
          "internalType": "uint256",
          "name": "index",
          "type": "uint256"
        }
      ],
      "name": "tokenOfOwnerByIndex",
      "outputs": [
        {
          "internalType": "uint256",
          "name": "",
          "type": "uint256"
        }
      ],
      "stateMutability": "view",
      "type": "function",
      "constant": true
    },
    {
      "inputs": [
        {
          "internalType": "uint256",
          "name": "_tokenId",
          "type": "uint256"
        }
      ],
      "name": "tokenURI",
      "outputs": [
        {
          "internalType": "string",
          "name": "",
          "type": "string"
        }
      ],
      "stateMutability": "pure",
      "type": "function",
      "constant": true
    },
    {
      "inputs": [],
      "name": "totalSupply",
      "outputs": [
        {
          "internalType": "uint256",
          "name": "",
          "type": "uint256"
        }
      ],
      "stateMutability": "view",
      "type": "function",
      "constant": true
    },
    {
      "inputs": [
        {
          "internalType": "address",
          "name": "from",
          "type": "address"
        },
        {
          "internalType": "address",
          "name": "to",
          "type": "address"
        },
        {
          "internalType": "uint256",
          "name": "tokenId",
          "type": "uint256"
        }
      ],
      "name": "transferFrom",
      "outputs": [],
      "stateMutability": "nonpayable",
      "type": "function"
    },
    {
      "inputs": [
        {
          "internalType": "address",
          "name": "newOwner",
          "type": "address"
        }
      ],
      "name": "transferOwnership",
      "outputs": [],
      "stateMutability": "nonpayable",
      "type": "function"
    },
    {
      "inputs": [],
      "name": "baseTokenURI",
      "outputs": [
        {
          "internalType": "string",
          "name": "",
          "type": "string"
        }
      ],
      "stateMutability": "pure",
      "type": "function",
      "constant": true
    },
    {
      "inputs": [],
      "name": "contractURI",
      "outputs": [
        {
          "internalType": "string",
          "name": "",
          "type": "string"
        }
      ],
      "stateMutability": "pure",
      "type": "function",
      "constant": true
    }
  ],
  "bytecode": "0x60806040526000600a60006101000a81548160ff0219169083151502179055506000600f553480156200003157600080fd5b506040516200488738038062004887833981810160405281019062000057919062000510565b6040518060400160405280600b81526020017f42756c6c5479636f6f6e730000000000000000000000000000000000000000008152506040518060400160405280600381526020017f42545900000000000000000000000000000000000000000000000000000000008152508282828160009080519060200190620000de92919062000449565b508060019080519060200190620000f792919062000449565b5050506200011a6200010e6200017660201b60201c565b6200019260201b60201c565b80600e60006101000a81548173ffffffffffffffffffffffffffffffffffffffff021916908373ffffffffffffffffffffffffffffffffffffffff1602179055506200016c836200025860201b60201c565b50505050620006ed565b60006200018d620002da60201b620015cf1760201c565b905090565b6000600d60009054906101000a900473ffffffffffffffffffffffffffffffffffffffff16905081600d60006101000a81548173ffffffffffffffffffffffffffffffffffffffff021916908373ffffffffffffffffffffffffffffffffffffffff1602179055508173ffffffffffffffffffffffffffffffffffffffff168173ffffffffffffffffffffffffffffffffffffffff167f8be0079c531659141344cd1fd0a4f28419497f9722a3daafe3b4186f6b6457e060405160405180910390a35050565b600a60009054906101000a900460ff1615620002ab576040517f08c379a0000000000000000000000000000000000000000000000000000000008152600401620002a290620005fd565b60405180910390fd5b620002bc816200038d60201b60201c565b6001600a60006101000a81548160ff02191690831515021790555050565b60003073ffffffffffffffffffffffffffffffffffffffff163373ffffffffffffffffffffffffffffffffffffffff1614156200038657600080368080601f016020809104026020016040519081016040528093929190818152602001838380828437600081840152601f19601f820116905080830192505050505050509050600080369050905073ffffffffffffffffffffffffffffffffffffffff8183015116925050506200038a565b3390505b90565b6040518060800160405280604f815260200162004838604f91398051906020012081805190602001206040518060400160405280600181526020017f31000000000000000000000000000000000000000000000000000000000000008152508051906020012030620004046200043c60201b60201c565b60001b6040516020016200041d959493929190620005a0565b60405160208183030381529060405280519060200120600b8190555050565b6000804690508091505090565b82805462000457906200066e565b90600052602060002090601f0160209004810192826200047b5760008555620004c7565b82601f106200049657805160ff1916838001178555620004c7565b82800160010185558215620004c7579182015b82811115620004c6578251825591602001919060010190620004a9565b5b509050620004d69190620004da565b5090565b5b80821115620004f5576000816000905550600101620004db565b5090565b6000815190506200050a81620006d3565b92915050565b6000602082840312156200052357600080fd5b60006200053384828501620004f9565b91505092915050565b620005478162000630565b82525050565b620005588162000644565b82525050565b60006200056d600e836200061f565b91507f616c726561647920696e697465640000000000000000000000000000000000006000830152602082019050919050565b600060a082019050620005b760008301886200054d565b620005c660208301876200054d565b620005d560408301866200054d565b620005e460608301856200053c565b620005f360808301846200054d565b9695505050505050565b6000602082019050818103600083015262000618816200055e565b9050919050565b600082825260208201905092915050565b60006200063d826200064e565b9050919050565b6000819050919050565b600073ffffffffffffffffffffffffffffffffffffffff82169050919050565b600060028204905060018216806200068757607f821691505b602082108114156200069e576200069d620006a4565b5b50919050565b7f4e487b7100000000000000000000000000000000000000000000000000000000600052602260045260246000fd5b620006de8162000630565b8114620006ea57600080fd5b50565b61413b80620006fd6000396000f3fe60806040526004361061019c5760003560e01c80634f6ccce7116100ec578063a22cb4651161008a578063d547cfb711610064578063d547cfb7146105f3578063e8a3d4851461061e578063e985e9c514610649578063f2fde38b146106865761019c565b8063a22cb46514610564578063b88d4fde1461058d578063c87b56dd146105b65761019c565b8063715018a6116100c6578063715018a6146104ce578063755edd17146104e55780638da5cb5b1461050e57806395d89b41146105395761019c565b80634f6ccce7146104175780636352211e1461045457806370a08231146104915761019c565b806318160ddd116101595780632d0335ab116101335780632d0335ab146103495780632f745c59146103865780633408e470146103c357806342842e0e146103ee5761019c565b806318160ddd146102ca57806320379ee5146102f557806323b872dd146103205761019c565b806301ffc9a7146101a157806306fdde03146101de578063081812fc14610209578063095ea7b3146102465780630c53c51c1461026f5780630f7e59701461029f575b600080fd5b3480156101ad57600080fd5b506101c860048036038101906101c39190612ce3565b6106af565b6040516101d591906137e7565b60405180910390f35b3480156101ea57600080fd5b506101f3610729565b60405161020091906138c9565b60405180910390f35b34801561021557600080fd5b50610230600480360381019061022b9190612d5e565b6107bb565b60405161023d9190613742565b60405180910390f35b34801561025257600080fd5b5061026d60048036038101906102689190612ca7565b610840565b005b61028960048036038101906102849190612c18565b610958565b60405161029691906138a7565b60405180910390f35b3480156102ab57600080fd5b506102b4610bca565b6040516102c191906138c9565b60405180910390f35b3480156102d657600080fd5b506102df610c03565b6040516102ec9190613b6b565b60405180910390f35b34801561030157600080fd5b5061030a610c10565b6040516103179190613802565b60405180910390f35b34801561032c57600080fd5b5061034760048036038101906103429190612b12565b610c1a565b005b34801561035557600080fd5b50610370600480360381019061036b9190612aad565b610c7a565b60405161037d9190613b6b565b60405180910390f35b34801561039257600080fd5b506103ad60048036038101906103a89190612ca7565b610cc3565b6040516103ba9190613b6b565b60405180910390f35b3480156103cf57600080fd5b506103d8610d68565b6040516103e59190613b6b565b60405180910390f35b3480156103fa57600080fd5b5061041560048036038101906104109190612b12565b610d75565b005b34801561042357600080fd5b5061043e60048036038101906104399190612d5e565b610d95565b60405161044b9190613b6b565b60405180910390f35b34801561046057600080fd5b5061047b60048036038101906104769190612d5e565b610e2c565b6040516104889190613742565b60405180910390f35b34801561049d57600080fd5b506104b860048036038101906104b39190612aad565b610ede565b6040516104c59190613b6b565b60405180910390f35b3480156104da57600080fd5b506104e3610f96565b005b3480156104f157600080fd5b5061050c60048036038101906105079190612aad565b61101e565b005b34801561051a57600080fd5b506105236110bc565b6040516105309190613742565b60405180910390f35b34801561054557600080fd5b5061054e6110e6565b60405161055b91906138c9565b60405180910390f35b34801561057057600080fd5b5061058b60048036038101906105869190612bdc565b611178565b005b34801561059957600080fd5b506105b460048036038101906105af9190612b61565b6112f9565b005b3480156105c257600080fd5b506105dd60048036038101906105d89190612d5e565b61135b565b6040516105ea91906138c9565b60405180910390f35b3480156105ff57600080fd5b50610608611395565b60405161061591906138c9565b60405180910390f35b34801561062a57600080fd5b506106336113b5565b60405161064091906138c9565b60405180910390f35b34801561065557600080fd5b50610670600480360381019061066b9190612ad6565b6113d5565b60405161067d91906137e7565b60405180910390f35b34801561069257600080fd5b506106ad60048036038101906106a89190612aad565b6114d7565b005b60007f780e9d63000000000000000000000000000000000000000000000000000000007bffffffffffffffffffffffffffffffffffffffffffffffffffffffff1916827bffffffffffffffffffffffffffffffffffffffffffffffffffffffff19161480610722575061072182611680565b5b9050919050565b60606000805461073890613de1565b80601f016020809104026020016040519081016040528092919081815260200182805461076490613de1565b80156107b15780601f10610786576101008083540402835291602001916107b1565b820191906000526020600020905b81548152906001019060200180831161079457829003601f168201915b5050505050905090565b60006107c682611762565b610805576040517f08c379a00000000000000000000000000000000000000000000000000000000081526004016107fc90613a8b565b60405180910390fd5b6004600083815260200190815260200160002060009054906101000a900473ffffffffffffffffffffffffffffffffffffffff169050919050565b600061084b82610e2c565b90508073ffffffffffffffffffffffffffffffffffffffff168373ffffffffffffffffffffffffffffffffffffffff1614156108bc576040517f08c379a00000000000000000000000000000000000000000000000000000000081526004016108b390613b0b565b60405180910390fd5b8073ffffffffffffffffffffffffffffffffffffffff166108db6117ce565b73ffffffffffffffffffffffffffffffffffffffff16148061090a5750610909816109046117ce565b6113d5565b5b610949576040517f08c379a000000000000000000000000000000000000000000000000000000000815260040161094090613a0b565b60405180910390fd5b61095383836117dd565b505050565b606060006040518060600160405280600c60008a73ffffffffffffffffffffffffffffffffffffffff1673ffffffffffffffffffffffffffffffffffffffff1681526020019081526020016000205481526020018873ffffffffffffffffffffffffffffffffffffffff1681526020018781525090506109db8782878787611896565b610a1a576040517f08c379a0000000000000000000000000000000000000000000000000000000008152600401610a1190613aeb565b60405180910390fd5b610a6d6001600c60008a73ffffffffffffffffffffffffffffffffffffffff1673ffffffffffffffffffffffffffffffffffffffff1681526020019081526020016000205461199f90919063ffffffff16565b600c60008973ffffffffffffffffffffffffffffffffffffffff1673ffffffffffffffffffffffffffffffffffffffff168152602001908152602001600020819055507f5845892132946850460bff5a0083f71031bc5bf9aadcd40f1de79423eac9b10b873388604051610ae39392919061375d565b60405180910390a16000803073ffffffffffffffffffffffffffffffffffffffff16888a604051602001610b189291906136b4565b604051602081830303815290604052604051610b34919061369d565b6000604051808303816000865af19150503d8060008114610b71576040519150601f19603f3d011682016040523d82523d6000602084013e610b76565b606091505b509150915081610bbb576040517f08c379a0000000000000000000000000000000000000000000000000000000008152600401610bb29061394b565b60405180910390fd5b80935050505095945050505050565b6040518060400160405280600181526020017f310000000000000000000000000000000000000000000000000000000000000081525081565b6000600880549050905090565b6000600b54905090565b610c2b610c256117ce565b826119b5565b610c6a576040517f08c379a0000000000000000000000000000000000000000000000000000000008152600401610c6190613b2b565b60405180910390fd5b610c75838383611a93565b505050565b6000600c60008373ffffffffffffffffffffffffffffffffffffffff1673ffffffffffffffffffffffffffffffffffffffff168152602001908152602001600020549050919050565b6000610cce83610ede565b8210610d0f576040517f08c379a0000000000000000000000000000000000000000000000000000000008152600401610d06906138eb565b60405180910390fd5b600660008473ffffffffffffffffffffffffffffffffffffffff1673ffffffffffffffffffffffffffffffffffffffff168152602001908152602001600020600083815260200190815260200160002054905092915050565b6000804690508091505090565b610d90838383604051806020016040528060008152506112f9565b505050565b6000610d9f610c03565b8210610de0576040517f08c379a0000000000000000000000000000000000000000000000000000000008152600401610dd790613b4b565b60405180910390fd5b60088281548110610e1a577f4e487b7100000000000000000000000000000000000000000000000000000000600052603260045260246000fd5b90600052602060002001549050919050565b6000806002600084815260200190815260200160002060009054906101000a900473ffffffffffffffffffffffffffffffffffffffff169050600073ffffffffffffffffffffffffffffffffffffffff168173ffffffffffffffffffffffffffffffffffffffff161415610ed5576040517f08c379a0000000000000000000000000000000000000000000000000000000008152600401610ecc90613a4b565b60405180910390fd5b80915050919050565b60008073ffffffffffffffffffffffffffffffffffffffff168273ffffffffffffffffffffffffffffffffffffffff161415610f4f576040517f08c379a0000000000000000000000000000000000000000000000000000000008152600401610f4690613a2b565b60405180910390fd5b600360008373ffffffffffffffffffffffffffffffffffffffff1673ffffffffffffffffffffffffffffffffffffffff168152602001908152602001600020549050919050565b610f9e6117ce565b73ffffffffffffffffffffffffffffffffffffffff16610fbc6110bc565b73ffffffffffffffffffffffffffffffffffffffff1614611012576040517f08c379a000000000000000000000000000000000000000000000000000000000815260040161100990613aab565b60405180910390fd5b61101c6000611cef565b565b6110266117ce565b73ffffffffffffffffffffffffffffffffffffffff166110446110bc565b73ffffffffffffffffffffffffffffffffffffffff161461109a576040517f08c379a000000000000000000000000000000000000000000000000000000000815260040161109190613aab565b60405180910390fd5b60006110a4611db5565b90506110b08282611dd2565b6110b8611fa0565b5050565b6000600d60009054906101000a900473ffffffffffffffffffffffffffffffffffffffff16905090565b6060600180546110f590613de1565b80601f016020809104026020016040519081016040528092919081815260200182805461112190613de1565b801561116e5780601f106111435761010080835404028352916020019161116e565b820191906000526020600020905b81548152906001019060200180831161115157829003601f168201915b5050505050905090565b6111806117ce565b73ffffffffffffffffffffffffffffffffffffffff168273ffffffffffffffffffffffffffffffffffffffff1614156111ee576040517f08c379a00000000000000000000000000000000000000000000000000000000081526004016111e5906139ab565b60405180910390fd5b80600560006111fb6117ce565b73ffffffffffffffffffffffffffffffffffffffff1673ffffffffffffffffffffffffffffffffffffffff16815260200190815260200160002060008473ffffffffffffffffffffffffffffffffffffffff1673ffffffffffffffffffffffffffffffffffffffff16815260200190815260200160002060006101000a81548160ff0219169083151502179055508173ffffffffffffffffffffffffffffffffffffffff166112a86117ce565b73ffffffffffffffffffffffffffffffffffffffff167f17307eab39ab6107e8899845ad3d59bd9653f200f220920489ca2b5937696c31836040516112ed91906137e7565b60405180910390a35050565b61130a6113046117ce565b836119b5565b611349576040517f08c379a000000000000000000000000000000000000000000000000000000000815260040161134090613b2b565b60405180910390fd5b61135584848484611fba565b50505050565b6060611365611395565b61136e83612016565b60405160200161137f9291906136dc565b6040516020818303038152906040529050919050565b606060405180608001604052806051815260200161407260519139905090565b60606040518060600160405280603b8152602001614037603b9139905090565b600080600e60009054906101000a900473ffffffffffffffffffffffffffffffffffffffff1690508273ffffffffffffffffffffffffffffffffffffffff168173ffffffffffffffffffffffffffffffffffffffff1663c4552791866040518263ffffffff1660e01b815260040161144d9190613742565b60206040518083038186803b15801561146557600080fd5b505afa158015611479573d6000803e3d6000fd5b505050506040513d601f19601f8201168201806040525081019061149d9190612d35565b73ffffffffffffffffffffffffffffffffffffffff1614156114c35760019150506114d1565b6114cd84846121c3565b9150505b92915050565b6114df6117ce565b73ffffffffffffffffffffffffffffffffffffffff166114fd6110bc565b73ffffffffffffffffffffffffffffffffffffffff1614611553576040517f08c379a000000000000000000000000000000000000000000000000000000000815260040161154a90613aab565b60405180910390fd5b600073ffffffffffffffffffffffffffffffffffffffff168173ffffffffffffffffffffffffffffffffffffffff1614156115c3576040517f08c379a00000000000000000000000000000000000000000000000000000000081526004016115ba9061392b565b60405180910390fd5b6115cc81611cef565b50565b60003073ffffffffffffffffffffffffffffffffffffffff163373ffffffffffffffffffffffffffffffffffffffff16141561167957600080368080601f016020809104026020016040519081016040528093929190818152602001838380828437600081840152601f19601f820116905080830192505050505050509050600080369050905073ffffffffffffffffffffffffffffffffffffffff81830151169250505061167d565b3390505b90565b60007f80ac58cd000000000000000000000000000000000000000000000000000000007bffffffffffffffffffffffffffffffffffffffffffffffffffffffff1916827bffffffffffffffffffffffffffffffffffffffffffffffffffffffff1916148061174b57507f5b5e139f000000000000000000000000000000000000000000000000000000007bffffffffffffffffffffffffffffffffffffffffffffffffffffffff1916827bffffffffffffffffffffffffffffffffffffffffffffffffffffffff1916145b8061175b575061175a82612257565b5b9050919050565b60008073ffffffffffffffffffffffffffffffffffffffff166002600084815260200190815260200160002060009054906101000a900473ffffffffffffffffffffffffffffffffffffffff1673ffffffffffffffffffffffffffffffffffffffff1614159050919050565b60006117d86115cf565b905090565b816004600083815260200190815260200160002060006101000a81548173ffffffffffffffffffffffffffffffffffffffff021916908373ffffffffffffffffffffffffffffffffffffffff160217905550808273ffffffffffffffffffffffffffffffffffffffff1661185083610e2c565b73ffffffffffffffffffffffffffffffffffffffff167f8c5be1e5ebec7d5bd14f71427d1e84f3dd0314c0f7b2291e5b200ac8c7c3b92560405160405180910390a45050565b60008073ffffffffffffffffffffffffffffffffffffffff168673ffffffffffffffffffffffffffffffffffffffff161415611907576040517f08c379a00000000000000000000000000000000000000000000000000000000081526004016118fe906139eb565b60405180910390fd5b600161191a611915876122c1565b612329565b8386866040516000815260200160405260405161193a9493929190613862565b6020604051602081039080840390855afa15801561195c573d6000803e3d6000fd5b5050506020604051035173ffffffffffffffffffffffffffffffffffffffff168673ffffffffffffffffffffffffffffffffffffffff1614905095945050505050565b600081836119ad9190613c35565b905092915050565b60006119c082611762565b6119ff576040517f08c379a00000000000000000000000000000000000000000000000000000000081526004016119f6906139cb565b60405180910390fd5b6000611a0a83610e2c565b90508073ffffffffffffffffffffffffffffffffffffffff168473ffffffffffffffffffffffffffffffffffffffff161480611a7957508373ffffffffffffffffffffffffffffffffffffffff16611a61846107bb565b73ffffffffffffffffffffffffffffffffffffffff16145b80611a8a5750611a8981856113d5565b5b91505092915050565b8273ffffffffffffffffffffffffffffffffffffffff16611ab382610e2c565b73ffffffffffffffffffffffffffffffffffffffff1614611b09576040517f08c379a0000000000000000000000000000000000000000000000000000000008152600401611b0090613acb565b60405180910390fd5b600073ffffffffffffffffffffffffffffffffffffffff168273ffffffffffffffffffffffffffffffffffffffff161415611b79576040517f08c379a0000000000000000000000000000000000000000000000000000000008152600401611b709061398b565b60405180910390fd5b611b84838383612362565b611b8f6000826117dd565b6001600360008573ffffffffffffffffffffffffffffffffffffffff1673ffffffffffffffffffffffffffffffffffffffff1681526020019081526020016000206000828254611bdf9190613cbc565b925050819055506001600360008473ffffffffffffffffffffffffffffffffffffffff1673ffffffffffffffffffffffffffffffffffffffff1681526020019081526020016000206000828254611c369190613c35565b92505081905550816002600083815260200190815260200160002060006101000a81548173ffffffffffffffffffffffffffffffffffffffff021916908373ffffffffffffffffffffffffffffffffffffffff160217905550808273ffffffffffffffffffffffffffffffffffffffff168473ffffffffffffffffffffffffffffffffffffffff167fddf252ad1be2c89b69c2b068fc378daa952ba7f163c4a11628f55a4df523b3ef60405160405180910390a4505050565b6000600d60009054906101000a900473ffffffffffffffffffffffffffffffffffffffff16905081600d60006101000a81548173ffffffffffffffffffffffffffffffffffffffff021916908373ffffffffffffffffffffffffffffffffffffffff1602179055508173ffffffffffffffffffffffffffffffffffffffff168173ffffffffffffffffffffffffffffffffffffffff167f8be0079c531659141344cd1fd0a4f28419497f9722a3daafe3b4186f6b6457e060405160405180910390a35050565b6000611dcd6001600f5461199f90919063ffffffff16565b905090565b600073ffffffffffffffffffffffffffffffffffffffff168273ffffffffffffffffffffffffffffffffffffffff161415611e42576040517f08c379a0000000000000000000000000000000000000000000000000000000008152600401611e3990613a6b565b60405180910390fd5b611e4b81611762565b15611e8b576040517f08c379a0000000000000000000000000000000000000000000000000000000008152600401611e829061396b565b60405180910390fd5b611e9760008383612362565b6001600360008473ffffffffffffffffffffffffffffffffffffffff1673ffffffffffffffffffffffffffffffffffffffff1681526020019081526020016000206000828254611ee79190613c35565b92505081905550816002600083815260200190815260200160002060006101000a81548173ffffffffffffffffffffffffffffffffffffffff021916908373ffffffffffffffffffffffffffffffffffffffff160217905550808273ffffffffffffffffffffffffffffffffffffffff16600073ffffffffffffffffffffffffffffffffffffffff167fddf252ad1be2c89b69c2b068fc378daa952ba7f163c4a11628f55a4df523b3ef60405160405180910390a45050565b600f6000815480929190611fb390613e13565b9190505550565b611fc5848484611a93565b611fd184848484612476565b612010576040517f08c379a00000000000000000000000000000000000000000000000000000000081526004016120079061390b565b60405180910390fd5b50505050565b6060600082141561205e576040518060400160405280600181526020017f300000000000000000000000000000000000000000000000000000000000000081525090506121be565b600082905060005b6000821461209057808061207990613e13565b915050600a826120899190613c8b565b9150612066565b60008167ffffffffffffffff8111156120d2577f4e487b7100000000000000000000000000000000000000000000000000000000600052604160045260246000fd5b6040519080825280601f01601f1916602001820160405280156121045781602001600182028036833780820191505090505b5090505b600085146121b75760018261211d9190613cbc565b9150600a8561212c9190613e8a565b60306121389190613c35565b60f81b818381518110612174577f4e487b7100000000000000000000000000000000000000000000000000000000600052603260045260246000fd5b60200101907effffffffffffffffffffffffffffffffffffffffffffffffffffffffffffff1916908160001a905350600a856121b09190613c8b565b9450612108565b8093505050505b919050565b6000600560008473ffffffffffffffffffffffffffffffffffffffff1673ffffffffffffffffffffffffffffffffffffffff16815260200190815260200160002060008373ffffffffffffffffffffffffffffffffffffffff1673ffffffffffffffffffffffffffffffffffffffff16815260200190815260200160002060009054906101000a900460ff16905092915050565b60007f01ffc9a7000000000000000000000000000000000000000000000000000000007bffffffffffffffffffffffffffffffffffffffffffffffffffffffff1916827bffffffffffffffffffffffffffffffffffffffffffffffffffffffff1916149050919050565b60006040518060800160405280604381526020016140c360439139805190602001208260000151836020015184604001518051906020012060405160200161230c949392919061381d565b604051602081830303815290604052805190602001209050919050565b6000612333610c10565b8260405160200161234592919061370b565b604051602081830303815290604052805190602001209050919050565b61236d83838361260d565b600073ffffffffffffffffffffffffffffffffffffffff168373ffffffffffffffffffffffffffffffffffffffff1614156123b0576123ab81612612565b6123ef565b8173ffffffffffffffffffffffffffffffffffffffff168373ffffffffffffffffffffffffffffffffffffffff16146123ee576123ed838261265b565b5b5b600073ffffffffffffffffffffffffffffffffffffffff168273ffffffffffffffffffffffffffffffffffffffff1614156124325761242d816127c8565b612471565b8273ffffffffffffffffffffffffffffffffffffffff168273ffffffffffffffffffffffffffffffffffffffff16146124705761246f828261290b565b5b5b505050565b60006124978473ffffffffffffffffffffffffffffffffffffffff1661298a565b15612600578373ffffffffffffffffffffffffffffffffffffffff1663150b7a026124c06117ce565b8786866040518563ffffffff1660e01b81526004016124e2949392919061379b565b602060405180830381600087803b1580156124fc57600080fd5b505af192505050801561252d57506040513d601f19601f8201168201806040525081019061252a9190612d0c565b60015b6125b0573d806000811461255d576040519150601f19603f3d011682016040523d82523d6000602084013e612562565b606091505b506000815114156125a8576040517f08c379a000000000000000000000000000000000000000000000000000000000815260040161259f9061390b565b60405180910390fd5b805181602001fd5b63150b7a0260e01b7bffffffffffffffffffffffffffffffffffffffffffffffffffffffff1916817bffffffffffffffffffffffffffffffffffffffffffffffffffffffff191614915050612605565b600190505b949350505050565b505050565b6008805490506009600083815260200190815260200160002081905550600881908060018154018082558091505060019003906000526020600020016000909190919091505550565b6000600161266884610ede565b6126729190613cbc565b9050600060076000848152602001908152602001600020549050818114612757576000600660008673ffffffffffffffffffffffffffffffffffffffff1673ffffffffffffffffffffffffffffffffffffffff168152602001908152602001600020600084815260200190815260200160002054905080600660008773ffffffffffffffffffffffffffffffffffffffff1673ffffffffffffffffffffffffffffffffffffffff168152602001908152602001600020600084815260200190815260200160002081905550816007600083815260200190815260200160002081905550505b6007600084815260200190815260200160002060009055600660008573ffffffffffffffffffffffffffffffffffffffff1673ffffffffffffffffffffffffffffffffffffffff16815260200190815260200160002060008381526020019081526020016000206000905550505050565b600060016008805490506127dc9190613cbc565b9050600060096000848152602001908152602001600020549050600060088381548110612832577f4e487b7100000000000000000000000000000000000000000000000000000000600052603260045260246000fd5b90600052602060002001549050806008838154811061287a577f4e487b7100000000000000000000000000000000000000000000000000000000600052603260045260246000fd5b9060005260206000200181905550816009600083815260200190815260200160002081905550600960008581526020019081526020016000206000905560088054806128ef577f4e487b7100000000000000000000000000000000000000000000000000000000600052603160045260246000fd5b6001900381819060005260206000200160009055905550505050565b600061291683610ede565b905081600660008573ffffffffffffffffffffffffffffffffffffffff1673ffffffffffffffffffffffffffffffffffffffff168152602001908152602001600020600083815260200190815260200160002081905550806007600084815260200190815260200160002081905550505050565b600080823b905060008111915050919050565b60006129b06129ab84613bb7565b613b86565b9050828152602081018484840111156129c857600080fd5b6129d3848285613d9f565b509392505050565b6000813590506129ea81613f95565b92915050565b6000813590506129ff81613fac565b92915050565b600081359050612a1481613fc3565b92915050565b600081359050612a2981613fda565b92915050565b600081519050612a3e81613fda565b92915050565b600082601f830112612a5557600080fd5b8135612a6584826020860161299d565b91505092915050565b600081519050612a7d81613ff1565b92915050565b600081359050612a9281614008565b92915050565b600081359050612aa78161401f565b92915050565b600060208284031215612abf57600080fd5b6000612acd848285016129db565b91505092915050565b60008060408385031215612ae957600080fd5b6000612af7858286016129db565b9250506020612b08858286016129db565b9150509250929050565b600080600060608486031215612b2757600080fd5b6000612b35868287016129db565b9350506020612b46868287016129db565b9250506040612b5786828701612a83565b9150509250925092565b60008060008060808587031215612b7757600080fd5b6000612b85878288016129db565b9450506020612b96878288016129db565b9350506040612ba787828801612a83565b925050606085013567ffffffffffffffff811115612bc457600080fd5b612bd087828801612a44565b91505092959194509250565b60008060408385031215612bef57600080fd5b6000612bfd858286016129db565b9250506020612c0e858286016129f0565b9150509250929050565b600080600080600060a08688031215612c3057600080fd5b6000612c3e888289016129db565b955050602086013567ffffffffffffffff811115612c5b57600080fd5b612c6788828901612a44565b9450506040612c7888828901612a05565b9350506060612c8988828901612a05565b9250506080612c9a88828901612a98565b9150509295509295909350565b60008060408385031215612cba57600080fd5b6000612cc8858286016129db565b9250506020612cd985828601612a83565b9150509250929050565b600060208284031215612cf557600080fd5b6000612d0384828501612a1a565b91505092915050565b600060208284031215612d1e57600080fd5b6000612d2c84828501612a2f565b91505092915050565b600060208284031215612d4757600080fd5b6000612d5584828501612a6e565b91505092915050565b600060208284031215612d7057600080fd5b6000612d7e84828501612a83565b91505092915050565b612d9081613d02565b82525050565b612d9f81613cf0565b82525050565b612db6612db182613cf0565b613e5c565b82525050565b612dc581613d14565b82525050565b612dd481613d20565b82525050565b612deb612de682613d20565b613e6e565b82525050565b6000612dfc82613be7565b612e068185613bfd565b9350612e16818560208601613dae565b612e1f81613f77565b840191505092915050565b6000612e3582613be7565b612e3f8185613c0e565b9350612e4f818560208601613dae565b80840191505092915050565b6000612e6682613bf2565b612e708185613c19565b9350612e80818560208601613dae565b612e8981613f77565b840191505092915050565b6000612e9f82613bf2565b612ea98185613c2a565b9350612eb9818560208601613dae565b80840191505092915050565b6000612ed2602b83613c19565b91507f455243373231456e756d657261626c653a206f776e657220696e646578206f7560008301527f74206f6620626f756e64730000000000000000000000000000000000000000006020830152604082019050919050565b6000612f38603283613c19565b91507f4552433732313a207472616e7366657220746f206e6f6e20455243373231526560008301527f63656976657220696d706c656d656e74657200000000000000000000000000006020830152604082019050919050565b6000612f9e602683613c19565b91507f4f776e61626c653a206e6577206f776e657220697320746865207a65726f206160008301527f64647265737300000000000000000000000000000000000000000000000000006020830152604082019050919050565b6000613004601c83613c19565b91507f46756e6374696f6e2063616c6c206e6f74207375636365737366756c000000006000830152602082019050919050565b6000613044601c83613c19565b91507f4552433732313a20746f6b656e20616c7265616479206d696e746564000000006000830152602082019050919050565b6000613084600283613c2a565b91507f19010000000000000000000000000000000000000000000000000000000000006000830152600282019050919050565b60006130c4602483613c19565b91507f4552433732313a207472616e7366657220746f20746865207a65726f2061646460008301527f72657373000000000000000000000000000000000000000000000000000000006020830152604082019050919050565b600061312a601983613c19565b91507f4552433732313a20617070726f766520746f2063616c6c6572000000000000006000830152602082019050919050565b600061316a602c83613c19565b91507f4552433732313a206f70657261746f7220717565727920666f72206e6f6e657860008301527f697374656e7420746f6b656e00000000000000000000000000000000000000006020830152604082019050919050565b60006131d0602583613c19565b91507f4e61746976654d6574615472616e73616374696f6e3a20494e56414c49445f5360008301527f49474e45520000000000000000000000000000000000000000000000000000006020830152604082019050919050565b6000613236603883613c19565b91507f4552433732313a20617070726f76652063616c6c6572206973206e6f74206f7760008301527f6e6572206e6f7220617070726f76656420666f7220616c6c00000000000000006020830152604082019050919050565b600061329c602a83613c19565b91507f4552433732313a2062616c616e636520717565727920666f7220746865207a6560008301527f726f2061646472657373000000000000000000000000000000000000000000006020830152604082019050919050565b6000613302602983613c19565b91507f4552433732313a206f776e657220717565727920666f72206e6f6e657869737460008301527f656e7420746f6b656e00000000000000000000000000000000000000000000006020830152604082019050919050565b6000613368602083613c19565b91507f4552433732313a206d696e7420746f20746865207a65726f20616464726573736000830152602082019050919050565b60006133a8602c83613c19565b91507f4552433732313a20617070726f76656420717565727920666f72206e6f6e657860008301527f697374656e7420746f6b656e00000000000000000000000000000000000000006020830152604082019050919050565b600061340e600583613c2a565b91507f2e6a736f6e0000000000000000000000000000000000000000000000000000006000830152600582019050919050565b600061344e602083613c19565b91507f4f776e61626c653a2063616c6c6572206973206e6f7420746865206f776e65726000830152602082019050919050565b600061348e602983613c19565b91507f4552433732313a207472616e73666572206f6620746f6b656e2074686174206960008301527f73206e6f74206f776e00000000000000000000000000000000000000000000006020830152604082019050919050565b60006134f4602183613c19565b91507f5369676e657220616e64207369676e617475726520646f206e6f74206d61746360008301527f68000000000000000000000000000000000000000000000000000000000000006020830152604082019050919050565b600061355a602183613c19565b91507f4552433732313a20617070726f76616c20746f2063757272656e74206f776e6560008301527f72000000000000000000000000000000000000000000000000000000000000006020830152604082019050919050565b60006135c0603183613c19565b91507f4552433732313a207472616e736665722063616c6c6572206973206e6f74206f60008301527f776e6572206e6f7220617070726f7665640000000000000000000000000000006020830152604082019050919050565b6000613626602c83613c19565b91507f455243373231456e756d657261626c653a20676c6f62616c20696e646578206f60008301527f7574206f6620626f756e647300000000000000000000000000000000000000006020830152604082019050919050565b61368881613d88565b82525050565b61369781613d92565b82525050565b60006136a98284612e2a565b915081905092915050565b60006136c08285612e2a565b91506136cc8284612da5565b6014820191508190509392505050565b60006136e88285612e94565b91506136f48284612e94565b91506136ff82613401565b91508190509392505050565b600061371682613077565b91506137228285612dda565b6020820191506137328284612dda565b6020820191508190509392505050565b60006020820190506137576000830184612d96565b92915050565b60006060820190506137726000830186612d96565b61377f6020830185612d87565b81810360408301526137918184612df1565b9050949350505050565b60006080820190506137b06000830187612d96565b6137bd6020830186612d96565b6137ca604083018561367f565b81810360608301526137dc8184612df1565b905095945050505050565b60006020820190506137fc6000830184612dbc565b92915050565b60006020820190506138176000830184612dcb565b92915050565b60006080820190506138326000830187612dcb565b61383f602083018661367f565b61384c6040830185612d96565b6138596060830184612dcb565b95945050505050565b60006080820190506138776000830187612dcb565b613884602083018661368e565b6138916040830185612dcb565b61389e6060830184612dcb565b95945050505050565b600060208201905081810360008301526138c18184612df1565b905092915050565b600060208201905081810360008301526138e38184612e5b565b905092915050565b6000602082019050818103600083015261390481612ec5565b9050919050565b6000602082019050818103600083015261392481612f2b565b9050919050565b6000602082019050818103600083015261394481612f91565b9050919050565b6000602082019050818103600083015261396481612ff7565b9050919050565b6000602082019050818103600083015261398481613037565b9050919050565b600060208201905081810360008301526139a4816130b7565b9050919050565b600060208201905081810360008301526139c48161311d565b9050919050565b600060208201905081810360008301526139e48161315d565b9050919050565b60006020820190508181036000830152613a04816131c3565b9050919050565b60006020820190508181036000830152613a2481613229565b9050919050565b60006020820190508181036000830152613a448161328f565b9050919050565b60006020820190508181036000830152613a64816132f5565b9050919050565b60006020820190508181036000830152613a848161335b565b9050919050565b60006020820190508181036000830152613aa48161339b565b9050919050565b60006020820190508181036000830152613ac481613441565b9050919050565b60006020820190508181036000830152613ae481613481565b9050919050565b60006020820190508181036000830152613b04816134e7565b9050919050565b60006020820190508181036000830152613b248161354d565b9050919050565b60006020820190508181036000830152613b44816135b3565b9050919050565b60006020820190508181036000830152613b6481613619565b9050919050565b6000602082019050613b80600083018461367f565b92915050565b6000604051905081810181811067ffffffffffffffff82111715613bad57613bac613f48565b5b8060405250919050565b600067ffffffffffffffff821115613bd257613bd1613f48565b5b601f19601f8301169050602081019050919050565b600081519050919050565b600081519050919050565b600082825260208201905092915050565b600081905092915050565b600082825260208201905092915050565b600081905092915050565b6000613c4082613d88565b9150613c4b83613d88565b9250827fffffffffffffffffffffffffffffffffffffffffffffffffffffffffffffffff03821115613c8057613c7f613ebb565b5b828201905092915050565b6000613c9682613d88565b9150613ca183613d88565b925082613cb157613cb0613eea565b5b828204905092915050565b6000613cc782613d88565b9150613cd283613d88565b925082821015613ce557613ce4613ebb565b5b828203905092915050565b6000613cfb82613d68565b9050919050565b6000613d0d82613d68565b9050919050565b60008115159050919050565b6000819050919050565b60007fffffffff0000000000000000000000000000000000000000000000000000000082169050919050565b6000613d6182613cf0565b9050919050565b600073ffffffffffffffffffffffffffffffffffffffff82169050919050565b6000819050919050565b600060ff82169050919050565b82818337600083830152505050565b60005b83811015613dcc578082015181840152602081019050613db1565b83811115613ddb576000848401525b50505050565b60006002820490506001821680613df957607f821691505b60208210811415613e0d57613e0c613f19565b5b50919050565b6000613e1e82613d88565b91507fffffffffffffffffffffffffffffffffffffffffffffffffffffffffffffffff821415613e5157613e50613ebb565b5b600182019050919050565b6000613e6782613e78565b9050919050565b6000819050919050565b6000613e8382613f88565b9050919050565b6000613e9582613d88565b9150613ea083613d88565b925082613eb057613eaf613eea565b5b828206905092915050565b7f4e487b7100000000000000000000000000000000000000000000000000000000600052601160045260246000fd5b7f4e487b7100000000000000000000000000000000000000000000000000000000600052601260045260246000fd5b7f4e487b7100000000000000000000000000000000000000000000000000000000600052602260045260246000fd5b7f4e487b7100000000000000000000000000000000000000000000000000000000600052604160045260246000fd5b6000601f19601f8301169050919050565b60008160601b9050919050565b613f9e81613cf0565b8114613fa957600080fd5b50565b613fb581613d14565b8114613fc057600080fd5b50565b613fcc81613d20565b8114613fd757600080fd5b50565b613fe381613d2a565b8114613fee57600080fd5b50565b613ffa81613d56565b811461400557600080fd5b50565b61401181613d88565b811461401c57600080fd5b50565b61402881613d92565b811461403357600080fd5b5056fe68747470733a2f2f6372656174757265732d6170692e6f70656e7365612e696f2f636f6e74726163742f6f70656e7365612d63726561747572657368747470733a2f2f676174657761792e70696e6174612e636c6f75642f697066732f516d644c594b34424b635a7235657061754e56643275666a3755746e66676561537758735865646d474b646444372f4d6574615472616e73616374696f6e2875696e74323536206e6f6e63652c616464726573732066726f6d2c62797465732066756e6374696f6e5369676e617475726529a2646970667358221220a39f5cf47403fe20387a37e4499acc54f69306b2f46b551e54075d6562ee4d7c64736f6c63430008000033454950373132446f6d61696e28737472696e67206e616d652c737472696e672076657273696f6e2c6164647265737320766572696679696e67436f6e74726163742c627974657333322073616c7429",
  "immutableReferences": {},
  "source": "// SPDX-License-Identifier: MIT\n\npragma solidity ^0.8.0;\n\nimport \"./ERC721Tradable.sol\";\n\n/**\n * @title BullTycoons\n * BullTycoons - a contract for my non-fungible creatures.\n */\ncontract BullTycoons is ERC721Tradable {\n    constructor(address _proxyRegistryAddress)\n        ERC721Tradable(\"BullTycoons\", \"BTY\", _proxyRegistryAddress)\n    {}\n\n    function baseTokenURI() override public pure returns (string memory) {\n        return \"https://gateway.pinata.cloud/ipfs/QmdLYK4BKcZr5epauNVd2ufj7UtnfgeaSwXsXedmGKddD7/\";\n    }\n\n    function contractURI() public pure returns (string memory) {\n        return \"https://creatures-api.opensea.io/contract/opensea-creatures\";\n    }\n}\n",
  "sourcePath": "/Users/olayinkaokewale/Documents/bull_nft/bulltycoons_contracts/contracts/BullTycoons.sol",
  "compiler": {
    "name": "solc",
    "version": "0.8.0+commit.c7dfd78e.Emscripten.clang"
  },
  "schemaVersion": "3.3.2",
  "updatedAt": "2021-10-24T03:17:57.120Z",
  "networkType": "ethereum",
  "devdoc": {
    "kind": "dev",
    "methods": {
      "approve(address,uint256)": {
        "details": "See {IERC721-approve}."
      },
      "balanceOf(address)": {
        "details": "See {IERC721-balanceOf}."
      },
      "getApproved(uint256)": {
        "details": "See {IERC721-getApproved}."
      },
      "mintTo(address)": {
        "details": "Mints a token to an address with a tokenURI.",
        "params": {
          "_to": "address of the future owner of the token"
        }
      },
      "name()": {
        "details": "See {IERC721Metadata-name}."
      },
      "owner()": {
        "details": "Returns the address of the current owner."
      },
      "ownerOf(uint256)": {
        "details": "See {IERC721-ownerOf}."
      },
      "renounceOwnership()": {
        "details": "Leaves the contract without owner. It will not be possible to call `onlyOwner` functions anymore. Can only be called by the current owner. NOTE: Renouncing ownership will leave the contract without an owner, thereby removing any functionality that is only available to the owner."
      },
      "safeTransferFrom(address,address,uint256)": {
        "details": "See {IERC721-safeTransferFrom}."
      },
      "safeTransferFrom(address,address,uint256,bytes)": {
        "details": "See {IERC721-safeTransferFrom}."
      },
      "setApprovalForAll(address,bool)": {
        "details": "See {IERC721-setApprovalForAll}."
      },
      "supportsInterface(bytes4)": {
        "details": "See {IERC165-supportsInterface}."
      },
      "symbol()": {
        "details": "See {IERC721Metadata-symbol}."
      },
      "tokenByIndex(uint256)": {
        "details": "See {IERC721Enumerable-tokenByIndex}."
      },
      "tokenOfOwnerByIndex(address,uint256)": {
        "details": "See {IERC721Enumerable-tokenOfOwnerByIndex}."
      },
      "totalSupply()": {
        "details": "See {IERC721Enumerable-totalSupply}."
      },
      "transferFrom(address,address,uint256)": {
        "details": "See {IERC721-transferFrom}."
      },
      "transferOwnership(address)": {
        "details": "Transfers ownership of the contract to a new account (`newOwner`). Can only be called by the current owner."
      }
    },
    "title": "BullTycoons BullTycoons - a contract for my non-fungible creatures.",
    "version": 1
  },
  "userdoc": {
    "kind": "user",
    "methods": {
      "isApprovedForAll(address,address)": {
        "notice": "Override isApprovedForAll to whitelist user's OpenSea proxy accounts to enable gas-less listings."
      }
    },
    "version": 1
  }
}