{
  "contractName": "BullTycoonsFactory",
  "abi": [
    {
      "inputs": [
        {
          "internalType": "address",
          "name": "_proxyRegistryAddress",
          "type": "address"
        },
        {
          "internalType": "address",
          "name": "_nftAddress",
          "type": "address"
        }
      ],
      "stateMutability": "nonpayable",
      "type": "constructor"
    },
    {
      "anonymous": false,
      "inputs": [
        {
          "indexed": true,
          "internalType": "address",
          "name": "previousOwner",
          "type": "address"
        },
        {
          "indexed": true,
          "internalType": "address",
          "name": "newOwner",
          "type": "address"
        }
      ],
      "name": "OwnershipTransferred",
      "type": "event"
    },
    {
      "anonymous": false,
      "inputs": [
        {
          "indexed": true,
          "internalType": "address",
          "name": "from",
          "type": "address"
        },
        {
          "indexed": true,
          "internalType": "address",
          "name": "to",
          "type": "address"
        }
      ],
      "name": "Transfer",
      "type": "event"
    },
    {
      "inputs": [],
      "name": "MINT_PER_PERSON",
      "outputs": [
        {
          "internalType": "uint256",
          "name": "",
          "type": "uint256"
        }
      ],
      "stateMutability": "view",
      "type": "function"
    },
    {
      "inputs": [],
      "name": "MINT_START",
      "outputs": [
        {
          "internalType": "bool",
          "name": "",
          "type": "bool"
        }
      ],
      "stateMutability": "view",
      "type": "function"
    },
    {
      "inputs": [],
      "name": "MINT_START_DATE",
      "outputs": [
        {
          "internalType": "uint256",
          "name": "",
          "type": "uint256"
        }
      ],
      "stateMutability": "view",
      "type": "function"
    },
    {
      "inputs": [],
      "name": "PRESALE_AMOUNT",
      "outputs": [
        {
          "internalType": "uint256",
          "name": "",
          "type": "uint256"
        }
      ],
      "stateMutability": "view",
      "type": "function"
    },
    {
      "inputs": [],
      "name": "baseURI",
      "outputs": [
        {
          "internalType": "string",
          "name": "",
          "type": "string"
        }
      ],
      "stateMutability": "view",
      "type": "function"
    },
    {
      "inputs": [],
      "name": "nftAddress",
      "outputs": [
        {
          "internalType": "address",
          "name": "",
          "type": "address"
        }
      ],
      "stateMutability": "view",
      "type": "function"
    },
    {
      "inputs": [],
      "name": "owner",
      "outputs": [
        {
          "internalType": "address",
          "name": "",
          "type": "address"
        }
      ],
      "stateMutability": "view",
      "type": "function"
    },
    {
      "inputs": [],
      "name": "proxyRegistryAddress",
      "outputs": [
        {
          "internalType": "address",
          "name": "",
          "type": "address"
        }
      ],
      "stateMutability": "view",
      "type": "function"
    },
    {
      "inputs": [],
      "name": "renounceOwnership",
      "outputs": [],
      "stateMutability": "nonpayable",
      "type": "function"
    },
    {
      "inputs": [],
      "name": "wethAddress",
      "outputs": [
        {
          "internalType": "address",
          "name": "",
          "type": "address"
        }
      ],
      "stateMutability": "view",
      "type": "function"
    },
    {
      "inputs": [
        {
          "internalType": "uint256",
          "name": "_maxSupply",
          "type": "uint256"
        }
      ],
      "name": "setMaxSupply",
      "outputs": [],
      "stateMutability": "nonpayable",
      "type": "function"
    },
    {
      "inputs": [
        {
          "internalType": "uint256",
          "name": "_maxMintPerPerson",
          "type": "uint256"
        }
      ],
      "name": "setMaxMintPerPerson",
      "outputs": [],
      "stateMutability": "nonpayable",
      "type": "function"
    },
    {
      "inputs": [],
      "name": "getMaxSupply",
      "outputs": [
        {
          "internalType": "uint256",
          "name": "",
          "type": "uint256"
        }
      ],
      "stateMutability": "view",
      "type": "function"
    },
    {
      "inputs": [],
      "name": "name",
      "outputs": [
        {
          "internalType": "string",
          "name": "",
          "type": "string"
        }
      ],
      "stateMutability": "pure",
      "type": "function"
    },
    {
      "inputs": [],
      "name": "symbol",
      "outputs": [
        {
          "internalType": "string",
          "name": "",
          "type": "string"
        }
      ],
      "stateMutability": "pure",
      "type": "function"
    },
    {
      "inputs": [],
      "name": "supportsFactoryInterface",
      "outputs": [
        {
          "internalType": "bool",
          "name": "",
          "type": "bool"
        }
      ],
      "stateMutability": "pure",
      "type": "function"
    },
    {
      "inputs": [],
      "name": "numOptions",
      "outputs": [
        {
          "internalType": "uint256",
          "name": "",
          "type": "uint256"
        }
      ],
      "stateMutability": "view",
      "type": "function"
    },
    {
      "inputs": [
        {
          "internalType": "address",
          "name": "newOwner",
          "type": "address"
        }
      ],
      "name": "transferOwnership",
      "outputs": [],
      "stateMutability": "nonpayable",
      "type": "function"
    },
    {
      "inputs": [
        {
          "internalType": "address",
          "name": "newOwner",
          "type": "address"
        }
      ],
      "name": "transferNFTAdminRole",
      "outputs": [],
      "stateMutability": "nonpayable",
      "type": "function"
    },
    {
      "inputs": [
        {
          "internalType": "bool",
          "name": "_startMinting",
          "type": "bool"
        }
      ],
      "name": "setStartMinting",
      "outputs": [],
      "stateMutability": "nonpayable",
      "type": "function"
    },
    {
      "inputs": [
        {
          "internalType": "uint256",
          "name": "_startDate",
          "type": "uint256"
        }
      ],
      "name": "setMintStartDate",
      "outputs": [],
      "stateMutability": "nonpayable",
      "type": "function"
    },
    {
      "inputs": [
        {
          "internalType": "address",
          "name": "_wethAddress",
          "type": "address"
        }
      ],
      "name": "setWethAddress",
      "outputs": [],
      "stateMutability": "nonpayable",
      "type": "function"
    },
    {
      "inputs": [
        {
          "internalType": "uint256",
          "name": "_presaleAmount",
          "type": "uint256"
        }
      ],
      "name": "setPresaleAmount",
      "outputs": [],
      "stateMutability": "nonpayable",
      "type": "function"
    },
    {
      "inputs": [
        {
          "internalType": "address[]",
          "name": "_addresses",
          "type": "address[]"
        }
      ],
      "name": "setWhitelist",
      "outputs": [],
      "stateMutability": "nonpayable",
      "type": "function"
    },
    {
      "inputs": [
        {
          "internalType": "address",
          "name": "_bridgeAddress",
          "type": "address"
        }
      ],
      "name": "setBridgeAddress",
      "outputs": [],
      "stateMutability": "nonpayable",
      "type": "function"
    },
    {
      "inputs": [
        {
          "internalType": "string",
          "name": "_baseUri",
          "type": "string"
        }
      ],
      "name": "setBaseTokenUri",
      "outputs": [],
      "stateMutability": "nonpayable",
      "type": "function"
    },
    {
      "inputs": [
        {
          "internalType": "string",
          "name": "_contractUri",
          "type": "string"
        }
      ],
      "name": "setContractUri",
      "outputs": [],
      "stateMutability": "nonpayable",
      "type": "function"
    },
    {
      "inputs": [
        {
          "internalType": "address",
          "name": "_address",
          "type": "address"
        }
      ],
      "name": "checkWhitelisted",
      "outputs": [
        {
          "internalType": "bool",
          "name": "_isWhitelisted",
          "type": "bool"
        }
      ],
      "stateMutability": "view",
      "type": "function"
    },
    {
      "inputs": [],
      "name": "whitelistMint",
      "outputs": [],
      "stateMutability": "nonpayable",
      "type": "function"
    },
    {
      "inputs": [
        {
          "internalType": "uint256",
          "name": "_mintNumber",
          "type": "uint256"
        }
      ],
      "name": "presaleMint",
      "outputs": [],
      "stateMutability": "nonpayable",
      "type": "function"
    },
    {
      "inputs": [
        {
          "internalType": "address",
          "name": "_minter",
          "type": "address"
        }
      ],
      "name": "getNumberMinted",
      "outputs": [
        {
          "internalType": "uint256",
          "name": "numberMinted",
          "type": "uint256"
        }
      ],
      "stateMutability": "view",
      "type": "function"
    },
    {
      "inputs": [
        {
          "internalType": "address[]",
          "name": "tokenIds",
          "type": "address[]"
        }
      ],
      "name": "withdrawTokens",
      "outputs": [],
      "stateMutability": "nonpayable",
      "type": "function"
    },
    {
      "inputs": [
        {
          "internalType": "uint256",
          "name": "_optionId",
          "type": "uint256"
        }
      ],
      "name": "tokenURI",
      "outputs": [
        {
          "internalType": "string",
          "name": "",
          "type": "string"
        }
      ],
      "stateMutability": "view",
      "type": "function"
    },
    {
      "inputs": [
        {
          "internalType": "address",
          "name": "_owner",
          "type": "address"
        },
        {
          "internalType": "address",
          "name": "_operator",
          "type": "address"
        }
      ],
      "name": "isApprovedForAll",
      "outputs": [
        {
          "internalType": "bool",
          "name": "",
          "type": "bool"
        }
      ],
      "stateMutability": "view",
      "type": "function"
    },
    {
      "inputs": [
        {
          "internalType": "uint256",
          "name": "_tokenId",
          "type": "uint256"
        }
      ],
      "name": "ownerOf",
      "outputs": [
        {
          "internalType": "address",
          "name": "_owner",
          "type": "address"
        }
      ],
      "stateMutability": "view",
      "type": "function"
    }
  ],
  "bytecode": "0x6080604052737ceb23fd6bc0add59e62ac25578270cff1b9f619600260006101000a81548173ffffffffffffffffffffffffffffffffffffffff021916908373ffffffffffffffffffffffffffffffffffffffff1602179055506040518060800160405280605081526020016200360a60509139600490805190602001906200008a92919062000324565b506000600560006101000a81548160ff021916908315150217905550611388600755600560085566b1a2bc2ec50000600955348015620000c957600080fd5b506040516200365a3803806200365a8339818101604052810190620000ef9190620003eb565b6200010f62000103620001d160201b60201c565b620001d960201b60201c565b81600160006101000a81548173ffffffffffffffffffffffffffffffffffffffff021916908373ffffffffffffffffffffffffffffffffffffffff16021790555080600360006101000a81548173ffffffffffffffffffffffffffffffffffffffff021916908373ffffffffffffffffffffffffffffffffffffffff160217905550620001b36000620001a76200029d60201b60201c565b620002c660201b60201c565b61012c42620001c391906200042c565b600681905550505062000575565b600033905090565b60008060009054906101000a900473ffffffffffffffffffffffffffffffffffffffff169050816000806101000a81548173ffffffffffffffffffffffffffffffffffffffff021916908373ffffffffffffffffffffffffffffffffffffffff1602179055508173ffffffffffffffffffffffffffffffffffffffff168173ffffffffffffffffffffffffffffffffffffffff167f8be0079c531659141344cd1fd0a4f28419497f9722a3daafe3b4186f6b6457e060405160405180910390a35050565b60008060009054906101000a900473ffffffffffffffffffffffffffffffffffffffff16905090565b8073ffffffffffffffffffffffffffffffffffffffff168273ffffffffffffffffffffffffffffffffffffffff167f4853ae1b4d437c4255ac16cd3ceda3465975023f27cb141584cd9d44440fed8260405160405180910390a35050565b8280546200033290620004c7565b90600052602060002090601f016020900481019282620003565760008555620003a2565b82601f106200037157805160ff1916838001178555620003a2565b82800160010185558215620003a2579182015b82811115620003a157825182559160200191906001019062000384565b5b509050620003b19190620003b5565b5090565b5b80821115620003d0576000816000905550600101620003b6565b5090565b600081519050620003e5816200055b565b92915050565b60008060408385031215620003ff57600080fd5b60006200040f85828601620003d4565b92505060206200042285828601620003d4565b9150509250929050565b60006200043982620004bd565b91506200044683620004bd565b9250827fffffffffffffffffffffffffffffffffffffffffffffffffffffffffffffffff038211156200047e576200047d620004fd565b5b828201905092915050565b600062000496826200049d565b9050919050565b600073ffffffffffffffffffffffffffffffffffffffff82169050919050565b6000819050919050565b60006002820490506001821680620004e057607f821691505b60208210811415620004f757620004f66200052c565b5b50919050565b7f4e487b7100000000000000000000000000000000000000000000000000000000600052601160045260246000fd5b7f4e487b7100000000000000000000000000000000000000000000000000000000600052602260045260246000fd5b620005668162000489565b81146200057257600080fd5b50565b61308580620005856000396000f3fe608060405234801561001057600080fd5b50600436106102115760003560e01c80638da5cb5b11610125578063c6374d0c116100ad578063cd7c03261161007c578063cd7c0326146105a2578063e985e9c5146105c0578063f2fde38b146105f0578063f42176481461060c578063f70fa8a41461062857610211565b8063c6374d0c1461051c578063c87b56dd1461053a578063c9b298f11461056a578063ccb4807b1461058657610211565b806395d89b41116100f457806395d89b411461048a5780639ebeb30f146104a8578063a96e2423146104c6578063b66cc285146104e2578063c311c523146104fe57610211565b80638da5cb5b1461041857806395652cfa14610436578063958216501461045257806395bd19c21461046e57610211565b80636352211e116101a8578063715018a611610177578063715018a61461039c5780637f5a22f9146103a6578063804f43cd146103c25780638a59a7fd146103cc5780638ab517d1146103fc57610211565b80636352211e146103145780636c0360eb146103445780636d120237146103625780636f8b44b01461038057610211565b80634f0e0ef3116101e45780634f0e0ef3146102a057806357dc4134146102be5780635bf8633a146102da5780635ecb16cd146102f857610211565b806306fdde031461021657806320d8dad0146102345780634b97aed9146102645780634c0f38c214610282575b600080fd5b61021e610646565b60405161022b9190612aa3565b60405180910390f35b61024e6004803603810190610249919061246a565b610683565b60405161025b9190612a88565b60405180910390f35b61026c6106d9565b6040516102799190612be5565b60405180910390f35b61028a6106e3565b6040516102979190612be5565b60405180910390f35b6102a86106ed565b6040516102b591906129e4565b60405180910390f35b6102d860048036038101906102d391906125cc565b610713565b005b6102e2610799565b6040516102ef91906129e4565b60405180910390f35b610312600480360381019061030d91906124cf565b6107bf565b005b61032e600480360381019061032991906125cc565b6109ba565b60405161033b91906129e4565b60405180910390f35b61034c6109cb565b6040516103599190612aa3565b60405180910390f35b61036a610a59565b6040516103779190612be5565b60405180910390f35b61039a600480360381019061039591906125cc565b610a5f565b005b6103a4610ae5565b005b6103c060048036038101906103bb919061246a565b610b6d565b005b6103ca610c79565b005b6103e660048036038101906103e1919061246a565b610f29565b6040516103f39190612be5565b60405180910390f35b610416600480360381019061041191906125cc565b610f72565b005b610420610ff8565b60405161042d91906129e4565b60405180910390f35b610450600480360381019061044b919061258b565b611021565b005b61046c6004803603810190610467919061246a565b61112d565b005b610488600480360381019061048391906125cc565b611243565b005b6104926112c9565b60405161049f9190612aa3565b60405180910390f35b6104b0611306565b6040516104bd9190612be5565b60405180910390f35b6104e060048036038101906104db919061246a565b61130c565b005b6104fc60048036038101906104f79190612510565b6113cc565b005b610506611465565b6040516105139190612a88565b60405180910390f35b61052461146e565b6040516105319190612a88565b60405180910390f35b610554600480360381019061054f91906125cc565b611481565b6040516105619190612aa3565b60405180910390f35b610584600480360381019061057f91906125cc565b6114b5565b005b6105a0600480360381019061059b919061258b565b611a4a565b005b6105aa611b56565b6040516105b791906129e4565b60405180910390f35b6105da60048036038101906105d59190612493565b611b7c565b6040516105e79190612a88565b60405180910390f35b61060a6004803603810190610605919061246a565b611d30565b005b610626600480360381019061062191906124cf565b611dcf565b005b610630611f06565b60405161063d9190612be5565b60405180910390f35b60606040518060400160405280601081526020017f42756c6c5479636f6f6e73204d696e7400000000000000000000000000000000815250905090565b6000600a60008373ffffffffffffffffffffffffffffffffffffffff1673ffffffffffffffffffffffffffffffffffffffff16815260200190815260200160002060009054906101000a900460ff169050919050565b6000600854905090565b6000600754905090565b600260009054906101000a900473ffffffffffffffffffffffffffffffffffffffff1681565b61071b611f0c565b73ffffffffffffffffffffffffffffffffffffffff16610739610ff8565b73ffffffffffffffffffffffffffffffffffffffff161461078f576040517f08c379a000000000000000000000000000000000000000000000000000000000815260040161078690612b65565b60405180910390fd5b8060098190555050565b600360009054906101000a900473ffffffffffffffffffffffffffffffffffffffff1681565b6107c7611f0c565b73ffffffffffffffffffffffffffffffffffffffff166107e5610ff8565b73ffffffffffffffffffffffffffffffffffffffff161461083b576040517f08c379a000000000000000000000000000000000000000000000000000000000815260040161083290612b65565b60405180910390fd5b60005b81518110156109b6576000828281518110610882577f4e487b7100000000000000000000000000000000000000000000000000000000600052603260045260246000fd5b602002602001015190508073ffffffffffffffffffffffffffffffffffffffff1663a9059cbb338373ffffffffffffffffffffffffffffffffffffffff166370a08231306040518263ffffffff1660e01b81526004016108e291906129e4565b60206040518083038186803b1580156108fa57600080fd5b505afa15801561090e573d6000803e3d6000fd5b505050506040513d601f19601f8201168201806040525081019061093291906125f5565b6040518363ffffffff1660e01b815260040161094f929190612a5f565b602060405180830381600087803b15801561096957600080fd5b505af115801561097d573d6000803e3d6000fd5b505050506040513d601f19601f820116820180604052508101906109a19190612539565b505080806109ae90612eac565b91505061083e565b5050565b60006109c4610ff8565b9050919050565b600480546109d890612e7a565b80601f0160208091040260200160405190810160405280929190818152602001828054610a0490612e7a565b8015610a515780601f10610a2657610100808354040283529160200191610a51565b820191906000526020600020905b815481529060010190602001808311610a3457829003601f168201915b505050505081565b60095481565b610a67611f0c565b73ffffffffffffffffffffffffffffffffffffffff16610a85610ff8565b73ffffffffffffffffffffffffffffffffffffffff1614610adb576040517f08c379a0000000000000000000000000000000000000000000000000000000008152600401610ad290612b65565b60405180910390fd5b8060078190555050565b610aed611f0c565b73ffffffffffffffffffffffffffffffffffffffff16610b0b610ff8565b73ffffffffffffffffffffffffffffffffffffffff1614610b61576040517f08c379a0000000000000000000000000000000000000000000000000000000008152600401610b5890612b65565b60405180910390fd5b610b6b6000611f14565b565b610b75611f0c565b73ffffffffffffffffffffffffffffffffffffffff16610b93610ff8565b73ffffffffffffffffffffffffffffffffffffffff1614610be9576040517f08c379a0000000000000000000000000000000000000000000000000000000008152600401610be090612b65565b60405180910390fd5b600360009054906101000a900473ffffffffffffffffffffffffffffffffffffffff1673ffffffffffffffffffffffffffffffffffffffff1663f2e027cb826040518263ffffffff1660e01b8152600401610c4491906129e4565b600060405180830381600087803b158015610c5e57600080fd5b505af1158015610c72573d6000803e3d6000fd5b5050505050565b6001600654421015610cc0576040517f08c379a0000000000000000000000000000000000000000000000000000000008152600401610cb790612b25565b60405180910390fd5b60075481600360009054906101000a900473ffffffffffffffffffffffffffffffffffffffff1673ffffffffffffffffffffffffffffffffffffffff166318160ddd6040518163ffffffff1660e01b815260040160206040518083038186803b158015610d2c57600080fd5b505afa158015610d40573d6000803e3d6000fd5b505050506040513d601f19601f82011682018060405250810190610d6491906125f5565b610d6e9190612cc9565b1115610daf576040517f08c379a0000000000000000000000000000000000000000000000000000000008152600401610da690612ac5565b60405180910390fd5b600a60003373ffffffffffffffffffffffffffffffffffffffff1673ffffffffffffffffffffffffffffffffffffffff16815260200190815260200160002060009054906101000a900460ff16610e3b576040517f08c379a0000000000000000000000000000000000000000000000000000000008152600401610e3290612b45565b60405180910390fd5b6000600360009054906101000a900473ffffffffffffffffffffffffffffffffffffffff1690508073ffffffffffffffffffffffffffffffffffffffff1663755edd17336040518263ffffffff1660e01b8152600401610e9b91906129e4565b600060405180830381600087803b158015610eb557600080fd5b505af1158015610ec9573d6000803e3d6000fd5b505050506000600a60003373ffffffffffffffffffffffffffffffffffffffff1673ffffffffffffffffffffffffffffffffffffffff16815260200190815260200160002060006101000a81548160ff0219169083151502179055505050565b6000600b60008373ffffffffffffffffffffffffffffffffffffffff1673ffffffffffffffffffffffffffffffffffffffff168152602001908152602001600020549050919050565b610f7a611f0c565b73ffffffffffffffffffffffffffffffffffffffff16610f98610ff8565b73ffffffffffffffffffffffffffffffffffffffff1614610fee576040517f08c379a0000000000000000000000000000000000000000000000000000000008152600401610fe590612b65565b60405180910390fd5b8060068190555050565b60008060009054906101000a900473ffffffffffffffffffffffffffffffffffffffff16905090565b611029611f0c565b73ffffffffffffffffffffffffffffffffffffffff16611047610ff8565b73ffffffffffffffffffffffffffffffffffffffff161461109d576040517f08c379a000000000000000000000000000000000000000000000000000000000815260040161109490612b65565b60405180910390fd5b600360009054906101000a900473ffffffffffffffffffffffffffffffffffffffff1673ffffffffffffffffffffffffffffffffffffffff16637d4aafb4826040518263ffffffff1660e01b81526004016110f89190612aa3565b600060405180830381600087803b15801561111257600080fd5b505af1158015611126573d6000803e3d6000fd5b5050505050565b611135611f0c565b73ffffffffffffffffffffffffffffffffffffffff16611153610ff8565b73ffffffffffffffffffffffffffffffffffffffff16146111a9576040517f08c379a00000000000000000000000000000000000000000000000000000000081526004016111a090612b65565b60405180910390fd5b600360009054906101000a900473ffffffffffffffffffffffffffffffffffffffff1673ffffffffffffffffffffffffffffffffffffffff1663f2fde38b826040518263ffffffff1660e01b815260040161120491906129e4565b600060405180830381600087803b15801561121e57600080fd5b505af1158015611232573d6000803e3d6000fd5b505050506112403082611fd8565b50565b61124b611f0c565b73ffffffffffffffffffffffffffffffffffffffff16611269610ff8565b73ffffffffffffffffffffffffffffffffffffffff16146112bf576040517f08c379a00000000000000000000000000000000000000000000000000000000081526004016112b690612b65565b60405180910390fd5b8060088190555050565b60606040518060400160405280600381526020017f4254530000000000000000000000000000000000000000000000000000000000815250905090565b60065481565b611314611f0c565b73ffffffffffffffffffffffffffffffffffffffff16611332610ff8565b73ffffffffffffffffffffffffffffffffffffffff1614611388576040517f08c379a000000000000000000000000000000000000000000000000000000000815260040161137f90612b65565b60405180910390fd5b80600260006101000a81548173ffffffffffffffffffffffffffffffffffffffff021916908373ffffffffffffffffffffffffffffffffffffffff16021790555050565b6113d4611f0c565b73ffffffffffffffffffffffffffffffffffffffff166113f2610ff8565b73ffffffffffffffffffffffffffffffffffffffff1614611448576040517f08c379a000000000000000000000000000000000000000000000000000000000815260040161143f90612b65565b60405180910390fd5b80600560006101000a81548160ff02191690831515021790555050565b60006001905090565b600560009054906101000a900460ff1681565b6060600461148e83612036565b60405160200161149f9291906129c0565b6040516020818303038152906040529050919050565b806006544210156114fb576040517f08c379a00000000000000000000000000000000000000000000000000000000081526004016114f290612b25565b60405180910390fd5b60075481600360009054906101000a900473ffffffffffffffffffffffffffffffffffffffff1673ffffffffffffffffffffffffffffffffffffffff166318160ddd6040518163ffffffff1660e01b815260040160206040518083038186803b15801561156757600080fd5b505afa15801561157b573d6000803e3d6000fd5b505050506040513d601f19601f8201168201806040525081019061159f91906125f5565b6115a99190612cc9565b11156115ea576040517f08c379a00000000000000000000000000000000000000000000000000000000081526004016115e190612ac5565b60405180910390fd5b6116093373ffffffffffffffffffffffffffffffffffffffff166121e3565b15801561164157503373ffffffffffffffffffffffffffffffffffffffff163273ffffffffffffffffffffffffffffffffffffffff16145b611680576040517f08c379a000000000000000000000000000000000000000000000000000000000815260040161167790612bc5565b60405180910390fd5b6000826009546116909190612d50565b9050600083116116d5576040517f08c379a00000000000000000000000000000000000000000000000000000000081526004016116cc90612ae5565b60405180910390fd5b60085483600b60003373ffffffffffffffffffffffffffffffffffffffff1673ffffffffffffffffffffffffffffffffffffffff168152602001908152602001600020546117239190612cc9565b1115611764576040517f08c379a000000000000000000000000000000000000000000000000000000000815260040161175b90612ba5565b60405180910390fd5b80600260009054906101000a900473ffffffffffffffffffffffffffffffffffffffff1673ffffffffffffffffffffffffffffffffffffffff1663dd62ed3e33306040518363ffffffff1660e01b81526004016117c29291906129ff565b60206040518083038186803b1580156117da57600080fd5b505afa1580156117ee573d6000803e3d6000fd5b505050506040513d601f19601f8201168201806040525081019061181291906125f5565b1015611853576040517f08c379a000000000000000000000000000000000000000000000000000000000815260040161184a90612b85565b60405180910390fd5b6000600360009054906101000a900473ffffffffffffffffffffffffffffffffffffffff169050600260009054906101000a900473ffffffffffffffffffffffffffffffffffffffff1673ffffffffffffffffffffffffffffffffffffffff166323b872dd3330856040518463ffffffff1660e01b81526004016118d993929190612a28565b602060405180830381600087803b1580156118f357600080fd5b505af1158015611907573d6000803e3d6000fd5b505050506040513d601f19601f8201168201806040525081019061192b9190612539565b5060005b848110156119b5578173ffffffffffffffffffffffffffffffffffffffff1663755edd17336040518263ffffffff1660e01b815260040161197091906129e4565b600060405180830381600087803b15801561198a57600080fd5b505af115801561199e573d6000803e3d6000fd5b5050505080806119ad90612eac565b91505061192f565b5083600b60003373ffffffffffffffffffffffffffffffffffffffff1673ffffffffffffffffffffffffffffffffffffffff16815260200190815260200160002054611a019190612cc9565b600b60003373ffffffffffffffffffffffffffffffffffffffff1673ffffffffffffffffffffffffffffffffffffffff1681526020019081526020016000208190555050505050565b611a52611f0c565b73ffffffffffffffffffffffffffffffffffffffff16611a70610ff8565b73ffffffffffffffffffffffffffffffffffffffff1614611ac6576040517f08c379a0000000000000000000000000000000000000000000000000000000008152600401611abd90612b65565b60405180910390fd5b600360009054906101000a900473ffffffffffffffffffffffffffffffffffffffff1673ffffffffffffffffffffffffffffffffffffffff1663c92bb9ce826040518263ffffffff1660e01b8152600401611b219190612aa3565b600060405180830381600087803b158015611b3b57600080fd5b505af1158015611b4f573d6000803e3d6000fd5b5050505050565b600160009054906101000a900473ffffffffffffffffffffffffffffffffffffffff1681565b60008273ffffffffffffffffffffffffffffffffffffffff16611b9d610ff8565b73ffffffffffffffffffffffffffffffffffffffff16148015611beb57508173ffffffffffffffffffffffffffffffffffffffff168373ffffffffffffffffffffffffffffffffffffffff16145b15611bf95760019050611d2a565b6000600160009054906101000a900473ffffffffffffffffffffffffffffffffffffffff1690508373ffffffffffffffffffffffffffffffffffffffff16611c3f610ff8565b73ffffffffffffffffffffffffffffffffffffffff16148015611d1557508273ffffffffffffffffffffffffffffffffffffffff168173ffffffffffffffffffffffffffffffffffffffff1663c4552791866040518263ffffffff1660e01b8152600401611cad91906129e4565b60206040518083038186803b158015611cc557600080fd5b505afa158015611cd9573d6000803e3d6000fd5b505050506040513d601f19601f82011682018060405250810190611cfd9190612562565b73ffffffffffffffffffffffffffffffffffffffff16145b15611d24576001915050611d2a565b60009150505b92915050565b611d38611f0c565b73ffffffffffffffffffffffffffffffffffffffff16611d56610ff8565b73ffffffffffffffffffffffffffffffffffffffff1614611dac576040517f08c379a0000000000000000000000000000000000000000000000000000000008152600401611da390612b65565b60405180910390fd5b6000611db6610ff8565b9050611dc1826121f6565b611dcb8183611fd8565b5050565b611dd7611f0c565b73ffffffffffffffffffffffffffffffffffffffff16611df5610ff8565b73ffffffffffffffffffffffffffffffffffffffff1614611e4b576040517f08c379a0000000000000000000000000000000000000000000000000000000008152600401611e4290612b65565b60405180910390fd5b60005b8151811015611f02576001600a6000848481518110611e96577f4e487b7100000000000000000000000000000000000000000000000000000000600052603260045260246000fd5b602002602001015173ffffffffffffffffffffffffffffffffffffffff1673ffffffffffffffffffffffffffffffffffffffff16815260200190815260200160002060006101000a81548160ff0219169083151502179055508080611efa90612eac565b915050611e4e565b5050565b60085481565b600033905090565b60008060009054906101000a900473ffffffffffffffffffffffffffffffffffffffff169050816000806101000a81548173ffffffffffffffffffffffffffffffffffffffff021916908373ffffffffffffffffffffffffffffffffffffffff1602179055508173ffffffffffffffffffffffffffffffffffffffff168173ffffffffffffffffffffffffffffffffffffffff167f8be0079c531659141344cd1fd0a4f28419497f9722a3daafe3b4186f6b6457e060405160405180910390a35050565b8073ffffffffffffffffffffffffffffffffffffffff168273ffffffffffffffffffffffffffffffffffffffff167f4853ae1b4d437c4255ac16cd3ceda3465975023f27cb141584cd9d44440fed8260405160405180910390a35050565b6060600082141561207e576040518060400160405280600181526020017f300000000000000000000000000000000000000000000000000000000000000081525090506121de565b600082905060005b600082146120b057808061209990612eac565b915050600a826120a99190612d1f565b9150612086565b60008167ffffffffffffffff8111156120f2577f4e487b7100000000000000000000000000000000000000000000000000000000600052604160045260246000fd5b6040519080825280601f01601f1916602001820160405280156121245781602001600182028036833780820191505090505b5090505b600085146121d75760018261213d9190612daa565b9150600a8561214c9190612ef5565b60306121589190612cc9565b60f81b818381518110612194577f4e487b7100000000000000000000000000000000000000000000000000000000600052603260045260246000fd5b60200101907effffffffffffffffffffffffffffffffffffffffffffffffffffffffffffff1916908160001a905350600a856121d09190612d1f565b9450612128565b8093505050505b919050565b600080823b905060008111915050919050565b6121fe611f0c565b73ffffffffffffffffffffffffffffffffffffffff1661221c610ff8565b73ffffffffffffffffffffffffffffffffffffffff1614612272576040517f08c379a000000000000000000000000000000000000000000000000000000000815260040161226990612b65565b60405180910390fd5b600073ffffffffffffffffffffffffffffffffffffffff168173ffffffffffffffffffffffffffffffffffffffff1614156122e2576040517f08c379a00000000000000000000000000000000000000000000000000000000081526004016122d990612b05565b60405180910390fd5b6122eb81611f14565b50565b60006123016122fc84612c31565b612c00565b9050808382526020820190508285602086028201111561232057600080fd5b60005b8581101561235057816123368882612398565b845260208401935060208301925050600181019050612323565b5050509392505050565b600061236d61236884612c5d565b612c00565b90508281526020810184848401111561238557600080fd5b612390848285612e38565b509392505050565b6000813590506123a781612ff3565b92915050565b600082601f8301126123be57600080fd5b81356123ce8482602086016122ee565b91505092915050565b6000813590506123e68161300a565b92915050565b6000815190506123fb8161300a565b92915050565b60008151905061241081613021565b92915050565b600082601f83011261242757600080fd5b813561243784826020860161235a565b91505092915050565b60008135905061244f81613038565b92915050565b60008151905061246481613038565b92915050565b60006020828403121561247c57600080fd5b600061248a84828501612398565b91505092915050565b600080604083850312156124a657600080fd5b60006124b485828601612398565b92505060206124c585828601612398565b9150509250929050565b6000602082840312156124e157600080fd5b600082013567ffffffffffffffff8111156124fb57600080fd5b612507848285016123ad565b91505092915050565b60006020828403121561252257600080fd5b6000612530848285016123d7565b91505092915050565b60006020828403121561254b57600080fd5b6000612559848285016123ec565b91505092915050565b60006020828403121561257457600080fd5b600061258284828501612401565b91505092915050565b60006020828403121561259d57600080fd5b600082013567ffffffffffffffff8111156125b757600080fd5b6125c384828501612416565b91505092915050565b6000602082840312156125de57600080fd5b60006125ec84828501612440565b91505092915050565b60006020828403121561260757600080fd5b600061261584828501612455565b91505092915050565b61262781612dde565b82525050565b61263681612df0565b82525050565b600061264782612ca2565b6126518185612cad565b9350612661818560208601612e47565b61266a81612fe2565b840191505092915050565b600061268082612ca2565b61268a8185612cbe565b935061269a818560208601612e47565b80840191505092915050565b600081546126b381612e7a565b6126bd8186612cbe565b945060018216600081146126d857600181146126e95761271c565b60ff1983168652818601935061271c565b6126f285612c8d565b60005b83811015612714578154818901526001820191506020810190506126f5565b838801955050505b50505092915050565b6000612732601483612cad565b91507f4d6178696d756d206d696e7420726561636865640000000000000000000000006000830152602082019050919050565b6000612772602183612cad565b91507f4d696e74206e756d6265722073686f756c64206265206f6e65206f72206d6f7260008301527f65000000000000000000000000000000000000000000000000000000000000006020830152604082019050919050565b60006127d8602683612cad565b91507f4f776e61626c653a206e6577206f776e657220697320746865207a65726f206160008301527f64647265737300000000000000000000000000000000000000000000000000006020830152604082019050919050565b600061283e601083612cad565b91507f4d696e74206e6f742073746172746564000000000000000000000000000000006000830152602082019050919050565b600061287e601c83612cad565b91507f4163636f756e74206e6f7420656c696769626c6520746f206d696e74000000006000830152602082019050919050565b60006128be602083612cad565b91507f4f776e61626c653a2063616c6c6572206973206e6f7420746865206f776e65726000830152602082019050919050565b60006128fe601483612cad565b91507f416c6c6f77616e6365206e6f7420656e6f7567680000000000000000000000006000830152602082019050919050565b600061293e601c83612cad565b91507f4d6178206d696e742070657220616464726573732072656163686564000000006000830152602082019050919050565b600061297e601683612cad565b91507f436f6e7472616374732063616e6e6f74206d696e742e000000000000000000006000830152602082019050919050565b6129ba81612e2e565b82525050565b60006129cc82856126a6565b91506129d88284612675565b91508190509392505050565b60006020820190506129f9600083018461261e565b92915050565b6000604082019050612a14600083018561261e565b612a21602083018461261e565b9392505050565b6000606082019050612a3d600083018661261e565b612a4a602083018561261e565b612a5760408301846129b1565b949350505050565b6000604082019050612a74600083018561261e565b612a8160208301846129b1565b9392505050565b6000602082019050612a9d600083018461262d565b92915050565b60006020820190508181036000830152612abd818461263c565b905092915050565b60006020820190508181036000830152612ade81612725565b9050919050565b60006020820190508181036000830152612afe81612765565b9050919050565b60006020820190508181036000830152612b1e816127cb565b9050919050565b60006020820190508181036000830152612b3e81612831565b9050919050565b60006020820190508181036000830152612b5e81612871565b9050919050565b60006020820190508181036000830152612b7e816128b1565b9050919050565b60006020820190508181036000830152612b9e816128f1565b9050919050565b60006020820190508181036000830152612bbe81612931565b9050919050565b60006020820190508181036000830152612bde81612971565b9050919050565b6000602082019050612bfa60008301846129b1565b92915050565b6000604051905081810181811067ffffffffffffffff82111715612c2757612c26612fb3565b5b8060405250919050565b600067ffffffffffffffff821115612c4c57612c4b612fb3565b5b602082029050602081019050919050565b600067ffffffffffffffff821115612c7857612c77612fb3565b5b601f19601f8301169050602081019050919050565b60008190508160005260206000209050919050565b600081519050919050565b600082825260208201905092915050565b600081905092915050565b6000612cd482612e2e565b9150612cdf83612e2e565b9250827fffffffffffffffffffffffffffffffffffffffffffffffffffffffffffffffff03821115612d1457612d13612f26565b5b828201905092915050565b6000612d2a82612e2e565b9150612d3583612e2e565b925082612d4557612d44612f55565b5b828204905092915050565b6000612d5b82612e2e565b9150612d6683612e2e565b9250817fffffffffffffffffffffffffffffffffffffffffffffffffffffffffffffffff0483118215151615612d9f57612d9e612f26565b5b828202905092915050565b6000612db582612e2e565b9150612dc083612e2e565b925082821015612dd357612dd2612f26565b5b828203905092915050565b6000612de982612e0e565b9050919050565b60008115159050919050565b6000612e0782612dde565b9050919050565b600073ffffffffffffffffffffffffffffffffffffffff82169050919050565b6000819050919050565b82818337600083830152505050565b60005b83811015612e65578082015181840152602081019050612e4a565b83811115612e74576000848401525b50505050565b60006002820490506001821680612e9257607f821691505b60208210811415612ea657612ea5612f84565b5b50919050565b6000612eb782612e2e565b91507fffffffffffffffffffffffffffffffffffffffffffffffffffffffffffffffff821415612eea57612ee9612f26565b5b600182019050919050565b6000612f0082612e2e565b9150612f0b83612e2e565b925082612f1b57612f1a612f55565b5b828206905092915050565b7f4e487b7100000000000000000000000000000000000000000000000000000000600052601160045260246000fd5b7f4e487b7100000000000000000000000000000000000000000000000000000000600052601260045260246000fd5b7f4e487b7100000000000000000000000000000000000000000000000000000000600052602260045260246000fd5b7f4e487b7100000000000000000000000000000000000000000000000000000000600052604160045260246000fd5b6000601f19601f8301169050919050565b612ffc81612dde565b811461300757600080fd5b50565b61301381612df0565b811461301e57600080fd5b50565b61302a81612dfc565b811461303557600080fd5b50565b61304181612e2e565b811461304c57600080fd5b5056fea264697066735822122097e4c1ad254ebf9ef85f1799f6aa1f5f235e1d466e7973f08804889a938f526164736f6c6343000800003368747470733a2f2f676174657761792e70696e6174612e636c6f75642f697066732f516d644c594b34424b635a7235657061754e56643275666a3755746e66676561537758735865646d474b64644437",
  "immutableReferences": {},
  "source": "// SPDX-License-Identifier: MIT\n\npragma solidity ^0.8.0;\n\nimport \"@openzeppelin/contracts/access/Ownable.sol\";\nimport \"@openzeppelin/contracts/utils/Strings.sol\";\nimport \"./IFactoryERC721.sol\";\nimport \"./BullTycoons.sol\";\nimport \"@openzeppelin/contracts/utils/Address.sol\";\nimport \"@openzeppelin/contracts/token/ERC20/IERC20.sol\";\nimport \"@openzeppelin/contracts/utils/math/SafeMath.sol\";\n\n\ncontract BullTycoonsFactory is FactoryERC721, Ownable {\n    using Strings for string;\n    using Address for address;\n    using SafeMath for uint256;\n\n    event Transfer(\n        address indexed from,\n        address indexed to\n    );\n\n    address public proxyRegistryAddress;\n    address public wethAddress = 0x7ceB23fD6bC0adD59E62ac25578270cFf1b9f619;\n    address public nftAddress;\n    string public baseURI = \"https://gateway.pinata.cloud/ipfs/QmdLYK4BKcZr5epauNVd2ufj7UtnfgeaSwXsXedmGKddD7\";\n    bool public MINT_START = false;\n    uint256 public MINT_START_DATE;\n\n    /*\n     * Enforce the existence of only 5000 BullTycoons .\n     */\n    uint256 TOTAL_BULL_SUPPLY = 5000;\n    uint256 public MINT_PER_PERSON = 5;\n\n    constructor(address _proxyRegistryAddress, address _nftAddress) {\n        proxyRegistryAddress = _proxyRegistryAddress;\n        nftAddress = _nftAddress;\n\n        fireTransferEvents(address(0), owner());\n        MINT_START_DATE = block.timestamp + 5 minutes;\n    }\n\n    function setMaxSupply(uint256 _maxSupply) public onlyOwner() {\n        TOTAL_BULL_SUPPLY = _maxSupply;\n    }\n\n    function setMaxMintPerPerson(uint256 _maxMintPerPerson) public onlyOwner() {\n        MINT_PER_PERSON = _maxMintPerPerson;\n    }\n\n    function getMaxSupply() public view returns (uint256) {\n        return TOTAL_BULL_SUPPLY;\n    }\n\n    function name() override external pure returns (string memory) {\n        return \"BullTycoons Mint\";\n    }\n\n    function symbol() override external pure returns (string memory) {\n        return \"BTS\";\n    }\n\n    function supportsFactoryInterface() override public pure returns (bool) {\n        return true;\n    }\n\n     function numOptions() override public view returns (uint256) {\n        return MINT_PER_PERSON;\n    }\n\n    function transferOwnership(address newOwner) override public onlyOwner {\n        address _prevOwner = owner();\n        super.transferOwnership(newOwner);\n        fireTransferEvents(_prevOwner, newOwner);\n    }\n\n    function transferNFTAdminRole(address newOwner) public onlyOwner {\n        BullTycoons(nftAddress).transferOwnership(newOwner);\n        fireTransferEvents(address(this), newOwner);\n    }\n\n    function fireTransferEvents(address _from, address _to) private {\n        emit Transfer(_from, _to);\n    }\n\n    /* Presale Minting: Start */\n\n    uint public PRESALE_AMOUNT = 5 * 10 ** 16; // Equivalent of 0.05 ETH\n    mapping(address => bool) addressWhitelisted;\n    mapping(address => uint256) addressToMints;\n    modifier addressCanMint() {\n        require(!address(msg.sender).isContract() && tx.origin == msg.sender, \"Contracts cannot mint.\");\n        _;\n    }\n\n    modifier isMintable(uint256 _mintNumber) {\n        // require(MINT_START, \"Mint not started\");\n        require(block.timestamp >= MINT_START_DATE, \"Mint not started\");\n        require((BullTycoons(nftAddress).totalSupply() + _mintNumber) <= TOTAL_BULL_SUPPLY, \"Maximum mint reached\");\n        _;\n    }\n\n    // Admin funcions start --\n    // set start minting to be true or false\n    function setStartMinting(bool _startMinting) public onlyOwner() {\n        MINT_START = _startMinting;\n    }\n\n    function setMintStartDate(uint256 _startDate) public onlyOwner() {\n        MINT_START_DATE = _startDate;\n    }\n\n    // To be able to set weth address - just in case\n    function setWethAddress(address _wethAddress) public onlyOwner() {\n        wethAddress = _wethAddress;\n    }\n\n    // set minting price\n    function setPresaleAmount(uint256 _presaleAmount) public onlyOwner() {\n        PRESALE_AMOUNT = _presaleAmount;\n    }\n\n    // set whitelist addresses\n    function setWhitelist(address[] memory _addresses) public onlyOwner() {\n        for (uint256 i = 0; i < _addresses.length; i++) {\n            addressWhitelisted[_addresses[i]] = true;\n        }\n    }\n\n    // set bridge address\n    function setBridgeAddress(address _bridgeAddress) public onlyOwner() {\n        BullTycoons(nftAddress)._setBridgeAddress(_bridgeAddress);\n    }\n\n    // set base token URI\n    function setBaseTokenUri(string memory _baseUri) public onlyOwner() {\n        BullTycoons(nftAddress)._setBaseTokenURI(_baseUri);\n    }\n\n    // set contract URI\n    function setContractUri(string memory _contractUri) public onlyOwner() {\n        BullTycoons(nftAddress)._setContractURI(_contractUri);\n    }\n    // Admin functions done --\n\n    // Whitelist start --\n    \n    function checkWhitelisted(address _address) public view returns(bool _isWhitelisted) {\n        return addressWhitelisted[_address];\n    }\n\n    function whitelistMint() public isMintable(1) {\n        require(addressWhitelisted[msg.sender], \"Account not eligible to mint\");\n        BullTycoons bullTycoons = BullTycoons(nftAddress);\n        bullTycoons.mintTo(msg.sender);\n        addressWhitelisted[msg.sender] = false;\n    }\n    // Whitelist end --\n\n    function presaleMint(uint256 _mintNumber) public isMintable(_mintNumber) addressCanMint() {\n        uint256 mintCost = PRESALE_AMOUNT * _mintNumber;\n        require(_mintNumber > 0, \"Mint number should be one or more\");\n        require((addressToMints[msg.sender] + _mintNumber) <= MINT_PER_PERSON, \"Max mint per address reached\");\n        require(IERC20(wethAddress).allowance(msg.sender, address(this)) >= mintCost, \"Allowance not enough\");\n        BullTycoons bullTycoons = BullTycoons(nftAddress);\n        IERC20(wethAddress).transferFrom(msg.sender, address(this), mintCost);\n        for (uint256 i = 0; i < _mintNumber; i++ ) {\n            bullTycoons.mintTo(msg.sender);\n        }\n        addressToMints[msg.sender] = addressToMints[msg.sender] + _mintNumber;\n    }\n\n    function getNumberMinted(address _minter) public view returns(uint256 numberMinted) {\n        return addressToMints[_minter];\n    }\n\n    /* Presale Minting: End */\n\n    /* ------------------------ Admin Withdrawal: Start ------------------------------ */\n    function withdrawTokens(address[] memory tokenIds) public onlyOwner() {\n        for (uint256 i = 0; i < tokenIds.length; i++) {\n            IERC20 token = IERC20(tokenIds[i]);\n            token.transfer(msg.sender, token.balanceOf(address(this)));\n        }\n    }\n    /* ------------------------ Admin WithdrawWal: End ------------------------------ */\n\n    function tokenURI(uint256 _optionId) override external view returns (string memory) {\n        return string(abi.encodePacked(baseURI, Strings.toString(_optionId)));\n    }\n    /**\n     * Hack to get things to work automatically on OpenSea.\n     * Use isApprovedForAll so the frontend doesn't have to worry about different method names.\n     */\n    function isApprovedForAll(address _owner, address _operator)\n        public\n        view\n        returns (bool)\n    {\n        if (owner() == _owner && _owner == _operator) {\n            return true;\n        }\n\n        ProxyRegistry proxyRegistry = ProxyRegistry(proxyRegistryAddress);\n        if (\n            owner() == _owner &&\n            address(proxyRegistry.proxies(_owner)) == _operator\n        ) {\n            return true;\n        }\n\n        return false;\n    }\n\n    /**\n     * Hack to get things to work automatically on OpenSea.\n     * Use isApprovedForAll so the frontend doesn't have to worry about different method names.\n     */\n    function ownerOf(uint256 _tokenId) public view returns (address _owner) {\n        return owner();\n    }\n}\n",
  "sourcePath": "/Users/olayinkaokewale/Documents/bull_nft/bulltycoons_contracts/contracts/BullTycoonsFactory.sol",
  "compiler": {
    "name": "solc",
    "version": "0.8.0+commit.c7dfd78e.Emscripten.clang"
  },
  "schemaVersion": "3.3.2",
  "updatedAt": "2021-11-18T05:02:55.038Z",
  "devdoc": {
    "kind": "dev",
    "methods": {
      "owner()": {
        "details": "Returns the address of the current owner."
      },
      "renounceOwnership()": {
        "details": "Leaves the contract without owner. It will not be possible to call `onlyOwner` functions anymore. Can only be called by the current owner. NOTE: Renouncing ownership will leave the contract without an owner, thereby removing any functionality that is only available to the owner."
      },
      "tokenURI(uint256)": {
        "details": "Returns a URL specifying some metadata about the option. This metadata can be of the same structure as the ERC721 metadata."
      },
      "transferOwnership(address)": {
        "details": "Transfers ownership of the contract to a new account (`newOwner`). Can only be called by the current owner."
      }
    },
    "version": 1
  },
  "userdoc": {
    "kind": "user",
    "methods": {
      "isApprovedForAll(address,address)": {
        "notice": "Hack to get things to work automatically on OpenSea. Use isApprovedForAll so the frontend doesn't have to worry about different method names."
      },
      "name()": {
        "notice": "Returns the name of this factory."
      },
      "numOptions()": {
        "notice": "Number of options the factory supports."
      },
      "ownerOf(uint256)": {
        "notice": "Hack to get things to work automatically on OpenSea. Use isApprovedForAll so the frontend doesn't have to worry about different method names."
      },
      "supportsFactoryInterface()": {
        "notice": "Indicates that this is a factory contract. Ideally would use EIP 165 supportsInterface()"
      },
      "symbol()": {
        "notice": "Returns the symbol for this factory."
      }
    },
    "version": 1
  }
}