{
  "contractName": "BullTycoonsFactoryMock",
  "abi": [
    {
      "inputs": [
        {
          "internalType": "address",
          "name": "_proxyRegistryAddress",
          "type": "address"
        },
        {
          "internalType": "address",
          "name": "_nftAddress",
          "type": "address"
        },
        {
          "internalType": "address",
          "name": "_wethAddress",
          "type": "address"
        }
      ],
      "stateMutability": "nonpayable",
      "type": "constructor"
    },
    {
      "anonymous": false,
      "inputs": [
        {
          "indexed": true,
          "internalType": "address",
          "name": "previousOwner",
          "type": "address"
        },
        {
          "indexed": true,
          "internalType": "address",
          "name": "newOwner",
          "type": "address"
        }
      ],
      "name": "OwnershipTransferred",
      "type": "event"
    },
    {
      "anonymous": false,
      "inputs": [
        {
          "indexed": true,
          "internalType": "address",
          "name": "from",
          "type": "address"
        },
        {
          "indexed": true,
          "internalType": "address",
          "name": "to",
          "type": "address"
        },
        {
          "indexed": true,
          "internalType": "uint256",
          "name": "tokenId",
          "type": "uint256"
        }
      ],
      "name": "Transfer",
      "type": "event"
    },
    {
      "inputs": [],
      "name": "MINT_START",
      "outputs": [
        {
          "internalType": "bool",
          "name": "",
          "type": "bool"
        }
      ],
      "stateMutability": "view",
      "type": "function",
      "constant": true
    },
    {
      "inputs": [],
      "name": "PRESALE_AMOUNT",
      "outputs": [
        {
          "internalType": "uint256",
          "name": "",
          "type": "uint256"
        }
      ],
      "stateMutability": "view",
      "type": "function",
      "constant": true
    },
    {
      "inputs": [],
      "name": "baseURI",
      "outputs": [
        {
          "internalType": "string",
          "name": "",
          "type": "string"
        }
      ],
      "stateMutability": "view",
      "type": "function",
      "constant": true
    },
    {
      "inputs": [
        {
          "internalType": "uint256",
          "name": "_optionId",
          "type": "uint256"
        }
      ],
      "name": "canMint",
      "outputs": [
        {
          "internalType": "bool",
          "name": "",
          "type": "bool"
        }
      ],
      "stateMutability": "view",
      "type": "function",
      "constant": true
    },
    {
      "inputs": [
        {
          "internalType": "address",
          "name": "_address",
          "type": "address"
        }
      ],
      "name": "checkWhitelisted",
      "outputs": [
        {
          "internalType": "bool",
          "name": "_isWhitelisted",
          "type": "bool"
        }
      ],
      "stateMutability": "view",
      "type": "function",
      "constant": true
    },
    {
      "inputs": [],
      "name": "getMaxSupply",
      "outputs": [
        {
          "internalType": "uint256",
          "name": "",
          "type": "uint256"
        }
      ],
      "stateMutability": "view",
      "type": "function",
      "constant": true
    },
    {
      "inputs": [
        {
          "internalType": "address",
          "name": "_minter",
          "type": "address"
        }
      ],
      "name": "getNumberMinted",
      "outputs": [
        {
          "internalType": "uint256",
          "name": "numberMinted",
          "type": "uint256"
        }
      ],
      "stateMutability": "view",
      "type": "function",
      "constant": true
    },
    {
      "inputs": [
        {
          "internalType": "address",
          "name": "_owner",
          "type": "address"
        },
        {
          "internalType": "address",
          "name": "_operator",
          "type": "address"
        }
      ],
      "name": "isApprovedForAll",
      "outputs": [
        {
          "internalType": "bool",
          "name": "",
          "type": "bool"
        }
      ],
      "stateMutability": "view",
      "type": "function",
      "constant": true
    },
    {
      "inputs": [
        {
          "internalType": "uint256",
          "name": "_optionId",
          "type": "uint256"
        },
        {
          "internalType": "address",
          "name": "_toAddress",
          "type": "address"
        }
      ],
      "name": "mint",
      "outputs": [],
      "stateMutability": "nonpayable",
      "type": "function"
    },
    {
      "inputs": [],
      "name": "name",
      "outputs": [
        {
          "internalType": "string",
          "name": "",
          "type": "string"
        }
      ],
      "stateMutability": "pure",
      "type": "function",
      "constant": true
    },
    {
      "inputs": [],
      "name": "nftAddress",
      "outputs": [
        {
          "internalType": "address",
          "name": "",
          "type": "address"
        }
      ],
      "stateMutability": "view",
      "type": "function",
      "constant": true
    },
    {
      "inputs": [],
      "name": "numOptions",
      "outputs": [
        {
          "internalType": "uint256",
          "name": "",
          "type": "uint256"
        }
      ],
      "stateMutability": "view",
      "type": "function",
      "constant": true
    },
    {
      "inputs": [],
      "name": "owner",
      "outputs": [
        {
          "internalType": "address",
          "name": "",
          "type": "address"
        }
      ],
      "stateMutability": "view",
      "type": "function",
      "constant": true
    },
    {
      "inputs": [
        {
          "internalType": "uint256",
          "name": "_tokenId",
          "type": "uint256"
        }
      ],
      "name": "ownerOf",
      "outputs": [
        {
          "internalType": "address",
          "name": "_owner",
          "type": "address"
        }
      ],
      "stateMutability": "view",
      "type": "function",
      "constant": true
    },
    {
      "inputs": [],
      "name": "presaleMint",
      "outputs": [],
      "stateMutability": "nonpayable",
      "type": "function"
    },
    {
      "inputs": [],
      "name": "proxyRegistryAddress",
      "outputs": [
        {
          "internalType": "address",
          "name": "",
          "type": "address"
        }
      ],
      "stateMutability": "view",
      "type": "function",
      "constant": true
    },
    {
      "inputs": [],
      "name": "renounceOwnership",
      "outputs": [],
      "stateMutability": "nonpayable",
      "type": "function"
    },
    {
      "inputs": [
        {
          "internalType": "string",
          "name": "_baseUri",
          "type": "string"
        }
      ],
      "name": "setBaseTokenUri",
      "outputs": [],
      "stateMutability": "nonpayable",
      "type": "function"
    },
    {
      "inputs": [
        {
          "internalType": "address",
          "name": "_bridgeAddress",
          "type": "address"
        }
      ],
      "name": "setBridgeAddress",
      "outputs": [],
      "stateMutability": "nonpayable",
      "type": "function"
    },
    {
      "inputs": [
        {
          "internalType": "string",
          "name": "_contractUri",
          "type": "string"
        }
      ],
      "name": "setContractUri",
      "outputs": [],
      "stateMutability": "nonpayable",
      "type": "function"
    },
    {
      "inputs": [
        {
          "internalType": "uint256",
          "name": "_maxSupply",
          "type": "uint256"
        }
      ],
      "name": "setMaxSupply",
      "outputs": [],
      "stateMutability": "nonpayable",
      "type": "function"
    },
    {
      "inputs": [
        {
          "internalType": "uint256",
          "name": "_presaleAmount",
          "type": "uint256"
        }
      ],
      "name": "setPresaleAmount",
      "outputs": [],
      "stateMutability": "nonpayable",
      "type": "function"
    },
    {
      "inputs": [
        {
          "internalType": "bool",
          "name": "_startMinting",
          "type": "bool"
        }
      ],
      "name": "setStartMinting",
      "outputs": [],
      "stateMutability": "nonpayable",
      "type": "function"
    },
    {
      "inputs": [
        {
          "internalType": "address[]",
          "name": "_addresses",
          "type": "address[]"
        }
      ],
      "name": "setWhitelist",
      "outputs": [],
      "stateMutability": "nonpayable",
      "type": "function"
    },
    {
      "inputs": [],
      "name": "supportsFactoryInterface",
      "outputs": [
        {
          "internalType": "bool",
          "name": "",
          "type": "bool"
        }
      ],
      "stateMutability": "pure",
      "type": "function",
      "constant": true
    },
    {
      "inputs": [],
      "name": "symbol",
      "outputs": [
        {
          "internalType": "string",
          "name": "",
          "type": "string"
        }
      ],
      "stateMutability": "pure",
      "type": "function",
      "constant": true
    },
    {
      "inputs": [
        {
          "internalType": "uint256",
          "name": "_optionId",
          "type": "uint256"
        }
      ],
      "name": "tokenURI",
      "outputs": [
        {
          "internalType": "string",
          "name": "",
          "type": "string"
        }
      ],
      "stateMutability": "view",
      "type": "function",
      "constant": true
    },
    {
      "inputs": [
        {
          "internalType": "address",
          "name": "_from",
          "type": "address"
        },
        {
          "internalType": "address",
          "name": "_to",
          "type": "address"
        },
        {
          "internalType": "uint256",
          "name": "_tokenId",
          "type": "uint256"
        }
      ],
      "name": "transferFrom",
      "outputs": [],
      "stateMutability": "nonpayable",
      "type": "function"
    },
    {
      "inputs": [
        {
          "internalType": "address",
          "name": "newOwner",
          "type": "address"
        }
      ],
      "name": "transferOwnership",
      "outputs": [],
      "stateMutability": "nonpayable",
      "type": "function"
    },
    {
      "inputs": [],
      "name": "wethAddress",
      "outputs": [
        {
          "internalType": "address",
          "name": "",
          "type": "address"
        }
      ],
      "stateMutability": "view",
      "type": "function",
      "constant": true
    },
    {
      "inputs": [],
      "name": "whitelistMint",
      "outputs": [],
      "stateMutability": "nonpayable",
      "type": "function"
    }
  ],
  "bytecode": "0x6080604052737ceb23fd6bc0add59e62ac25578270cff1b9f619600260006101000a81548173ffffffffffffffffffffffffffffffffffffffff021916908373ffffffffffffffffffffffffffffffffffffffff160217905550604051806080016040528060508152602001620033cc60509139600490805190602001906200008a92919062000389565b506000600560006101000a81548160ff0219169083151502179055506103e86006556003600755600060085560016009556004600a5566b1a2bc2ec50000600b55348015620000d857600080fd5b506040516200341c3803806200341c8339818101604052810190620000fe919062000450565b828262000120620001146200021060201b60201c565b6200021860201b60201c565b81600160006101000a81548173ffffffffffffffffffffffffffffffffffffffff021916908373ffffffffffffffffffffffffffffffffffffffff16021790555080600360006101000a81548173ffffffffffffffffffffffffffffffffffffffff021916908373ffffffffffffffffffffffffffffffffffffffff160217905550620001c46000620001b8620002dc60201b60201c565b6200030560201b60201c565b505080600260006101000a81548173ffffffffffffffffffffffffffffffffffffffff021916908373ffffffffffffffffffffffffffffffffffffffff160217905550505050620005e0565b600033905090565b60008060009054906101000a900473ffffffffffffffffffffffffffffffffffffffff169050816000806101000a81548173ffffffffffffffffffffffffffffffffffffffff021916908373ffffffffffffffffffffffffffffffffffffffff1602179055508173ffffffffffffffffffffffffffffffffffffffff168173ffffffffffffffffffffffffffffffffffffffff167f8be0079c531659141344cd1fd0a4f28419497f9722a3daafe3b4186f6b6457e060405160405180910390a35050565b60008060009054906101000a900473ffffffffffffffffffffffffffffffffffffffff16905090565b60005b6007548110156200038457808273ffffffffffffffffffffffffffffffffffffffff168473ffffffffffffffffffffffffffffffffffffffff167fddf252ad1be2c89b69c2b068fc378daa952ba7f163c4a11628f55a4df523b3ef60405160405180910390a480806200037b906200051a565b91505062000308565b505050565b8280546200039790620004e4565b90600052602060002090601f016020900481019282620003bb576000855562000407565b82601f10620003d657805160ff191683800117855562000407565b8280016001018555821562000407579182015b8281111562000406578251825591602001919060010190620003e9565b5b5090506200041691906200041a565b5090565b5b80821115620004355760008160009055506001016200041b565b5090565b6000815190506200044a81620005c6565b92915050565b6000806000606084860312156200046657600080fd5b6000620004768682870162000439565b9350506020620004898682870162000439565b92505060406200049c8682870162000439565b9150509250925092565b6000620004b382620004ba565b9050919050565b600073ffffffffffffffffffffffffffffffffffffffff82169050919050565b6000819050919050565b60006002820490506001821680620004fd57607f821691505b6020821081141562000514576200051362000597565b5b50919050565b60006200052782620004da565b91507fffffffffffffffffffffffffffffffffffffffffffffffffffffffffffffffff8214156200055d576200055c62000568565b5b600182019050919050565b7f4e487b7100000000000000000000000000000000000000000000000000000000600052601160045260246000fd5b7f4e487b7100000000000000000000000000000000000000000000000000000000600052602260045260246000fd5b620005d181620004a6565b8114620005dd57600080fd5b50565b612ddc80620005f06000396000f3fe608060405234801561001057600080fd5b50600436106101e55760003560e01c80637f5a22f91161010f578063c311c523116100a2578063cd7c032611610071578063cd7c032614610522578063e985e9c514610540578063f2fde38b14610570578063f42176481461058c576101e5565b8063c311c5231461049a578063c6374d0c146104b8578063c87b56dd146104d6578063ccb4807b14610506576101e5565b806394bf804d116100de57806394bf804d1461042857806395652cfa1461044457806395d89b4114610460578063b66cc2851461047e576101e5565b80637f5a22f9146103b4578063804f43cd146103d05780638a59a7fd146103da5780638da5cb5b1461040a576101e5565b806359533d6c116101875780636c0360eb116101565780636c0360eb146103525780636d120237146103705780636f8b44b01461038e578063715018a6146103aa576101e5565b806359533d6c146102ca5780635bf8633a146102d45780635dd871a3146102f25780636352211e14610322576101e5565b80634b97aed9116101c35780634b97aed9146102545780634c0f38c2146102725780634f0e0ef31461029057806357dc4134146102ae576101e5565b806306fdde03146101ea57806320d8dad01461020857806323b872dd14610238575b600080fd5b6101f26105a8565b6040516101ff9190612874565b60405180910390f35b610222600480360381019061021d919061223f565b6105e5565b60405161022f9190612859565b60405180910390f35b610252600480360381019061024d91906122a4565b61063b565b005b61025c61064a565b6040516102699190612996565b60405180910390f35b61027a610654565b6040516102879190612996565b60405180910390f35b61029861065e565b6040516102a591906127de565b60405180910390f35b6102c860048036038101906102c391906123f0565b610684565b005b6102d261070a565b005b6102dc610c1d565b6040516102e991906127de565b60405180910390f35b61030c600480360381019061030791906123f0565b610c43565b6040516103199190612859565b60405180910390f35b61033c600480360381019061033791906123f0565b610d41565b60405161034991906127de565b60405180910390f35b61035a610d52565b6040516103679190612874565b60405180910390f35b610378610de0565b6040516103859190612996565b60405180910390f35b6103a860048036038101906103a391906123f0565b610de6565b005b6103b2610e6c565b005b6103ce60048036038101906103c9919061223f565b610ef4565b005b6103d8611000565b005b6103f460048036038101906103ef919061223f565b6112ab565b6040516104019190612996565b60405180910390f35b6104126112f4565b60405161041f91906127de565b60405180910390f35b610442600480360381019061043d9190612442565b61131d565b005b61045e600480360381019061045991906123af565b6115d1565b005b6104686116dd565b6040516104759190612874565b60405180910390f35b61049860048036038101906104939190612334565b61171a565b005b6104a26117b3565b6040516104af9190612859565b60405180910390f35b6104c06117bc565b6040516104cd9190612859565b60405180910390f35b6104f060048036038101906104eb91906123f0565b6117cf565b6040516104fd9190612874565b60405180910390f35b610520600480360381019061051b91906123af565b611803565b005b61052a61190f565b60405161053791906127de565b60405180910390f35b61055a60048036038101906105559190612268565b611935565b6040516105679190612859565b60405180910390f35b61058a6004803603810190610585919061223f565b611ae9565b005b6105a660048036038101906105a191906122f3565b611b88565b005b60606040518060400160405280601081526020017f42756c6c5479636f6f6e73204d696e7400000000000000000000000000000000815250905090565b6000600c60008373ffffffffffffffffffffffffffffffffffffffff1673ffffffffffffffffffffffffffffffffffffffff16815260200190815260200160002060009054906101000a900460ff169050919050565b610645818361131d565b505050565b6000600754905090565b6000600654905090565b600260009054906101000a900473ffffffffffffffffffffffffffffffffffffffff1681565b61068c611cbf565b73ffffffffffffffffffffffffffffffffffffffff166106aa6112f4565b73ffffffffffffffffffffffffffffffffffffffff1614610700576040517f08c379a00000000000000000000000000000000000000000000000000000000081526004016106f790612936565b60405180910390fd5b80600b8190555050565b600560009054906101000a900460ff16610759576040517f08c379a0000000000000000000000000000000000000000000000000000000008152600401610750906128f6565b60405180910390fd5b600654600360009054906101000a900473ffffffffffffffffffffffffffffffffffffffff1673ffffffffffffffffffffffffffffffffffffffff166318160ddd6040518163ffffffff1660e01b815260040160206040518083038186803b1580156107c457600080fd5b505afa1580156107d8573d6000803e3d6000fd5b505050506040513d601f19601f820116820180604052508101906107fc9190612419565b1061083c576040517f08c379a0000000000000000000000000000000000000000000000000000000008152600401610833906128b6565b60405180910390fd5b61085b3373ffffffffffffffffffffffffffffffffffffffff16611cc7565b15801561089357503373ffffffffffffffffffffffffffffffffffffffff163273ffffffffffffffffffffffffffffffffffffffff16145b6108d2576040517f08c379a00000000000000000000000000000000000000000000000000000000081526004016108c990612976565b60405180910390fd5b6000600d60003373ffffffffffffffffffffffffffffffffffffffff1673ffffffffffffffffffffffffffffffffffffffff1681526020019081526020016000205414610954576040517f08c379a000000000000000000000000000000000000000000000000000000000815260040161094b90612896565b60405180910390fd5b600b54600260009054906101000a900473ffffffffffffffffffffffffffffffffffffffff1673ffffffffffffffffffffffffffffffffffffffff1663dd62ed3e33306040518363ffffffff1660e01b81526004016109b49291906127f9565b60206040518083038186803b1580156109cc57600080fd5b505afa1580156109e0573d6000803e3d6000fd5b505050506040513d601f19601f82011682018060405250810190610a049190612419565b1015610a45576040517f08c379a0000000000000000000000000000000000000000000000000000000008152600401610a3c90612956565b60405180910390fd5b6000600360009054906101000a900473ffffffffffffffffffffffffffffffffffffffff169050600260009054906101000a900473ffffffffffffffffffffffffffffffffffffffff1673ffffffffffffffffffffffffffffffffffffffff166323b872dd3330600b546040518463ffffffff1660e01b8152600401610acd93929190612822565b602060405180830381600087803b158015610ae757600080fd5b505af1158015610afb573d6000803e3d6000fd5b505050506040513d601f19601f82011682018060405250810190610b1f919061235d565b508073ffffffffffffffffffffffffffffffffffffffff1663755edd17336040518263ffffffff1660e01b8152600401610b5991906127de565b600060405180830381600087803b158015610b7357600080fd5b505af1158015610b87573d6000803e3d6000fd5b505050506001600d60003373ffffffffffffffffffffffffffffffffffffffff1673ffffffffffffffffffffffffffffffffffffffff16815260200190815260200160002054610bd79190612a7a565b600d60003373ffffffffffffffffffffffffffffffffffffffff1673ffffffffffffffffffffffffffffffffffffffff1681526020019081526020016000208190555050565b600360009054906101000a900473ffffffffffffffffffffffffffffffffffffffff1681565b60006007548210610c575760009050610d3c565b6000600360009054906101000a900473ffffffffffffffffffffffffffffffffffffffff16905060008173ffffffffffffffffffffffffffffffffffffffff166318160ddd6040518163ffffffff1660e01b815260040160206040518083038186803b158015610cc657600080fd5b505afa158015610cda573d6000803e3d6000fd5b505050506040513d601f19601f82011682018060405250810190610cfe9190612419565b90506000600854851415610d155760019050610d26565b600954851415610d2557600a5490505b5b80600654610d349190612b01565b821093505050505b919050565b6000610d4b6112f4565b9050919050565b60048054610d5f90612bd1565b80601f0160208091040260200160405190810160405280929190818152602001828054610d8b90612bd1565b8015610dd85780601f10610dad57610100808354040283529160200191610dd8565b820191906000526020600020905b815481529060010190602001808311610dbb57829003601f168201915b505050505081565b600b5481565b610dee611cbf565b73ffffffffffffffffffffffffffffffffffffffff16610e0c6112f4565b73ffffffffffffffffffffffffffffffffffffffff1614610e62576040517f08c379a0000000000000000000000000000000000000000000000000000000008152600401610e5990612936565b60405180910390fd5b8060068190555050565b610e74611cbf565b73ffffffffffffffffffffffffffffffffffffffff16610e926112f4565b73ffffffffffffffffffffffffffffffffffffffff1614610ee8576040517f08c379a0000000000000000000000000000000000000000000000000000000008152600401610edf90612936565b60405180910390fd5b610ef26000611cda565b565b610efc611cbf565b73ffffffffffffffffffffffffffffffffffffffff16610f1a6112f4565b73ffffffffffffffffffffffffffffffffffffffff1614610f70576040517f08c379a0000000000000000000000000000000000000000000000000000000008152600401610f6790612936565b60405180910390fd5b600360009054906101000a900473ffffffffffffffffffffffffffffffffffffffff1673ffffffffffffffffffffffffffffffffffffffff1663f2e027cb826040518263ffffffff1660e01b8152600401610fcb91906127de565b600060405180830381600087803b158015610fe557600080fd5b505af1158015610ff9573d6000803e3d6000fd5b5050505050565b600560009054906101000a900460ff1661104f576040517f08c379a0000000000000000000000000000000000000000000000000000000008152600401611046906128f6565b60405180910390fd5b600654600360009054906101000a900473ffffffffffffffffffffffffffffffffffffffff1673ffffffffffffffffffffffffffffffffffffffff166318160ddd6040518163ffffffff1660e01b815260040160206040518083038186803b1580156110ba57600080fd5b505afa1580156110ce573d6000803e3d6000fd5b505050506040513d601f19601f820116820180604052508101906110f29190612419565b10611132576040517f08c379a0000000000000000000000000000000000000000000000000000000008152600401611129906128b6565b60405180910390fd5b600c60003373ffffffffffffffffffffffffffffffffffffffff1673ffffffffffffffffffffffffffffffffffffffff16815260200190815260200160002060009054906101000a900460ff166111be576040517f08c379a00000000000000000000000000000000000000000000000000000000081526004016111b590612916565b60405180910390fd5b6000600360009054906101000a900473ffffffffffffffffffffffffffffffffffffffff1690508073ffffffffffffffffffffffffffffffffffffffff1663755edd17336040518263ffffffff1660e01b815260040161121e91906127de565b600060405180830381600087803b15801561123857600080fd5b505af115801561124c573d6000803e3d6000fd5b505050506000600c60003373ffffffffffffffffffffffffffffffffffffffff1673ffffffffffffffffffffffffffffffffffffffff16815260200190815260200160002060006101000a81548160ff02191690831515021790555050565b6000600d60008373ffffffffffffffffffffffffffffffffffffffff1673ffffffffffffffffffffffffffffffffffffffff168152602001908152602001600020549050919050565b60008060009054906101000a900473ffffffffffffffffffffffffffffffffffffffff16905090565b6000600160009054906101000a900473ffffffffffffffffffffffffffffffffffffffff16905061134c611cbf565b73ffffffffffffffffffffffffffffffffffffffff168173ffffffffffffffffffffffffffffffffffffffff1663c45527916113866112f4565b6040518263ffffffff1660e01b81526004016113a291906127de565b60206040518083038186803b1580156113ba57600080fd5b505afa1580156113ce573d6000803e3d6000fd5b505050506040513d601f19601f820116820180604052508101906113f29190612386565b73ffffffffffffffffffffffffffffffffffffffff16148061144d5750611417611cbf565b73ffffffffffffffffffffffffffffffffffffffff166114356112f4565b73ffffffffffffffffffffffffffffffffffffffff16145b611480577f4e487b7100000000000000000000000000000000000000000000000000000000600052600160045260246000fd5b61148983610c43565b61149257600080fd5b6000600360009054906101000a900473ffffffffffffffffffffffffffffffffffffffff169050600854841415611533578073ffffffffffffffffffffffffffffffffffffffff1663755edd17846040518263ffffffff1660e01b81526004016114fc91906127de565b600060405180830381600087803b15801561151657600080fd5b505af115801561152a573d6000803e3d6000fd5b505050506115cb565b6009548414156115ca5760005b600a548110156115c8578173ffffffffffffffffffffffffffffffffffffffff1663755edd17856040518263ffffffff1660e01b815260040161158391906127de565b600060405180830381600087803b15801561159d57600080fd5b505af11580156115b1573d6000803e3d6000fd5b5050505080806115c090612c03565b915050611540565b505b5b50505050565b6115d9611cbf565b73ffffffffffffffffffffffffffffffffffffffff166115f76112f4565b73ffffffffffffffffffffffffffffffffffffffff161461164d576040517f08c379a000000000000000000000000000000000000000000000000000000000815260040161164490612936565b60405180910390fd5b600360009054906101000a900473ffffffffffffffffffffffffffffffffffffffff1673ffffffffffffffffffffffffffffffffffffffff16637d4aafb4826040518263ffffffff1660e01b81526004016116a89190612874565b600060405180830381600087803b1580156116c257600080fd5b505af11580156116d6573d6000803e3d6000fd5b5050505050565b60606040518060400160405280600381526020017f4254530000000000000000000000000000000000000000000000000000000000815250905090565b611722611cbf565b73ffffffffffffffffffffffffffffffffffffffff166117406112f4565b73ffffffffffffffffffffffffffffffffffffffff1614611796576040517f08c379a000000000000000000000000000000000000000000000000000000000815260040161178d90612936565b60405180910390fd5b80600560006101000a81548160ff02191690831515021790555050565b60006001905090565b600560009054906101000a900460ff1681565b606060046117dc83611d9e565b6040516020016117ed9291906127ba565b6040516020818303038152906040529050919050565b61180b611cbf565b73ffffffffffffffffffffffffffffffffffffffff166118296112f4565b73ffffffffffffffffffffffffffffffffffffffff161461187f576040517f08c379a000000000000000000000000000000000000000000000000000000000815260040161187690612936565b60405180910390fd5b600360009054906101000a900473ffffffffffffffffffffffffffffffffffffffff1673ffffffffffffffffffffffffffffffffffffffff1663c92bb9ce826040518263ffffffff1660e01b81526004016118da9190612874565b600060405180830381600087803b1580156118f457600080fd5b505af1158015611908573d6000803e3d6000fd5b5050505050565b600160009054906101000a900473ffffffffffffffffffffffffffffffffffffffff1681565b60008273ffffffffffffffffffffffffffffffffffffffff166119566112f4565b73ffffffffffffffffffffffffffffffffffffffff161480156119a457508173ffffffffffffffffffffffffffffffffffffffff168373ffffffffffffffffffffffffffffffffffffffff16145b156119b25760019050611ae3565b6000600160009054906101000a900473ffffffffffffffffffffffffffffffffffffffff1690508373ffffffffffffffffffffffffffffffffffffffff166119f86112f4565b73ffffffffffffffffffffffffffffffffffffffff16148015611ace57508273ffffffffffffffffffffffffffffffffffffffff168173ffffffffffffffffffffffffffffffffffffffff1663c4552791866040518263ffffffff1660e01b8152600401611a6691906127de565b60206040518083038186803b158015611a7e57600080fd5b505afa158015611a92573d6000803e3d6000fd5b505050506040513d601f19601f82011682018060405250810190611ab69190612386565b73ffffffffffffffffffffffffffffffffffffffff16145b15611add576001915050611ae3565b60009150505b92915050565b611af1611cbf565b73ffffffffffffffffffffffffffffffffffffffff16611b0f6112f4565b73ffffffffffffffffffffffffffffffffffffffff1614611b65576040517f08c379a0000000000000000000000000000000000000000000000000000000008152600401611b5c90612936565b60405180910390fd5b6000611b6f6112f4565b9050611b7a82611f4b565b611b848183612043565b5050565b611b90611cbf565b73ffffffffffffffffffffffffffffffffffffffff16611bae6112f4565b73ffffffffffffffffffffffffffffffffffffffff1614611c04576040517f08c379a0000000000000000000000000000000000000000000000000000000008152600401611bfb90612936565b60405180910390fd5b60005b8151811015611cbb576001600c6000848481518110611c4f577f4e487b7100000000000000000000000000000000000000000000000000000000600052603260045260246000fd5b602002602001015173ffffffffffffffffffffffffffffffffffffffff1673ffffffffffffffffffffffffffffffffffffffff16815260200190815260200160002060006101000a81548160ff0219169083151502179055508080611cb390612c03565b915050611c07565b5050565b600033905090565b600080823b905060008111915050919050565b60008060009054906101000a900473ffffffffffffffffffffffffffffffffffffffff169050816000806101000a81548173ffffffffffffffffffffffffffffffffffffffff021916908373ffffffffffffffffffffffffffffffffffffffff1602179055508173ffffffffffffffffffffffffffffffffffffffff168173ffffffffffffffffffffffffffffffffffffffff167f8be0079c531659141344cd1fd0a4f28419497f9722a3daafe3b4186f6b6457e060405160405180910390a35050565b60606000821415611de6576040518060400160405280600181526020017f30000000000000000000000000000000000000000000000000000000000000008152509050611f46565b600082905060005b60008214611e18578080611e0190612c03565b915050600a82611e119190612ad0565b9150611dee565b60008167ffffffffffffffff811115611e5a577f4e487b7100000000000000000000000000000000000000000000000000000000600052604160045260246000fd5b6040519080825280601f01601f191660200182016040528015611e8c5781602001600182028036833780820191505090505b5090505b60008514611f3f57600182611ea59190612b01565b9150600a85611eb49190612c4c565b6030611ec09190612a7a565b60f81b818381518110611efc577f4e487b7100000000000000000000000000000000000000000000000000000000600052603260045260246000fd5b60200101907effffffffffffffffffffffffffffffffffffffffffffffffffffffffffffff1916908160001a905350600a85611f389190612ad0565b9450611e90565b8093505050505b919050565b611f53611cbf565b73ffffffffffffffffffffffffffffffffffffffff16611f716112f4565b73ffffffffffffffffffffffffffffffffffffffff1614611fc7576040517f08c379a0000000000000000000000000000000000000000000000000000000008152600401611fbe90612936565b60405180910390fd5b600073ffffffffffffffffffffffffffffffffffffffff168173ffffffffffffffffffffffffffffffffffffffff161415612037576040517f08c379a000000000000000000000000000000000000000000000000000000000815260040161202e906128d6565b60405180910390fd5b61204081611cda565b50565b60005b6007548110156120be57808273ffffffffffffffffffffffffffffffffffffffff168473ffffffffffffffffffffffffffffffffffffffff167fddf252ad1be2c89b69c2b068fc378daa952ba7f163c4a11628f55a4df523b3ef60405160405180910390a480806120b690612c03565b915050612046565b505050565b60006120d66120d1846129e2565b6129b1565b905080838252602082019050828560208602820111156120f557600080fd5b60005b85811015612125578161210b888261216d565b8452602084019350602083019250506001810190506120f8565b5050509392505050565b600061214261213d84612a0e565b6129b1565b90508281526020810184848401111561215a57600080fd5b612165848285612b8f565b509392505050565b60008135905061217c81612d4a565b92915050565b600082601f83011261219357600080fd5b81356121a38482602086016120c3565b91505092915050565b6000813590506121bb81612d61565b92915050565b6000815190506121d081612d61565b92915050565b6000815190506121e581612d78565b92915050565b600082601f8301126121fc57600080fd5b813561220c84826020860161212f565b91505092915050565b60008135905061222481612d8f565b92915050565b60008151905061223981612d8f565b92915050565b60006020828403121561225157600080fd5b600061225f8482850161216d565b91505092915050565b6000806040838503121561227b57600080fd5b60006122898582860161216d565b925050602061229a8582860161216d565b9150509250929050565b6000806000606084860312156122b957600080fd5b60006122c78682870161216d565b93505060206122d88682870161216d565b92505060406122e986828701612215565b9150509250925092565b60006020828403121561230557600080fd5b600082013567ffffffffffffffff81111561231f57600080fd5b61232b84828501612182565b91505092915050565b60006020828403121561234657600080fd5b6000612354848285016121ac565b91505092915050565b60006020828403121561236f57600080fd5b600061237d848285016121c1565b91505092915050565b60006020828403121561239857600080fd5b60006123a6848285016121d6565b91505092915050565b6000602082840312156123c157600080fd5b600082013567ffffffffffffffff8111156123db57600080fd5b6123e7848285016121eb565b91505092915050565b60006020828403121561240257600080fd5b600061241084828501612215565b91505092915050565b60006020828403121561242b57600080fd5b60006124398482850161222a565b91505092915050565b6000806040838503121561245557600080fd5b600061246385828601612215565b92505060206124748582860161216d565b9150509250929050565b61248781612b35565b82525050565b61249681612b47565b82525050565b60006124a782612a53565b6124b18185612a5e565b93506124c1818560208601612b9e565b6124ca81612d39565b840191505092915050565b60006124e082612a53565b6124ea8185612a6f565b93506124fa818560208601612b9e565b80840191505092915050565b6000815461251381612bd1565b61251d8186612a6f565b9450600182166000811461253857600181146125495761257c565b60ff1983168652818601935061257c565b61255285612a3e565b60005b8381101561257457815481890152600182019150602081019050612555565b838801955050505b50505092915050565b6000612592600e83612a5e565b91507f416c7265616479206d696e7465640000000000000000000000000000000000006000830152602082019050919050565b60006125d2601483612a5e565b91507f4d6178696d756d206d696e7420726561636865640000000000000000000000006000830152602082019050919050565b6000612612602683612a5e565b91507f4f776e61626c653a206e6577206f776e657220697320746865207a65726f206160008301527f64647265737300000000000000000000000000000000000000000000000000006020830152604082019050919050565b6000612678601083612a5e565b91507f4d696e74206e6f742073746172746564000000000000000000000000000000006000830152602082019050919050565b60006126b8601c83612a5e565b91507f4163636f756e74206e6f7420656c696769626c6520746f206d696e74000000006000830152602082019050919050565b60006126f8602083612a5e565b91507f4f776e61626c653a2063616c6c6572206973206e6f7420746865206f776e65726000830152602082019050919050565b6000612738601483612a5e565b91507f416c6c6f77616e6365206e6f7420656e6f7567680000000000000000000000006000830152602082019050919050565b6000612778601683612a5e565b91507f436f6e7472616374732063616e6e6f74206d696e742e000000000000000000006000830152602082019050919050565b6127b481612b85565b82525050565b60006127c68285612506565b91506127d282846124d5565b91508190509392505050565b60006020820190506127f3600083018461247e565b92915050565b600060408201905061280e600083018561247e565b61281b602083018461247e565b9392505050565b6000606082019050612837600083018661247e565b612844602083018561247e565b61285160408301846127ab565b949350505050565b600060208201905061286e600083018461248d565b92915050565b6000602082019050818103600083015261288e818461249c565b905092915050565b600060208201905081810360008301526128af81612585565b9050919050565b600060208201905081810360008301526128cf816125c5565b9050919050565b600060208201905081810360008301526128ef81612605565b9050919050565b6000602082019050818103600083015261290f8161266b565b9050919050565b6000602082019050818103600083015261292f816126ab565b9050919050565b6000602082019050818103600083015261294f816126eb565b9050919050565b6000602082019050818103600083015261296f8161272b565b9050919050565b6000602082019050818103600083015261298f8161276b565b9050919050565b60006020820190506129ab60008301846127ab565b92915050565b6000604051905081810181811067ffffffffffffffff821117156129d8576129d7612d0a565b5b8060405250919050565b600067ffffffffffffffff8211156129fd576129fc612d0a565b5b602082029050602081019050919050565b600067ffffffffffffffff821115612a2957612a28612d0a565b5b601f19601f8301169050602081019050919050565b60008190508160005260206000209050919050565b600081519050919050565b600082825260208201905092915050565b600081905092915050565b6000612a8582612b85565b9150612a9083612b85565b9250827fffffffffffffffffffffffffffffffffffffffffffffffffffffffffffffffff03821115612ac557612ac4612c7d565b5b828201905092915050565b6000612adb82612b85565b9150612ae683612b85565b925082612af657612af5612cac565b5b828204905092915050565b6000612b0c82612b85565b9150612b1783612b85565b925082821015612b2a57612b29612c7d565b5b828203905092915050565b6000612b4082612b65565b9050919050565b60008115159050919050565b6000612b5e82612b35565b9050919050565b600073ffffffffffffffffffffffffffffffffffffffff82169050919050565b6000819050919050565b82818337600083830152505050565b60005b83811015612bbc578082015181840152602081019050612ba1565b83811115612bcb576000848401525b50505050565b60006002820490506001821680612be957607f821691505b60208210811415612bfd57612bfc612cdb565b5b50919050565b6000612c0e82612b85565b91507fffffffffffffffffffffffffffffffffffffffffffffffffffffffffffffffff821415612c4157612c40612c7d565b5b600182019050919050565b6000612c5782612b85565b9150612c6283612b85565b925082612c7257612c71612cac565b5b828206905092915050565b7f4e487b7100000000000000000000000000000000000000000000000000000000600052601160045260246000fd5b7f4e487b7100000000000000000000000000000000000000000000000000000000600052601260045260246000fd5b7f4e487b7100000000000000000000000000000000000000000000000000000000600052602260045260246000fd5b7f4e487b7100000000000000000000000000000000000000000000000000000000600052604160045260246000fd5b6000601f19601f8301169050919050565b612d5381612b35565b8114612d5e57600080fd5b50565b612d6a81612b47565b8114612d7557600080fd5b50565b612d8181612b53565b8114612d8c57600080fd5b50565b612d9881612b85565b8114612da357600080fd5b5056fea2646970667358221220b3efec056675ce183f6639c0d57c9fca5345c46cd52b6138b67a1f23f228853764736f6c6343000800003368747470733a2f2f676174657761792e70696e6174612e636c6f75642f697066732f516d644c594b34424b635a7235657061754e56643275666a3755746e66676561537758735865646d474b64644437",
  "immutableReferences": {},
  "source": "// SPDX-License-Identifier: MIT\n\npragma solidity ^0.8.0;\n\nimport \"../BullTycoonsFactory.sol\";\n\ncontract BullTycoonsFactoryMock is BullTycoonsFactory {\n\n    constructor(address _proxyRegistryAddress, address _nftAddress, address _wethAddress) BullTycoonsFactory(_proxyRegistryAddress, _nftAddress) {\n        wethAddress = _wethAddress;\n    }\n}",
  "sourcePath": "/Users/olayinkaokewale/Documents/bull_nft/bulltycoons_contracts/contracts/mocks/BullTycoonsFactoryMock.sol",
  "compiler": {
    "name": "solc",
    "version": "0.8.0+commit.c7dfd78e.Emscripten.clang"
  },
  "schemaVersion": "3.3.2",
  "updatedAt": "2021-11-10T00:51:16.955Z",
  "networkType": "ethereum",
  "devdoc": {
    "kind": "dev",
    "methods": {
      "canMint(uint256)": {
        "details": "Returns whether the option ID can be minted. Can return false if the developer wishes to restrict a total supply per option ID (or overall)."
      },
      "mint(uint256,address)": {
        "details": "Mints asset(s) in accordance to a specific address with a particular \"option\". This should be callable only by the contract owner or the owner's Wyvern Proxy (later universal login will solve this). Options should also be delineated 0 - (numOptions() - 1) for convenient indexing.",
        "params": {
          "_optionId": "the option id",
          "_toAddress": "address of the future owner of the asset(s)"
        }
      },
      "owner()": {
        "details": "Returns the address of the current owner."
      },
      "renounceOwnership()": {
        "details": "Leaves the contract without owner. It will not be possible to call `onlyOwner` functions anymore. Can only be called by the current owner. NOTE: Renouncing ownership will leave the contract without an owner, thereby removing any functionality that is only available to the owner."
      },
      "tokenURI(uint256)": {
        "details": "Returns a URL specifying some metadata about the option. This metadata can be of the same structure as the ERC721 metadata."
      },
      "transferOwnership(address)": {
        "details": "Transfers ownership of the contract to a new account (`newOwner`). Can only be called by the current owner."
      }
    },
    "version": 1
  },
  "userdoc": {
    "kind": "user",
    "methods": {
      "isApprovedForAll(address,address)": {
        "notice": "Hack to get things to work automatically on OpenSea. Use isApprovedForAll so the frontend doesn't have to worry about different method names."
      },
      "name()": {
        "notice": "Returns the name of this factory."
      },
      "numOptions()": {
        "notice": "Number of options the factory supports."
      },
      "ownerOf(uint256)": {
        "notice": "Hack to get things to work automatically on OpenSea. Use isApprovedForAll so the frontend doesn't have to worry about different method names."
      },
      "supportsFactoryInterface()": {
        "notice": "Indicates that this is a factory contract. Ideally would use EIP 165 supportsInterface()"
      },
      "symbol()": {
        "notice": "Returns the symbol for this factory."
      },
      "transferFrom(address,address,uint256)": {
        "notice": "Hack to get things to work automatically on OpenSea. Use transferFrom so the frontend doesn't have to worry about different method names."
      }
    },
    "version": 1
  }
}