{
  "contractName": "BullTycoonsFactory",
  "abi": [
    {
      "inputs": [
        {
          "internalType": "address",
          "name": "_proxyRegistryAddress",
          "type": "address"
        },
        {
          "internalType": "address",
          "name": "_nftAddress",
          "type": "address"
        }
      ],
      "stateMutability": "nonpayable",
      "type": "constructor"
    },
    {
      "anonymous": false,
      "inputs": [
        {
          "indexed": true,
          "internalType": "address",
          "name": "previousOwner",
          "type": "address"
        },
        {
          "indexed": true,
          "internalType": "address",
          "name": "newOwner",
          "type": "address"
        }
      ],
      "name": "OwnershipTransferred",
      "type": "event"
    },
    {
      "anonymous": false,
      "inputs": [
        {
          "indexed": true,
          "internalType": "address",
          "name": "from",
          "type": "address"
        },
        {
          "indexed": true,
          "internalType": "address",
          "name": "to",
          "type": "address"
        }
      ],
      "name": "Transfer",
      "type": "event"
    },
    {
      "inputs": [],
      "name": "MINT_PER_PERSON",
      "outputs": [
        {
          "internalType": "uint256",
          "name": "",
          "type": "uint256"
        }
      ],
      "stateMutability": "view",
      "type": "function"
    },
    {
      "inputs": [],
      "name": "MINT_START",
      "outputs": [
        {
          "internalType": "bool",
          "name": "",
          "type": "bool"
        }
      ],
      "stateMutability": "view",
      "type": "function"
    },
    {
      "inputs": [],
      "name": "PRESALE_AMOUNT",
      "outputs": [
        {
          "internalType": "uint256",
          "name": "",
          "type": "uint256"
        }
      ],
      "stateMutability": "view",
      "type": "function"
    },
    {
      "inputs": [],
      "name": "baseURI",
      "outputs": [
        {
          "internalType": "string",
          "name": "",
          "type": "string"
        }
      ],
      "stateMutability": "view",
      "type": "function"
    },
    {
      "inputs": [],
      "name": "nftAddress",
      "outputs": [
        {
          "internalType": "address",
          "name": "",
          "type": "address"
        }
      ],
      "stateMutability": "view",
      "type": "function"
    },
    {
      "inputs": [],
      "name": "owner",
      "outputs": [
        {
          "internalType": "address",
          "name": "",
          "type": "address"
        }
      ],
      "stateMutability": "view",
      "type": "function"
    },
    {
      "inputs": [],
      "name": "proxyRegistryAddress",
      "outputs": [
        {
          "internalType": "address",
          "name": "",
          "type": "address"
        }
      ],
      "stateMutability": "view",
      "type": "function"
    },
    {
      "inputs": [],
      "name": "renounceOwnership",
      "outputs": [],
      "stateMutability": "nonpayable",
      "type": "function"
    },
    {
      "inputs": [],
      "name": "wethAddress",
      "outputs": [
        {
          "internalType": "address",
          "name": "",
          "type": "address"
        }
      ],
      "stateMutability": "view",
      "type": "function"
    },
    {
      "inputs": [
        {
          "internalType": "uint256",
          "name": "_maxSupply",
          "type": "uint256"
        }
      ],
      "name": "setMaxSupply",
      "outputs": [],
      "stateMutability": "nonpayable",
      "type": "function"
    },
    {
      "inputs": [
        {
          "internalType": "uint256",
          "name": "_maxMintPerPerson",
          "type": "uint256"
        }
      ],
      "name": "setMaxMintPerPerson",
      "outputs": [],
      "stateMutability": "nonpayable",
      "type": "function"
    },
    {
      "inputs": [],
      "name": "getMaxSupply",
      "outputs": [
        {
          "internalType": "uint256",
          "name": "",
          "type": "uint256"
        }
      ],
      "stateMutability": "view",
      "type": "function"
    },
    {
      "inputs": [],
      "name": "name",
      "outputs": [
        {
          "internalType": "string",
          "name": "",
          "type": "string"
        }
      ],
      "stateMutability": "pure",
      "type": "function"
    },
    {
      "inputs": [],
      "name": "symbol",
      "outputs": [
        {
          "internalType": "string",
          "name": "",
          "type": "string"
        }
      ],
      "stateMutability": "pure",
      "type": "function"
    },
    {
      "inputs": [],
      "name": "supportsFactoryInterface",
      "outputs": [
        {
          "internalType": "bool",
          "name": "",
          "type": "bool"
        }
      ],
      "stateMutability": "pure",
      "type": "function"
    },
    {
      "inputs": [],
      "name": "numOptions",
      "outputs": [
        {
          "internalType": "uint256",
          "name": "",
          "type": "uint256"
        }
      ],
      "stateMutability": "view",
      "type": "function"
    },
    {
      "inputs": [
        {
          "internalType": "address",
          "name": "newOwner",
          "type": "address"
        }
      ],
      "name": "transferOwnership",
      "outputs": [],
      "stateMutability": "nonpayable",
      "type": "function"
    },
    {
      "inputs": [
        {
          "internalType": "address",
          "name": "newOwner",
          "type": "address"
        }
      ],
      "name": "transferNFTAdminRole",
      "outputs": [],
      "stateMutability": "nonpayable",
      "type": "function"
    },
    {
      "inputs": [
        {
          "internalType": "bool",
          "name": "_startMinting",
          "type": "bool"
        }
      ],
      "name": "setStartMinting",
      "outputs": [],
      "stateMutability": "nonpayable",
      "type": "function"
    },
    {
      "inputs": [
        {
          "internalType": "uint256",
          "name": "_presaleAmount",
          "type": "uint256"
        }
      ],
      "name": "setPresaleAmount",
      "outputs": [],
      "stateMutability": "nonpayable",
      "type": "function"
    },
    {
      "inputs": [
        {
          "internalType": "address[]",
          "name": "_addresses",
          "type": "address[]"
        }
      ],
      "name": "setWhitelist",
      "outputs": [],
      "stateMutability": "nonpayable",
      "type": "function"
    },
    {
      "inputs": [
        {
          "internalType": "address",
          "name": "_bridgeAddress",
          "type": "address"
        }
      ],
      "name": "setBridgeAddress",
      "outputs": [],
      "stateMutability": "nonpayable",
      "type": "function"
    },
    {
      "inputs": [
        {
          "internalType": "string",
          "name": "_baseUri",
          "type": "string"
        }
      ],
      "name": "setBaseTokenUri",
      "outputs": [],
      "stateMutability": "nonpayable",
      "type": "function"
    },
    {
      "inputs": [
        {
          "internalType": "string",
          "name": "_contractUri",
          "type": "string"
        }
      ],
      "name": "setContractUri",
      "outputs": [],
      "stateMutability": "nonpayable",
      "type": "function"
    },
    {
      "inputs": [
        {
          "internalType": "address",
          "name": "_address",
          "type": "address"
        }
      ],
      "name": "checkWhitelisted",
      "outputs": [
        {
          "internalType": "bool",
          "name": "_isWhitelisted",
          "type": "bool"
        }
      ],
      "stateMutability": "view",
      "type": "function"
    },
    {
      "inputs": [],
      "name": "whitelistMint",
      "outputs": [],
      "stateMutability": "nonpayable",
      "type": "function"
    },
    {
      "inputs": [
        {
          "internalType": "uint256",
          "name": "_mintNumber",
          "type": "uint256"
        }
      ],
      "name": "presaleMint",
      "outputs": [],
      "stateMutability": "nonpayable",
      "type": "function"
    },
    {
      "inputs": [
        {
          "internalType": "address",
          "name": "_minter",
          "type": "address"
        }
      ],
      "name": "getNumberMinted",
      "outputs": [
        {
          "internalType": "uint256",
          "name": "numberMinted",
          "type": "uint256"
        }
      ],
      "stateMutability": "view",
      "type": "function"
    },
    {
      "inputs": [
        {
          "internalType": "address[]",
          "name": "tokenIds",
          "type": "address[]"
        }
      ],
      "name": "withdrawTokens",
      "outputs": [],
      "stateMutability": "nonpayable",
      "type": "function"
    },
    {
      "inputs": [
        {
          "internalType": "uint256",
          "name": "_optionId",
          "type": "uint256"
        }
      ],
      "name": "tokenURI",
      "outputs": [
        {
          "internalType": "string",
          "name": "",
          "type": "string"
        }
      ],
      "stateMutability": "view",
      "type": "function"
    },
    {
      "inputs": [
        {
          "internalType": "address",
          "name": "_owner",
          "type": "address"
        },
        {
          "internalType": "address",
          "name": "_operator",
          "type": "address"
        }
      ],
      "name": "isApprovedForAll",
      "outputs": [
        {
          "internalType": "bool",
          "name": "",
          "type": "bool"
        }
      ],
      "stateMutability": "view",
      "type": "function"
    },
    {
      "inputs": [
        {
          "internalType": "uint256",
          "name": "_tokenId",
          "type": "uint256"
        }
      ],
      "name": "ownerOf",
      "outputs": [
        {
          "internalType": "address",
          "name": "_owner",
          "type": "address"
        }
      ],
      "stateMutability": "view",
      "type": "function"
    }
  ],
  "bytecode": "0x6080604052737ceb23fd6bc0add59e62ac25578270cff1b9f619600260006101000a81548173ffffffffffffffffffffffffffffffffffffffff021916908373ffffffffffffffffffffffffffffffffffffffff160217905550604051806080016040528060508152602001620033af60509139600490805190602001906200008a9291906200030e565b506000600560006101000a81548160ff021916908315150217905550611388600655600560075566b1a2bc2ec50000600855348015620000c957600080fd5b50604051620033ff380380620033ff8339818101604052810190620000ef9190620003d5565b6200010f62000103620001bb60201b60201c565b620001c360201b60201c565b81600160006101000a81548173ffffffffffffffffffffffffffffffffffffffff021916908373ffffffffffffffffffffffffffffffffffffffff16021790555080600360006101000a81548173ffffffffffffffffffffffffffffffffffffffff021916908373ffffffffffffffffffffffffffffffffffffffff160217905550620001b36000620001a76200028760201b60201c565b620002b060201b60201c565b5050620004c9565b600033905090565b60008060009054906101000a900473ffffffffffffffffffffffffffffffffffffffff169050816000806101000a81548173ffffffffffffffffffffffffffffffffffffffff021916908373ffffffffffffffffffffffffffffffffffffffff1602179055508173ffffffffffffffffffffffffffffffffffffffff168173ffffffffffffffffffffffffffffffffffffffff167f8be0079c531659141344cd1fd0a4f28419497f9722a3daafe3b4186f6b6457e060405160405180910390a35050565b60008060009054906101000a900473ffffffffffffffffffffffffffffffffffffffff16905090565b8073ffffffffffffffffffffffffffffffffffffffff168273ffffffffffffffffffffffffffffffffffffffff167f4853ae1b4d437c4255ac16cd3ceda3465975023f27cb141584cd9d44440fed8260405160405180910390a35050565b8280546200031c906200044a565b90600052602060002090601f0160209004810192826200034057600085556200038c565b82601f106200035b57805160ff19168380011785556200038c565b828001600101855582156200038c579182015b828111156200038b5782518255916020019190600101906200036e565b5b5090506200039b91906200039f565b5090565b5b80821115620003ba576000816000905550600101620003a0565b5090565b600081519050620003cf81620004af565b92915050565b60008060408385031215620003e957600080fd5b6000620003f985828601620003be565b92505060206200040c85828601620003be565b9150509250929050565b600062000423826200042a565b9050919050565b600073ffffffffffffffffffffffffffffffffffffffff82169050919050565b600060028204905060018216806200046357607f821691505b602082108114156200047a576200047962000480565b5b50919050565b7f4e487b7100000000000000000000000000000000000000000000000000000000600052602260045260246000fd5b620004ba8162000416565b8114620004c657600080fd5b50565b612ed680620004d96000396000f3fe608060405234801561001057600080fd5b50600436106101f05760003560e01c80638da5cb5b1161010f578063c87b56dd116100a2578063e985e9c511610071578063e985e9c514610549578063f2fde38b14610579578063f421764814610595578063f70fa8a4146105b1576101f0565b8063c87b56dd146104c3578063c9b298f1146104f3578063ccb4807b1461050f578063cd7c03261461052b576101f0565b806395d89b41116100de57806395d89b411461044d578063b66cc2851461046b578063c311c52314610487578063c6374d0c146104a5576101f0565b80638da5cb5b146103db57806395652cfa146103f9578063958216501461041557806395bd19c214610431576101f0565b80636352211e11610187578063715018a611610156578063715018a61461037b5780637f5a22f914610385578063804f43cd146103a15780638a59a7fd146103ab576101f0565b80636352211e146102f35780636c0360eb146103235780636d120237146103415780636f8b44b01461035f576101f0565b80634f0e0ef3116101c35780634f0e0ef31461027f57806357dc41341461029d5780635bf8633a146102b95780635ecb16cd146102d7576101f0565b806306fdde03146101f557806320d8dad0146102135780634b97aed9146102435780634c0f38c214610261575b600080fd5b6101fd6105cf565b60405161020a91906128f4565b60405180910390f35b61022d600480360381019061022891906122bb565b61060c565b60405161023a91906128d9565b60405180910390f35b61024b610662565b6040516102589190612a36565b60405180910390f35b61026961066c565b6040516102769190612a36565b60405180910390f35b610287610676565b6040516102949190612835565b60405180910390f35b6102b760048036038101906102b2919061241d565b61069c565b005b6102c1610722565b6040516102ce9190612835565b60405180910390f35b6102f160048036038101906102ec9190612320565b610748565b005b61030d6004803603810190610308919061241d565b610943565b60405161031a9190612835565b60405180910390f35b61032b610954565b60405161033891906128f4565b60405180910390f35b6103496109e2565b6040516103569190612a36565b60405180910390f35b6103796004803603810190610374919061241d565b6109e8565b005b610383610a6e565b005b61039f600480360381019061039a91906122bb565b610af6565b005b6103a9610c02565b005b6103c560048036038101906103c091906122bb565b610ebc565b6040516103d29190612a36565b60405180910390f35b6103e3610f05565b6040516103f09190612835565b60405180910390f35b610413600480360381019061040e91906123dc565b610f2e565b005b61042f600480360381019061042a91906122bb565b61103a565b005b61044b6004803603810190610446919061241d565b611150565b005b6104556111d6565b60405161046291906128f4565b60405180910390f35b61048560048036038101906104809190612361565b611213565b005b61048f6112ac565b60405161049c91906128d9565b60405180910390f35b6104ad6112b5565b6040516104ba91906128d9565b60405180910390f35b6104dd60048036038101906104d8919061241d565b6112c8565b6040516104ea91906128f4565b60405180910390f35b61050d6004803603810190610508919061241d565b6112fc565b005b610529600480360381019061052491906123dc565b61189b565b005b6105336119a7565b6040516105409190612835565b60405180910390f35b610563600480360381019061055e91906122e4565b6119cd565b60405161057091906128d9565b60405180910390f35b610593600480360381019061058e91906122bb565b611b81565b005b6105af60048036038101906105aa9190612320565b611c20565b005b6105b9611d57565b6040516105c69190612a36565b60405180910390f35b60606040518060400160405280601081526020017f42756c6c5479636f6f6e73204d696e7400000000000000000000000000000000815250905090565b6000600960008373ffffffffffffffffffffffffffffffffffffffff1673ffffffffffffffffffffffffffffffffffffffff16815260200190815260200160002060009054906101000a900460ff169050919050565b6000600754905090565b6000600654905090565b600260009054906101000a900473ffffffffffffffffffffffffffffffffffffffff1681565b6106a4611d5d565b73ffffffffffffffffffffffffffffffffffffffff166106c2610f05565b73ffffffffffffffffffffffffffffffffffffffff1614610718576040517f08c379a000000000000000000000000000000000000000000000000000000000815260040161070f906129b6565b60405180910390fd5b8060088190555050565b600360009054906101000a900473ffffffffffffffffffffffffffffffffffffffff1681565b610750611d5d565b73ffffffffffffffffffffffffffffffffffffffff1661076e610f05565b73ffffffffffffffffffffffffffffffffffffffff16146107c4576040517f08c379a00000000000000000000000000000000000000000000000000000000081526004016107bb906129b6565b60405180910390fd5b60005b815181101561093f57600082828151811061080b577f4e487b7100000000000000000000000000000000000000000000000000000000600052603260045260246000fd5b602002602001015190508073ffffffffffffffffffffffffffffffffffffffff1663a9059cbb338373ffffffffffffffffffffffffffffffffffffffff166370a08231306040518263ffffffff1660e01b815260040161086b9190612835565b60206040518083038186803b15801561088357600080fd5b505afa158015610897573d6000803e3d6000fd5b505050506040513d601f19601f820116820180604052508101906108bb9190612446565b6040518363ffffffff1660e01b81526004016108d89291906128b0565b602060405180830381600087803b1580156108f257600080fd5b505af1158015610906573d6000803e3d6000fd5b505050506040513d601f19601f8201168201806040525081019061092a919061238a565b5050808061093790612cfd565b9150506107c7565b5050565b600061094d610f05565b9050919050565b6004805461096190612ccb565b80601f016020809104026020016040519081016040528092919081815260200182805461098d90612ccb565b80156109da5780601f106109af576101008083540402835291602001916109da565b820191906000526020600020905b8154815290600101906020018083116109bd57829003601f168201915b505050505081565b60085481565b6109f0611d5d565b73ffffffffffffffffffffffffffffffffffffffff16610a0e610f05565b73ffffffffffffffffffffffffffffffffffffffff1614610a64576040517f08c379a0000000000000000000000000000000000000000000000000000000008152600401610a5b906129b6565b60405180910390fd5b8060068190555050565b610a76611d5d565b73ffffffffffffffffffffffffffffffffffffffff16610a94610f05565b73ffffffffffffffffffffffffffffffffffffffff1614610aea576040517f08c379a0000000000000000000000000000000000000000000000000000000008152600401610ae1906129b6565b60405180910390fd5b610af46000611d65565b565b610afe611d5d565b73ffffffffffffffffffffffffffffffffffffffff16610b1c610f05565b73ffffffffffffffffffffffffffffffffffffffff1614610b72576040517f08c379a0000000000000000000000000000000000000000000000000000000008152600401610b69906129b6565b60405180910390fd5b600360009054906101000a900473ffffffffffffffffffffffffffffffffffffffff1673ffffffffffffffffffffffffffffffffffffffff1663f2e027cb826040518263ffffffff1660e01b8152600401610bcd9190612835565b600060405180830381600087803b158015610be757600080fd5b505af1158015610bfb573d6000803e3d6000fd5b5050505050565b6001600560009054906101000a900460ff16610c53576040517f08c379a0000000000000000000000000000000000000000000000000000000008152600401610c4a90612976565b60405180910390fd5b60065481600360009054906101000a900473ffffffffffffffffffffffffffffffffffffffff1673ffffffffffffffffffffffffffffffffffffffff166318160ddd6040518163ffffffff1660e01b815260040160206040518083038186803b158015610cbf57600080fd5b505afa158015610cd3573d6000803e3d6000fd5b505050506040513d601f19601f82011682018060405250810190610cf79190612446565b610d019190612b1a565b1115610d42576040517f08c379a0000000000000000000000000000000000000000000000000000000008152600401610d3990612916565b60405180910390fd5b600960003373ffffffffffffffffffffffffffffffffffffffff1673ffffffffffffffffffffffffffffffffffffffff16815260200190815260200160002060009054906101000a900460ff16610dce576040517f08c379a0000000000000000000000000000000000000000000000000000000008152600401610dc590612996565b60405180910390fd5b6000600360009054906101000a900473ffffffffffffffffffffffffffffffffffffffff1690508073ffffffffffffffffffffffffffffffffffffffff1663755edd17336040518263ffffffff1660e01b8152600401610e2e9190612835565b600060405180830381600087803b158015610e4857600080fd5b505af1158015610e5c573d6000803e3d6000fd5b505050506000600960003373ffffffffffffffffffffffffffffffffffffffff1673ffffffffffffffffffffffffffffffffffffffff16815260200190815260200160002060006101000a81548160ff0219169083151502179055505050565b6000600a60008373ffffffffffffffffffffffffffffffffffffffff1673ffffffffffffffffffffffffffffffffffffffff168152602001908152602001600020549050919050565b60008060009054906101000a900473ffffffffffffffffffffffffffffffffffffffff16905090565b610f36611d5d565b73ffffffffffffffffffffffffffffffffffffffff16610f54610f05565b73ffffffffffffffffffffffffffffffffffffffff1614610faa576040517f08c379a0000000000000000000000000000000000000000000000000000000008152600401610fa1906129b6565b60405180910390fd5b600360009054906101000a900473ffffffffffffffffffffffffffffffffffffffff1673ffffffffffffffffffffffffffffffffffffffff16637d4aafb4826040518263ffffffff1660e01b815260040161100591906128f4565b600060405180830381600087803b15801561101f57600080fd5b505af1158015611033573d6000803e3d6000fd5b5050505050565b611042611d5d565b73ffffffffffffffffffffffffffffffffffffffff16611060610f05565b73ffffffffffffffffffffffffffffffffffffffff16146110b6576040517f08c379a00000000000000000000000000000000000000000000000000000000081526004016110ad906129b6565b60405180910390fd5b600360009054906101000a900473ffffffffffffffffffffffffffffffffffffffff1673ffffffffffffffffffffffffffffffffffffffff1663f2fde38b826040518263ffffffff1660e01b81526004016111119190612835565b600060405180830381600087803b15801561112b57600080fd5b505af115801561113f573d6000803e3d6000fd5b5050505061114d3082611e29565b50565b611158611d5d565b73ffffffffffffffffffffffffffffffffffffffff16611176610f05565b73ffffffffffffffffffffffffffffffffffffffff16146111cc576040517f08c379a00000000000000000000000000000000000000000000000000000000081526004016111c3906129b6565b60405180910390fd5b8060078190555050565b60606040518060400160405280600381526020017f4254530000000000000000000000000000000000000000000000000000000000815250905090565b61121b611d5d565b73ffffffffffffffffffffffffffffffffffffffff16611239610f05565b73ffffffffffffffffffffffffffffffffffffffff161461128f576040517f08c379a0000000000000000000000000000000000000000000000000000000008152600401611286906129b6565b60405180910390fd5b80600560006101000a81548160ff02191690831515021790555050565b60006001905090565b600560009054906101000a900460ff1681565b606060046112d583611e87565b6040516020016112e6929190612811565b6040516020818303038152906040529050919050565b80600560009054906101000a900460ff1661134c576040517f08c379a000000000000000000000000000000000000000000000000000000000815260040161134390612976565b60405180910390fd5b60065481600360009054906101000a900473ffffffffffffffffffffffffffffffffffffffff1673ffffffffffffffffffffffffffffffffffffffff166318160ddd6040518163ffffffff1660e01b815260040160206040518083038186803b1580156113b857600080fd5b505afa1580156113cc573d6000803e3d6000fd5b505050506040513d601f19601f820116820180604052508101906113f09190612446565b6113fa9190612b1a565b111561143b576040517f08c379a000000000000000000000000000000000000000000000000000000000815260040161143290612916565b60405180910390fd5b61145a3373ffffffffffffffffffffffffffffffffffffffff16612034565b15801561149257503373ffffffffffffffffffffffffffffffffffffffff163273ffffffffffffffffffffffffffffffffffffffff16145b6114d1576040517f08c379a00000000000000000000000000000000000000000000000000000000081526004016114c890612a16565b60405180910390fd5b6000826008546114e19190612ba1565b905060008311611526576040517f08c379a000000000000000000000000000000000000000000000000000000000815260040161151d90612936565b60405180910390fd5b60075483600a60003373ffffffffffffffffffffffffffffffffffffffff1673ffffffffffffffffffffffffffffffffffffffff168152602001908152602001600020546115749190612b1a565b11156115b5576040517f08c379a00000000000000000000000000000000000000000000000000000000081526004016115ac906129f6565b60405180910390fd5b80600260009054906101000a900473ffffffffffffffffffffffffffffffffffffffff1673ffffffffffffffffffffffffffffffffffffffff1663dd62ed3e33306040518363ffffffff1660e01b8152600401611613929190612850565b60206040518083038186803b15801561162b57600080fd5b505afa15801561163f573d6000803e3d6000fd5b505050506040513d601f19601f820116820180604052508101906116639190612446565b10156116a4576040517f08c379a000000000000000000000000000000000000000000000000000000000815260040161169b906129d6565b60405180910390fd5b6000600360009054906101000a900473ffffffffffffffffffffffffffffffffffffffff169050600260009054906101000a900473ffffffffffffffffffffffffffffffffffffffff1673ffffffffffffffffffffffffffffffffffffffff166323b872dd3330856040518463ffffffff1660e01b815260040161172a93929190612879565b602060405180830381600087803b15801561174457600080fd5b505af1158015611758573d6000803e3d6000fd5b505050506040513d601f19601f8201168201806040525081019061177c919061238a565b5060005b84811015611806578173ffffffffffffffffffffffffffffffffffffffff1663755edd17336040518263ffffffff1660e01b81526004016117c19190612835565b600060405180830381600087803b1580156117db57600080fd5b505af11580156117ef573d6000803e3d6000fd5b5050505080806117fe90612cfd565b915050611780565b5083600a60003373ffffffffffffffffffffffffffffffffffffffff1673ffffffffffffffffffffffffffffffffffffffff168152602001908152602001600020546118529190612b1a565b600a60003373ffffffffffffffffffffffffffffffffffffffff1673ffffffffffffffffffffffffffffffffffffffff1681526020019081526020016000208190555050505050565b6118a3611d5d565b73ffffffffffffffffffffffffffffffffffffffff166118c1610f05565b73ffffffffffffffffffffffffffffffffffffffff1614611917576040517f08c379a000000000000000000000000000000000000000000000000000000000815260040161190e906129b6565b60405180910390fd5b600360009054906101000a900473ffffffffffffffffffffffffffffffffffffffff1673ffffffffffffffffffffffffffffffffffffffff1663c92bb9ce826040518263ffffffff1660e01b815260040161197291906128f4565b600060405180830381600087803b15801561198c57600080fd5b505af11580156119a0573d6000803e3d6000fd5b5050505050565b600160009054906101000a900473ffffffffffffffffffffffffffffffffffffffff1681565b60008273ffffffffffffffffffffffffffffffffffffffff166119ee610f05565b73ffffffffffffffffffffffffffffffffffffffff16148015611a3c57508173ffffffffffffffffffffffffffffffffffffffff168373ffffffffffffffffffffffffffffffffffffffff16145b15611a4a5760019050611b7b565b6000600160009054906101000a900473ffffffffffffffffffffffffffffffffffffffff1690508373ffffffffffffffffffffffffffffffffffffffff16611a90610f05565b73ffffffffffffffffffffffffffffffffffffffff16148015611b6657508273ffffffffffffffffffffffffffffffffffffffff168173ffffffffffffffffffffffffffffffffffffffff1663c4552791866040518263ffffffff1660e01b8152600401611afe9190612835565b60206040518083038186803b158015611b1657600080fd5b505afa158015611b2a573d6000803e3d6000fd5b505050506040513d601f19601f82011682018060405250810190611b4e91906123b3565b73ffffffffffffffffffffffffffffffffffffffff16145b15611b75576001915050611b7b565b60009150505b92915050565b611b89611d5d565b73ffffffffffffffffffffffffffffffffffffffff16611ba7610f05565b73ffffffffffffffffffffffffffffffffffffffff1614611bfd576040517f08c379a0000000000000000000000000000000000000000000000000000000008152600401611bf4906129b6565b60405180910390fd5b6000611c07610f05565b9050611c1282612047565b611c1c8183611e29565b5050565b611c28611d5d565b73ffffffffffffffffffffffffffffffffffffffff16611c46610f05565b73ffffffffffffffffffffffffffffffffffffffff1614611c9c576040517f08c379a0000000000000000000000000000000000000000000000000000000008152600401611c93906129b6565b60405180910390fd5b60005b8151811015611d5357600160096000848481518110611ce7577f4e487b7100000000000000000000000000000000000000000000000000000000600052603260045260246000fd5b602002602001015173ffffffffffffffffffffffffffffffffffffffff1673ffffffffffffffffffffffffffffffffffffffff16815260200190815260200160002060006101000a81548160ff0219169083151502179055508080611d4b90612cfd565b915050611c9f565b5050565b60075481565b600033905090565b60008060009054906101000a900473ffffffffffffffffffffffffffffffffffffffff169050816000806101000a81548173ffffffffffffffffffffffffffffffffffffffff021916908373ffffffffffffffffffffffffffffffffffffffff1602179055508173ffffffffffffffffffffffffffffffffffffffff168173ffffffffffffffffffffffffffffffffffffffff167f8be0079c531659141344cd1fd0a4f28419497f9722a3daafe3b4186f6b6457e060405160405180910390a35050565b8073ffffffffffffffffffffffffffffffffffffffff168273ffffffffffffffffffffffffffffffffffffffff167f4853ae1b4d437c4255ac16cd3ceda3465975023f27cb141584cd9d44440fed8260405160405180910390a35050565b60606000821415611ecf576040518060400160405280600181526020017f3000000000000000000000000000000000000000000000000000000000000000815250905061202f565b600082905060005b60008214611f01578080611eea90612cfd565b915050600a82611efa9190612b70565b9150611ed7565b60008167ffffffffffffffff811115611f43577f4e487b7100000000000000000000000000000000000000000000000000000000600052604160045260246000fd5b6040519080825280601f01601f191660200182016040528015611f755781602001600182028036833780820191505090505b5090505b6000851461202857600182611f8e9190612bfb565b9150600a85611f9d9190612d46565b6030611fa99190612b1a565b60f81b818381518110611fe5577f4e487b7100000000000000000000000000000000000000000000000000000000600052603260045260246000fd5b60200101907effffffffffffffffffffffffffffffffffffffffffffffffffffffffffffff1916908160001a905350600a856120219190612b70565b9450611f79565b8093505050505b919050565b600080823b905060008111915050919050565b61204f611d5d565b73ffffffffffffffffffffffffffffffffffffffff1661206d610f05565b73ffffffffffffffffffffffffffffffffffffffff16146120c3576040517f08c379a00000000000000000000000000000000000000000000000000000000081526004016120ba906129b6565b60405180910390fd5b600073ffffffffffffffffffffffffffffffffffffffff168173ffffffffffffffffffffffffffffffffffffffff161415612133576040517f08c379a000000000000000000000000000000000000000000000000000000000815260040161212a90612956565b60405180910390fd5b61213c81611d65565b50565b600061215261214d84612a82565b612a51565b9050808382526020820190508285602086028201111561217157600080fd5b60005b858110156121a1578161218788826121e9565b845260208401935060208301925050600181019050612174565b5050509392505050565b60006121be6121b984612aae565b612a51565b9050828152602081018484840111156121d657600080fd5b6121e1848285612c89565b509392505050565b6000813590506121f881612e44565b92915050565b600082601f83011261220f57600080fd5b813561221f84826020860161213f565b91505092915050565b60008135905061223781612e5b565b92915050565b60008151905061224c81612e5b565b92915050565b60008151905061226181612e72565b92915050565b600082601f83011261227857600080fd5b81356122888482602086016121ab565b91505092915050565b6000813590506122a081612e89565b92915050565b6000815190506122b581612e89565b92915050565b6000602082840312156122cd57600080fd5b60006122db848285016121e9565b91505092915050565b600080604083850312156122f757600080fd5b6000612305858286016121e9565b9250506020612316858286016121e9565b9150509250929050565b60006020828403121561233257600080fd5b600082013567ffffffffffffffff81111561234c57600080fd5b612358848285016121fe565b91505092915050565b60006020828403121561237357600080fd5b600061238184828501612228565b91505092915050565b60006020828403121561239c57600080fd5b60006123aa8482850161223d565b91505092915050565b6000602082840312156123c557600080fd5b60006123d384828501612252565b91505092915050565b6000602082840312156123ee57600080fd5b600082013567ffffffffffffffff81111561240857600080fd5b61241484828501612267565b91505092915050565b60006020828403121561242f57600080fd5b600061243d84828501612291565b91505092915050565b60006020828403121561245857600080fd5b6000612466848285016122a6565b91505092915050565b61247881612c2f565b82525050565b61248781612c41565b82525050565b600061249882612af3565b6124a28185612afe565b93506124b2818560208601612c98565b6124bb81612e33565b840191505092915050565b60006124d182612af3565b6124db8185612b0f565b93506124eb818560208601612c98565b80840191505092915050565b6000815461250481612ccb565b61250e8186612b0f565b94506001821660008114612529576001811461253a5761256d565b60ff1983168652818601935061256d565b61254385612ade565b60005b8381101561256557815481890152600182019150602081019050612546565b838801955050505b50505092915050565b6000612583601483612afe565b91507f4d6178696d756d206d696e7420726561636865640000000000000000000000006000830152602082019050919050565b60006125c3602183612afe565b91507f4d696e74206e756d6265722073686f756c64206265206f6e65206f72206d6f7260008301527f65000000000000000000000000000000000000000000000000000000000000006020830152604082019050919050565b6000612629602683612afe565b91507f4f776e61626c653a206e6577206f776e657220697320746865207a65726f206160008301527f64647265737300000000000000000000000000000000000000000000000000006020830152604082019050919050565b600061268f601083612afe565b91507f4d696e74206e6f742073746172746564000000000000000000000000000000006000830152602082019050919050565b60006126cf601c83612afe565b91507f4163636f756e74206e6f7420656c696769626c6520746f206d696e74000000006000830152602082019050919050565b600061270f602083612afe565b91507f4f776e61626c653a2063616c6c6572206973206e6f7420746865206f776e65726000830152602082019050919050565b600061274f601483612afe565b91507f416c6c6f77616e6365206e6f7420656e6f7567680000000000000000000000006000830152602082019050919050565b600061278f601c83612afe565b91507f4d6178206d696e742070657220616464726573732072656163686564000000006000830152602082019050919050565b60006127cf601683612afe565b91507f436f6e7472616374732063616e6e6f74206d696e742e000000000000000000006000830152602082019050919050565b61280b81612c7f565b82525050565b600061281d82856124f7565b915061282982846124c6565b91508190509392505050565b600060208201905061284a600083018461246f565b92915050565b6000604082019050612865600083018561246f565b612872602083018461246f565b9392505050565b600060608201905061288e600083018661246f565b61289b602083018561246f565b6128a86040830184612802565b949350505050565b60006040820190506128c5600083018561246f565b6128d26020830184612802565b9392505050565b60006020820190506128ee600083018461247e565b92915050565b6000602082019050818103600083015261290e818461248d565b905092915050565b6000602082019050818103600083015261292f81612576565b9050919050565b6000602082019050818103600083015261294f816125b6565b9050919050565b6000602082019050818103600083015261296f8161261c565b9050919050565b6000602082019050818103600083015261298f81612682565b9050919050565b600060208201905081810360008301526129af816126c2565b9050919050565b600060208201905081810360008301526129cf81612702565b9050919050565b600060208201905081810360008301526129ef81612742565b9050919050565b60006020820190508181036000830152612a0f81612782565b9050919050565b60006020820190508181036000830152612a2f816127c2565b9050919050565b6000602082019050612a4b6000830184612802565b92915050565b6000604051905081810181811067ffffffffffffffff82111715612a7857612a77612e04565b5b8060405250919050565b600067ffffffffffffffff821115612a9d57612a9c612e04565b5b602082029050602081019050919050565b600067ffffffffffffffff821115612ac957612ac8612e04565b5b601f19601f8301169050602081019050919050565b60008190508160005260206000209050919050565b600081519050919050565b600082825260208201905092915050565b600081905092915050565b6000612b2582612c7f565b9150612b3083612c7f565b9250827fffffffffffffffffffffffffffffffffffffffffffffffffffffffffffffffff03821115612b6557612b64612d77565b5b828201905092915050565b6000612b7b82612c7f565b9150612b8683612c7f565b925082612b9657612b95612da6565b5b828204905092915050565b6000612bac82612c7f565b9150612bb783612c7f565b9250817fffffffffffffffffffffffffffffffffffffffffffffffffffffffffffffffff0483118215151615612bf057612bef612d77565b5b828202905092915050565b6000612c0682612c7f565b9150612c1183612c7f565b925082821015612c2457612c23612d77565b5b828203905092915050565b6000612c3a82612c5f565b9050919050565b60008115159050919050565b6000612c5882612c2f565b9050919050565b600073ffffffffffffffffffffffffffffffffffffffff82169050919050565b6000819050919050565b82818337600083830152505050565b60005b83811015612cb6578082015181840152602081019050612c9b565b83811115612cc5576000848401525b50505050565b60006002820490506001821680612ce357607f821691505b60208210811415612cf757612cf6612dd5565b5b50919050565b6000612d0882612c7f565b91507fffffffffffffffffffffffffffffffffffffffffffffffffffffffffffffffff821415612d3b57612d3a612d77565b5b600182019050919050565b6000612d5182612c7f565b9150612d5c83612c7f565b925082612d6c57612d6b612da6565b5b828206905092915050565b7f4e487b7100000000000000000000000000000000000000000000000000000000600052601160045260246000fd5b7f4e487b7100000000000000000000000000000000000000000000000000000000600052601260045260246000fd5b7f4e487b7100000000000000000000000000000000000000000000000000000000600052602260045260246000fd5b7f4e487b7100000000000000000000000000000000000000000000000000000000600052604160045260246000fd5b6000601f19601f8301169050919050565b612e4d81612c2f565b8114612e5857600080fd5b50565b612e6481612c41565b8114612e6f57600080fd5b50565b612e7b81612c4d565b8114612e8657600080fd5b50565b612e9281612c7f565b8114612e9d57600080fd5b5056fea2646970667358221220bf892f2b147e9a48994108cc94be9c986c1cba72a5a27da2112f2bbb8f37add864736f6c6343000800003368747470733a2f2f676174657761792e70696e6174612e636c6f75642f697066732f516d644c594b34424b635a7235657061754e56643275666a3755746e66676561537758735865646d474b64644437",
  "immutableReferences": {},
  "source": "// SPDX-License-Identifier: MIT\n\npragma solidity ^0.8.0;\n\nimport \"@openzeppelin/contracts/access/Ownable.sol\";\nimport \"@openzeppelin/contracts/utils/Strings.sol\";\nimport \"./IFactoryERC721.sol\";\nimport \"./BullTycoons.sol\";\nimport \"@openzeppelin/contracts/utils/Address.sol\";\nimport \"@openzeppelin/contracts/token/ERC20/IERC20.sol\";\nimport \"@openzeppelin/contracts/utils/math/SafeMath.sol\";\n\n\ncontract BullTycoonsFactory is FactoryERC721, Ownable {\n    using Strings for string;\n    using Address for address;\n    using SafeMath for uint256;\n\n    event Transfer(\n        address indexed from,\n        address indexed to\n    );\n\n    address public proxyRegistryAddress;\n    address public wethAddress = 0x7ceB23fD6bC0adD59E62ac25578270cFf1b9f619;\n    address public nftAddress;\n    string public baseURI = \"https://gateway.pinata.cloud/ipfs/QmdLYK4BKcZr5epauNVd2ufj7UtnfgeaSwXsXedmGKddD7\";\n    bool public MINT_START = false;\n\n    /*\n     * Enforce the existence of only 5000 BullTycoons .\n     */\n    uint256 TOTAL_BULL_SUPPLY = 5000;\n    uint256 public MINT_PER_PERSON = 5;\n\n    constructor(address _proxyRegistryAddress, address _nftAddress) {\n        proxyRegistryAddress = _proxyRegistryAddress;\n        nftAddress = _nftAddress;\n\n        fireTransferEvents(address(0), owner());\n    }\n\n    function setMaxSupply(uint256 _maxSupply) public onlyOwner() {\n        TOTAL_BULL_SUPPLY = _maxSupply;\n    }\n\n    function setMaxMintPerPerson(uint256 _maxMintPerPerson) public onlyOwner() {\n        MINT_PER_PERSON = _maxMintPerPerson;\n    }\n\n    function getMaxSupply() public view returns (uint256) {\n        return TOTAL_BULL_SUPPLY;\n    }\n\n    function name() override external pure returns (string memory) {\n        return \"BullTycoons Mint\";\n    }\n\n    function symbol() override external pure returns (string memory) {\n        return \"BTS\";\n    }\n\n    function supportsFactoryInterface() override public pure returns (bool) {\n        return true;\n    }\n\n     function numOptions() override public view returns (uint256) {\n        return MINT_PER_PERSON;\n    }\n\n    function transferOwnership(address newOwner) override public onlyOwner {\n        address _prevOwner = owner();\n        super.transferOwnership(newOwner);\n        fireTransferEvents(_prevOwner, newOwner);\n    }\n\n    function transferNFTAdminRole(address newOwner) public onlyOwner {\n        BullTycoons(nftAddress).transferOwnership(newOwner);\n        fireTransferEvents(address(this), newOwner);\n    }\n\n    function fireTransferEvents(address _from, address _to) private {\n        emit Transfer(_from, _to);\n    }\n\n    /* Presale Minting: Start */\n\n    uint public PRESALE_AMOUNT = 5 * 10 ** 16; // Equivalent of 0.05 ETH\n    mapping(address => bool) addressWhitelisted;\n    mapping(address => uint256) addressToMints;\n    modifier addressCanMint() {\n        require(!address(msg.sender).isContract() && tx.origin == msg.sender, \"Contracts cannot mint.\");\n        _;\n    }\n\n    modifier isMintable(uint256 _mintNumber) {\n        require(MINT_START, \"Mint not started\");\n        require((BullTycoons(nftAddress).totalSupply() + _mintNumber) <= TOTAL_BULL_SUPPLY, \"Maximum mint reached\");\n        _;\n    }\n\n    // Admin funcions start --\n    // set start minting to be true or false\n    function setStartMinting(bool _startMinting) public onlyOwner() {\n        MINT_START = _startMinting;\n    }\n\n    // set minting price\n    function setPresaleAmount(uint256 _presaleAmount) public onlyOwner() {\n        PRESALE_AMOUNT = _presaleAmount;\n    }\n\n    // set whitelist addresses\n    function setWhitelist(address[] memory _addresses) public onlyOwner() {\n        for (uint256 i = 0; i < _addresses.length; i++) {\n            addressWhitelisted[_addresses[i]] = true;\n        }\n    }\n\n    // set bridge address\n    function setBridgeAddress(address _bridgeAddress) public onlyOwner() {\n        BullTycoons(nftAddress)._setBridgeAddress(_bridgeAddress);\n    }\n\n    // set base token URI\n    function setBaseTokenUri(string memory _baseUri) public onlyOwner() {\n        BullTycoons(nftAddress)._setBaseTokenURI(_baseUri);\n    }\n\n    // set contract URI\n    function setContractUri(string memory _contractUri) public onlyOwner() {\n        BullTycoons(nftAddress)._setContractURI(_contractUri);\n    }\n    // Admin functions done --\n\n    // Whitelist start --\n    \n    function checkWhitelisted(address _address) public view returns(bool _isWhitelisted) {\n        return addressWhitelisted[_address];\n    }\n\n    function whitelistMint() public isMintable(1) {\n        require(addressWhitelisted[msg.sender], \"Account not eligible to mint\");\n        BullTycoons bullTycoons = BullTycoons(nftAddress);\n        bullTycoons.mintTo(msg.sender);\n        addressWhitelisted[msg.sender] = false;\n    }\n    // Whitelist end --\n\n    function presaleMint(uint256 _mintNumber) public isMintable(_mintNumber) addressCanMint() {\n        uint256 mintCost = PRESALE_AMOUNT * _mintNumber;\n        require(_mintNumber > 0, \"Mint number should be one or more\");\n        require((addressToMints[msg.sender] + _mintNumber) <= MINT_PER_PERSON, \"Max mint per address reached\");\n        require(IERC20(wethAddress).allowance(msg.sender, address(this)) >= mintCost, \"Allowance not enough\");\n        BullTycoons bullTycoons = BullTycoons(nftAddress);\n        IERC20(wethAddress).transferFrom(msg.sender, address(this), mintCost);\n        for (uint256 i = 0; i < _mintNumber; i++ ) {\n            bullTycoons.mintTo(msg.sender);\n        }\n        addressToMints[msg.sender] = addressToMints[msg.sender] + _mintNumber;\n    }\n\n    function getNumberMinted(address _minter) public view returns(uint256 numberMinted) {\n        return addressToMints[_minter];\n    }\n\n    /* Presale Minting: End */\n\n    /* ------------------------ Admin Withdrawal: Start ------------------------------ */\n    function withdrawTokens(address[] memory tokenIds) public onlyOwner() {\n        for (uint256 i = 0; i < tokenIds.length; i++) {\n            IERC20 token = IERC20(tokenIds[i]);\n            token.transfer(msg.sender, token.balanceOf(address(this)));\n        }\n    }\n    /* ------------------------ Admin WithdrawWal: End ------------------------------ */\n\n    function tokenURI(uint256 _optionId) override external view returns (string memory) {\n        return string(abi.encodePacked(baseURI, Strings.toString(_optionId)));\n    }\n    /**\n     * Hack to get things to work automatically on OpenSea.\n     * Use isApprovedForAll so the frontend doesn't have to worry about different method names.\n     */\n    function isApprovedForAll(address _owner, address _operator)\n        public\n        view\n        returns (bool)\n    {\n        if (owner() == _owner && _owner == _operator) {\n            return true;\n        }\n\n        ProxyRegistry proxyRegistry = ProxyRegistry(proxyRegistryAddress);\n        if (\n            owner() == _owner &&\n            address(proxyRegistry.proxies(_owner)) == _operator\n        ) {\n            return true;\n        }\n\n        return false;\n    }\n\n    /**\n     * Hack to get things to work automatically on OpenSea.\n     * Use isApprovedForAll so the frontend doesn't have to worry about different method names.\n     */\n    function ownerOf(uint256 _tokenId) public view returns (address _owner) {\n        return owner();\n    }\n}\n",
  "sourcePath": "/Users/olayinkaokewale/Documents/bull_nft/bulltycoons_contracts/contracts/BullTycoonsFactory.sol",
  "compiler": {
    "name": "solc",
    "version": "0.8.0+commit.c7dfd78e.Emscripten.clang"
  },
  "schemaVersion": "3.3.2",
  "updatedAt": "2021-11-12T22:41:27.323Z",
  "devdoc": {
    "kind": "dev",
    "methods": {
      "owner()": {
        "details": "Returns the address of the current owner."
      },
      "renounceOwnership()": {
        "details": "Leaves the contract without owner. It will not be possible to call `onlyOwner` functions anymore. Can only be called by the current owner. NOTE: Renouncing ownership will leave the contract without an owner, thereby removing any functionality that is only available to the owner."
      },
      "tokenURI(uint256)": {
        "details": "Returns a URL specifying some metadata about the option. This metadata can be of the same structure as the ERC721 metadata."
      },
      "transferOwnership(address)": {
        "details": "Transfers ownership of the contract to a new account (`newOwner`). Can only be called by the current owner."
      }
    },
    "version": 1
  },
  "userdoc": {
    "kind": "user",
    "methods": {
      "isApprovedForAll(address,address)": {
        "notice": "Hack to get things to work automatically on OpenSea. Use isApprovedForAll so the frontend doesn't have to worry about different method names."
      },
      "name()": {
        "notice": "Returns the name of this factory."
      },
      "numOptions()": {
        "notice": "Number of options the factory supports."
      },
      "ownerOf(uint256)": {
        "notice": "Hack to get things to work automatically on OpenSea. Use isApprovedForAll so the frontend doesn't have to worry about different method names."
      },
      "supportsFactoryInterface()": {
        "notice": "Indicates that this is a factory contract. Ideally would use EIP 165 supportsInterface()"
      },
      "symbol()": {
        "notice": "Returns the symbol for this factory."
      }
    },
    "version": 1
  }
}