{
  "contractName": "NativeMetaTransaction",
  "abi": [
    {
      "anonymous": false,
      "inputs": [
        {
          "indexed": false,
          "internalType": "address",
          "name": "userAddress",
          "type": "address"
        },
        {
          "indexed": false,
          "internalType": "address payable",
          "name": "relayerAddress",
          "type": "address"
        },
        {
          "indexed": false,
          "internalType": "bytes",
          "name": "functionSignature",
          "type": "bytes"
        }
      ],
      "name": "MetaTransactionExecuted",
      "type": "event"
    },
    {
      "inputs": [],
      "name": "ERC712_VERSION",
      "outputs": [
        {
          "internalType": "string",
          "name": "",
          "type": "string"
        }
      ],
      "stateMutability": "view",
      "type": "function"
    },
    {
      "inputs": [],
      "name": "getChainId",
      "outputs": [
        {
          "internalType": "uint256",
          "name": "",
          "type": "uint256"
        }
      ],
      "stateMutability": "view",
      "type": "function"
    },
    {
      "inputs": [],
      "name": "getDomainSeperator",
      "outputs": [
        {
          "internalType": "bytes32",
          "name": "",
          "type": "bytes32"
        }
      ],
      "stateMutability": "view",
      "type": "function"
    },
    {
      "inputs": [
        {
          "internalType": "address",
          "name": "userAddress",
          "type": "address"
        },
        {
          "internalType": "bytes",
          "name": "functionSignature",
          "type": "bytes"
        },
        {
          "internalType": "bytes32",
          "name": "sigR",
          "type": "bytes32"
        },
        {
          "internalType": "bytes32",
          "name": "sigS",
          "type": "bytes32"
        },
        {
          "internalType": "uint8",
          "name": "sigV",
          "type": "uint8"
        }
      ],
      "name": "executeMetaTransaction",
      "outputs": [
        {
          "internalType": "bytes",
          "name": "",
          "type": "bytes"
        }
      ],
      "stateMutability": "payable",
      "type": "function"
    },
    {
      "inputs": [
        {
          "internalType": "address",
          "name": "user",
          "type": "address"
        }
      ],
      "name": "getNonce",
      "outputs": [
        {
          "internalType": "uint256",
          "name": "nonce",
          "type": "uint256"
        }
      ],
      "stateMutability": "view",
      "type": "function"
    }
  ],
  "bytecode": "0x608060405260008060006101000a81548160ff02191690831515021790555034801561002a57600080fd5b50610efb8061003a6000396000f3fe60806040526004361061004a5760003560e01c80630c53c51c1461004f5780630f7e59701461007f57806320379ee5146100aa5780632d0335ab146100d55780633408e47014610112575b600080fd5b610069600480360381019061006491906106d8565b61013d565b6040516100769190610b28565b60405180910390f35b34801561008b57600080fd5b506100946103af565b6040516100a19190610b4a565b60405180910390f35b3480156100b657600080fd5b506100bf6103e8565b6040516100cc9190610a83565b60405180910390f35b3480156100e157600080fd5b506100fc60048036038101906100f791906106af565b6103f2565b6040516101099190610bcc565b60405180910390f35b34801561011e57600080fd5b5061012761043b565b6040516101349190610bcc565b60405180910390f35b606060006040518060600160405280600260008a73ffffffffffffffffffffffffffffffffffffffff1673ffffffffffffffffffffffffffffffffffffffff1681526020019081526020016000205481526020018873ffffffffffffffffffffffffffffffffffffffff1681526020018781525090506101c08782878787610448565b6101ff576040517f08c379a00000000000000000000000000000000000000000000000000000000081526004016101f690610bac565b60405180910390fd5b6102526001600260008a73ffffffffffffffffffffffffffffffffffffffff1673ffffffffffffffffffffffffffffffffffffffff1681526020019081526020016000205461055190919063ffffffff16565b600260008973ffffffffffffffffffffffffffffffffffffffff1673ffffffffffffffffffffffffffffffffffffffff168152602001908152602001600020819055507f5845892132946850460bff5a0083f71031bc5bf9aadcd40f1de79423eac9b10b8733886040516102c893929190610a45565b60405180910390a16000803073ffffffffffffffffffffffffffffffffffffffff16888a6040516020016102fd9291906109e6565b60405160208183030381529060405260405161031991906109cf565b6000604051808303816000865af19150503d8060008114610356576040519150601f19603f3d011682016040523d82523d6000602084013e61035b565b606091505b5091509150816103a0576040517f08c379a000000000000000000000000000000000000000000000000000000000815260040161039790610b6c565b60405180910390fd5b80935050505095945050505050565b6040518060400160405280600181526020017f310000000000000000000000000000000000000000000000000000000000000081525081565b6000600154905090565b6000600260008373ffffffffffffffffffffffffffffffffffffffff1673ffffffffffffffffffffffffffffffffffffffff168152602001908152602001600020549050919050565b6000804690508091505090565b60008073ffffffffffffffffffffffffffffffffffffffff168673ffffffffffffffffffffffffffffffffffffffff1614156104b9576040517f08c379a00000000000000000000000000000000000000000000000000000000081526004016104b090610b8c565b60405180910390fd5b60016104cc6104c787610567565b6105cf565b838686604051600081526020016040526040516104ec9493929190610ae3565b6020604051602081039080840390855afa15801561050e573d6000803e3d6000fd5b5050506020604051035173ffffffffffffffffffffffffffffffffffffffff168673ffffffffffffffffffffffffffffffffffffffff1614905095945050505050565b6000818361055f9190610c96565b905092915050565b6000604051806080016040528060438152602001610e836043913980519060200120826000015183602001518460400151805190602001206040516020016105b29493929190610a9e565b604051602081830303815290604052805190602001209050919050565b60006105d96103e8565b826040516020016105eb929190610a0e565b604051602081830303815290604052805190602001209050919050565b600061061b61061684610c18565b610be7565b90508281526020810184848401111561063357600080fd5b61063e848285610d51565b509392505050565b60008135905061065581610e3d565b92915050565b60008135905061066a81610e54565b92915050565b600082601f83011261068157600080fd5b8135610691848260208601610608565b91505092915050565b6000813590506106a981610e6b565b92915050565b6000602082840312156106c157600080fd5b60006106cf84828501610646565b91505092915050565b600080600080600060a086880312156106f057600080fd5b60006106fe88828901610646565b955050602086013567ffffffffffffffff81111561071b57600080fd5b61072788828901610670565b94505060406107388882890161065b565b93505060606107498882890161065b565b925050608061075a8882890161069a565b9150509295509295909350565b61077081610cfe565b82525050565b61077f81610cec565b82525050565b61079661079182610cec565b610d93565b82525050565b6107a581610d10565b82525050565b6107bc6107b782610d10565b610da5565b82525050565b60006107cd82610c48565b6107d78185610c5e565b93506107e7818560208601610d60565b6107f081610e1f565b840191505092915050565b600061080682610c48565b6108108185610c6f565b9350610820818560208601610d60565b80840191505092915050565b600061083782610c53565b6108418185610c7a565b9350610851818560208601610d60565b61085a81610e1f565b840191505092915050565b6000610872601c83610c7a565b91507f46756e6374696f6e2063616c6c206e6f74207375636365737366756c000000006000830152602082019050919050565b60006108b2600283610c8b565b91507f19010000000000000000000000000000000000000000000000000000000000006000830152600282019050919050565b60006108f2602583610c7a565b91507f4e61746976654d6574615472616e73616374696f6e3a20494e56414c49445f5360008301527f49474e45520000000000000000000000000000000000000000000000000000006020830152604082019050919050565b6000610958602183610c7a565b91507f5369676e657220616e64207369676e617475726520646f206e6f74206d61746360008301527f68000000000000000000000000000000000000000000000000000000000000006020830152604082019050919050565b6109ba81610d3a565b82525050565b6109c981610d44565b82525050565b60006109db82846107fb565b915081905092915050565b60006109f282856107fb565b91506109fe8284610785565b6014820191508190509392505050565b6000610a19826108a5565b9150610a2582856107ab565b602082019150610a3582846107ab565b6020820191508190509392505050565b6000606082019050610a5a6000830186610776565b610a676020830185610767565b8181036040830152610a7981846107c2565b9050949350505050565b6000602082019050610a98600083018461079c565b92915050565b6000608082019050610ab3600083018761079c565b610ac060208301866109b1565b610acd6040830185610776565b610ada606083018461079c565b95945050505050565b6000608082019050610af8600083018761079c565b610b0560208301866109c0565b610b12604083018561079c565b610b1f606083018461079c565b95945050505050565b60006020820190508181036000830152610b4281846107c2565b905092915050565b60006020820190508181036000830152610b64818461082c565b905092915050565b60006020820190508181036000830152610b8581610865565b9050919050565b60006020820190508181036000830152610ba5816108e5565b9050919050565b60006020820190508181036000830152610bc58161094b565b9050919050565b6000602082019050610be160008301846109b1565b92915050565b6000604051905081810181811067ffffffffffffffff82111715610c0e57610c0d610df0565b5b8060405250919050565b600067ffffffffffffffff821115610c3357610c32610df0565b5b601f19601f8301169050602081019050919050565b600081519050919050565b600081519050919050565b600082825260208201905092915050565b600081905092915050565b600082825260208201905092915050565b600081905092915050565b6000610ca182610d3a565b9150610cac83610d3a565b9250827fffffffffffffffffffffffffffffffffffffffffffffffffffffffffffffffff03821115610ce157610ce0610dc1565b5b828201905092915050565b6000610cf782610d1a565b9050919050565b6000610d0982610d1a565b9050919050565b6000819050919050565b600073ffffffffffffffffffffffffffffffffffffffff82169050919050565b6000819050919050565b600060ff82169050919050565b82818337600083830152505050565b60005b83811015610d7e578082015181840152602081019050610d63565b83811115610d8d576000848401525b50505050565b6000610d9e82610daf565b9050919050565b6000819050919050565b6000610dba82610e30565b9050919050565b7f4e487b7100000000000000000000000000000000000000000000000000000000600052601160045260246000fd5b7f4e487b7100000000000000000000000000000000000000000000000000000000600052604160045260246000fd5b6000601f19601f8301169050919050565b60008160601b9050919050565b610e4681610cec565b8114610e5157600080fd5b50565b610e5d81610d10565b8114610e6857600080fd5b50565b610e7481610d44565b8114610e7f57600080fd5b5056fe4d6574615472616e73616374696f6e2875696e74323536206e6f6e63652c616464726573732066726f6d2c62797465732066756e6374696f6e5369676e617475726529a2646970667358221220de0102a2f106fbf62e4fc61586b5d086e417900bcd356857ca23cf9fda6a59f664736f6c63430008000033",
  "immutableReferences": {},
  "source": "// SPDX-License-Identifier: MIT\n\npragma solidity ^0.8.0;\n\nimport {SafeMath} from  \"@openzeppelin/contracts/utils/math/SafeMath.sol\";\nimport {EIP712Base} from \"./EIP712Base.sol\";\n\ncontract NativeMetaTransaction is EIP712Base {\n    using SafeMath for uint256;\n    bytes32 private constant META_TRANSACTION_TYPEHASH = keccak256(\n        bytes(\n            \"MetaTransaction(uint256 nonce,address from,bytes functionSignature)\"\n        )\n    );\n    event MetaTransactionExecuted(\n        address userAddress,\n        address payable relayerAddress,\n        bytes functionSignature\n    );\n    mapping(address => uint256) nonces;\n\n    /*\n     * Meta transaction structure.\n     * No point of including value field here as if user is doing value transfer then he has the funds to pay for gas\n     * He should call the desired function directly in that case.\n     */\n    struct MetaTransaction {\n        uint256 nonce;\n        address from;\n        bytes functionSignature;\n    }\n\n    function executeMetaTransaction(\n        address userAddress,\n        bytes memory functionSignature,\n        bytes32 sigR,\n        bytes32 sigS,\n        uint8 sigV\n    ) public payable returns (bytes memory) {\n        MetaTransaction memory metaTx = MetaTransaction({\n            nonce: nonces[userAddress],\n            from: userAddress,\n            functionSignature: functionSignature\n        });\n\n        require(\n            verify(userAddress, metaTx, sigR, sigS, sigV),\n            \"Signer and signature do not match\"\n        );\n\n        // increase nonce for user (to avoid re-use)\n        nonces[userAddress] = nonces[userAddress].add(1);\n\n        emit MetaTransactionExecuted(\n            userAddress,\n            payable(msg.sender),\n            functionSignature\n        );\n\n        // Append userAddress and relayer address at the end to extract it from calling context\n        (bool success, bytes memory returnData) = address(this).call(\n            abi.encodePacked(functionSignature, userAddress)\n        );\n        require(success, \"Function call not successful\");\n\n        return returnData;\n    }\n\n    function hashMetaTransaction(MetaTransaction memory metaTx)\n        internal\n        pure\n        returns (bytes32)\n    {\n        return\n            keccak256(\n                abi.encode(\n                    META_TRANSACTION_TYPEHASH,\n                    metaTx.nonce,\n                    metaTx.from,\n                    keccak256(metaTx.functionSignature)\n                )\n            );\n    }\n\n    function getNonce(address user) public view returns (uint256 nonce) {\n        nonce = nonces[user];\n    }\n\n    function verify(\n        address signer,\n        MetaTransaction memory metaTx,\n        bytes32 sigR,\n        bytes32 sigS,\n        uint8 sigV\n    ) internal view returns (bool) {\n        require(signer != address(0), \"NativeMetaTransaction: INVALID_SIGNER\");\n        return\n            signer ==\n            ecrecover(\n                toTypedMessageHash(hashMetaTransaction(metaTx)),\n                sigV,\n                sigR,\n                sigS\n            );\n    }\n}\n",
  "sourcePath": "/Users/olayinkaokewale/Documents/bull_nft/bulltycoons_contracts/contracts/common/meta-transactions/NativeMetaTransaction.sol",
  "compiler": {
    "name": "solc",
    "version": "0.8.0+commit.c7dfd78e.Emscripten.clang"
  },
  "schemaVersion": "3.3.2",
  "updatedAt": "2021-10-10T00:58:58.636Z",
  "devdoc": {
    "kind": "dev",
    "methods": {},
    "version": 1
  },
  "userdoc": {
    "kind": "user",
    "methods": {},
    "version": 1
  }
}